:020000040800F2
:1000000060040020911A0008191A00081B1A000841
:100010001D1A00081F1A0008211A0008000000001D
:10002000000000000000000000000000231A00088B
:10003000251A000800000000271A0008291A0008E5
:10004000BD1A0008C11A0008C51A0008C91A00081C
:10005000CD1A0008D11A0008D51A0008D91A0008CC
:10006000DD1A0008E11A0008E51A0008E91A00087C
:10007000ED1A0008F11A0008F51A0008F91A00082C
:10008000FD1A0008011B0008051B0008091B0008D9
:100090000D1B0008111B0008151B0008191B000888
:1000A0001D1B0008211B0008251B0008291B000838
:1000B0002D1B0008311B00082D1A0008351B0008F5
:1000C000391B00083D1B0008411B0008451B0008A8
:1000D000491B00084D1B0008511B0008551B000858
:1000E000591B00085D1B0008611B0008651B000808
:1000F000691B00086D1B0008711B0008751B0008B8
:10010000791B00087D1B0008811B0008851B000867
:10011000891B00088D1B0008911B0008951B000817
:10012000991B00089D1B0008A11B0008A51B0008C7
:10013000A91B0008AD1B0008B11B0008B51B000877
:10014000B91B0008BD1B0008C11B0008C51B000827
:10015000C91B0008CD1B0008D11B0008D51B0008D7
:10016000D91B0008DD1B0008E11B0008E51B000887
:10017000E91B0008ED1B0008F11B0008000000004F
:10018000F51B0008F91B0008FD1B0008011C0008F6
:10019000051C0008091C00080D1C0008111C0008A3
:1001A000151C0008191C00081D1C000838B50400A7
:1001B00001D1012032BD00F045F818B900F03EF839
:1001C00000F04AFBFFE702206870211D206800F064
:1001D000BAF901206870002032BD03D1416C41F4AE
:1001E00000414164816801F00701062903D00168DC
:1001F00041F001010160002010BD38B5040001D1BB
:10020000012032BD00F01EF818B900F017F800F018
:100210006FFBD8E710B500F007F800F00AF81CBF34
:10022000DFF828209042D8E704460122206800F039
:10023000CEBA2068DFF81810884270470021297074
:100240002046704704F13C0568787047000401407F
:100250000000014010B50446206801698A0715D5E1
:10026000C1688A0712D56FF002010161012222776D
:10027000806910F0030F204602D000F03AFB03E043
:1002800000F038FB00F087F8002020772068016933
:100290004A0715D5C1684A0712D56FF004010161FC
:1002A00002222277806910F4407F204602D000F0BD
:1002B00020FB03E000F01EFB00F06DF8002020772B
:1002C000206801690A0715D5C1680A0712D56FF0C1
:1002D0000801016104222277C06910F0030F204653
:1002E00002D000F006FB03E000F004FB00F053F83E
:1002F0000020207720680169CA0615D5C168CA06A2
:1003000012D56FF01001016108222277C06910F444
:10031000407F204602D000F0ECFA03E000F0EAFA59
:1003200000F039F80020207720680169CA0708D555
:10033000C168CA0705D56FF001010161204600F0D0
:10034000DAFA206801690A0608D5C1680A0605D5E7
:100350006FF080010161204600F0CEFA206801694B
:100360004A0608D5C1684A0605D56FF0400101610B
:10037000204600F0C2FA206801698A060AD5C168E1
:100380008A0607D56FF0200101612046BDE81040C4
:1003900000F0B4BA10BD204600F0B1BA70B500F05C
:1003A00063F801D1022070BD00F06BF832B1042A6D
:1003B00017D0082A28D00C2A39D04AE030682946BC
:1003C00000F00CF93068816941F0080100F048F84C
:1003D00021F00401816131688A69286902438A61D8
:1003E00037E03068294600F025F93068816941F42A
:1003F000006100F035F821F4806100F031F82A69DD
:1004000041EA0221816124E03068294600F042F986
:100410003068C16941F0080100F01EF821F00401C4
:10042000C1613168CA6928690243CA6111E0306854
:10043000294600F05EF93068C16941F4006100F0BE
:100440000BF821F4806100F007F82A6941EA0221E3
:10045000C16100F010F870BDC1613068C1697047BA
:100460008161306881697047064606F13C040D469B
:100470002078012870470120607000212170002041
:1004800070470120207002216170704738B500F07C
:100490004EF801D1022032BD01202070022262708C
:1004A000DFF894022A6893680340936008680200AA
:1004B00018BF10282DD0202818BF302829D0402858
:1004C00023D0502816D0602818D0702803D0B0F55B
:1004D000005F07D021E000F025F82868816841F02E
:1004E000770105E000F01EF82868816841F480413A
:1004F000816012E000F012F850210BE0CA684968F0
:10050000286800F040F9602104E000F007F840217D
:1005100000E00146286800F048F90EE0CA68496822
:10052000286821E1CB684A688968286845E1054662
:1005300005F13C04207801287047012060700021FB
:100540002170002032BDF0B57C4C05687C4B7D4E9F
:100550007D4FDFF8F8C1A04218BFB0F1804F07D03F
:10056000604518BFB84203D0B04218BF98420DD1C1
:100570004A6825F070051543A04218BFB0F1804FBE
:1005800017D060451CBFB842B04212D098421CBF81
:100590006F4A90420DD06F4EB0421CBF6E4A9042DF
:1005A00007D06E4EB0421FBF6D4A90426D4EB042B2
:1005B00003D1CA6825F4407515434A6925F08005C2
:1005C00015430560A0428D68C5620A68826212BF49
:1005D00098420969016301224261F0BDF0B5026AE7
:1005E000564F520852000262066A446885690B68D9
:1005F0008A6825F0730526F002061D431643504B0A
:10060000B84218BF984207D1CA6826F008061643B8
:10061000B84226F0040601D0984205D14B698A6998
:1006200024F440741C431443446085614968416369
:100630000662F0BDF0B5026A404E22F0100202627E
:10064000B042056A436884690A6824F4E64444EACF
:1006500002248A6825F0200545EA0215384A18BFA9
:10066000904208D1CF6825F0800545EA0715B042D1
:1006700025F0400501D0904206D14E698A6923F4E5
:100680004063164343EA860343608461496881639B
:100690000562F0BDF0B5026A22F480720262056A5A
:1006A0004368C4698E680A6825F4007524F07304F1
:1006B00045EA06251443214E214AB04218BF904214
:1006C00008D1CF6825F4006545EA0725B04225F436
:1006D000806501D0904206D14E698A6923F4405367
:1006E000164343EA06134360C4614968C163056267
:1006F000F0BD70B5026A114E22F480520262B0421F
:10070000046A4268C3690D6823F4E64343EA05239B
:100710008D6824F4005444EA05341CBF084DA842F7
:1007200004D14D6922F4804242EA85124260C361DD
:1007300049680164046270BD8800FFFF0000014049
:1007400000040140000C004000080040000400408C
:1007500000400140004401400048014000180040B2
:10076000001C00400020004010B5036A046A6408C1
:100770006400046223F00A03846924F0F00444EA6C
:10078000021484612EE010B5036A23F010030362A3
:100790008369046A23F4704343EA023324F0A0041B
:1007A000836144EA0114046210BD826822F0700281
:1007B000114341F007018160704710B5846824F44B
:1007C0007F442143114341EA0321816010BD10B5EC
:1007D00001F01F01036A01248C40A343036202FA63
:1007E00001F1036A1943016210BD30B4002513E022
:1007F00050F8042BD30744BFA9F101039A18091F2D
:10080000042942F8045BFAD213468C0744BF1580D2
:100810009B1CC90748BF1D7050F8041B0029E7D175
:1008200030BC704781B00020009000222C48416805
:1008300041F480414160416801F480410091009998
:100840000092036843F080530360006800F080501A
:100850000090009801B0704700682249884200D09B
:10086000704780B500221E480092016841F00401E3
:1008700001600021006800F00400009000981E2034
:1008800000F058F8BDE802401E2000F070B810B526
:1008900086B004461422002101A800F093F82168D4
:1008A0001048814219D100220F48009202220168AB
:1008B00041F0080101604FF40051006800F00800A9
:1008C000009000980948019102920021039104913F
:1008D0000221059101A900F07FF806B010BD0000CB
:1008E000403802400008004030380240000C02400E
:1008F0007047704770477047704770477047704740
:100900000901020002D4294881547047284B02F0A3
:100910000F021A4402F8041C7047264B19684FF660
:10092000FF020002114000F4E0600843224908433E
:100930001860704770B51F4B1C68C4F30223012474
:10094000C3F10705052D2EBF0F2504FA05F56D1E11
:100950001E1D072E34BF0023DB1E2940994004FAD8
:1009600003F3BDE870405B1E1A401143C8E7010065
:1009700007D4012200F01F01104B8A40400943F8C0
:100980002020704710B5401EB0F1807F01D30120B8
:1009900010BD0B4C60600F214FF0FF30FFF7B0FF30
:1009A0000021A16007202060002010BD00E400E0CD
:1009B00018ED00E00CED00E00000FA0500E100E0B9
:1009C00010E000E010B5044610460A4601462046F5
:1009D00000F0FEF8204610BD2DE9F84F0D46002628
:1009E0006E496F4A0F23044601202F68B04000EA89
:1009F0000708804540F0CB804FEA460C032707FAF2
:100A00000CF76FEA070E6F68012F18BF022F03D093
:100A1000112F18BF122F12D1A768D5F80C900EEA2B
:100A2000070709FA0CF949EA0707A760676827EA88
:100A300000006F68C7F30017B74038436060E06894
:100A4000AF680EEA000007FA0CF73843E060B00028
:100A50006F68022F18BF122F12D1F70804EB870717
:100A600000F01C09D7F820A003FA09FB2AEA0B0AB8
:100A7000D5F810B00BFA09F949EA0A09C7F820902D
:100A800027680EEA070E2F7907F0030707FA0CF71D
:100A900047EA0E0727606F68FF0078D500270097A8
:100AA0004FEA960C176847F48047176000F00C0077
:100AB000176807F48047009703FA00FE009F394F3C
:100AC00057F82C7027EA0E0E374FBC4208BF00279C
:100AD0002CD0364FBC4208BF012727D0344FBC4230
:100AE00008BF022722D0334FBC4208BF03271DD0C6
:100AF000314FBC4208BF042718D0304FBC4208BF5A
:100B0000052713D02E4FBC4208BF06270ED02D4F0D
:100B1000BC4208BF072709D02B4FBC4208BF08279B
:100B200004D02A4FBC420CBF09270A2707FA00F05D
:100B30001C4F40EA0E0047F82C006FEA08000F68CF
:100B400000EA070C6F68FF0348BF48EA0C0CC1F8C5
:100B500000C04F6800EA070C6F68BF0348BF48EA4F
:100B60000C0CC1F804C08F6800EA070C6F68FF0224
:100B700048BF48EA0C0CC1F808C0CF6800EA070C6F
:100B80006868800248BF48EA0C0CC1F80CC0761CAB
:100B90000F2E7FF629AFBDE8F18F0000003C014029
:100BA000443802400838014000000240000402407E
:100BB00000080240000C02400010024000140240F5
:100BC00000180240001C02400020024000240240A5
:100BD00062F30F2262F31F42401810F0030308D0A3
:100BE000C91A1FD3DB0748BF00F8012D28BF20F822
:100BF000022D130030B414461546103928BF20E9E1
:100C00003C00FAD8490728BF20E90C0048BF40F84B
:100C1000042D890028BF20F8022D48BF00F8012DBF
:100C200030BC7047C91818BF00F8012DCB0728BF8A
:100C300000F8012D704730B40EE0026843680244AA
:100C40000830DC0744BFA9F10104E31852F8045B43
:100C500043F8045B091FF9D150F8041B0029ECD1BB
:100C600030BC70472DE9F843040016D02078DFF837
:100C7000F462C10713D5B06800F00C00042807D057
:100C8000B06800F00C0008283DD1706841023AD5E8
:100C90003068810303D56068002800F05E81207809
:100CA000B14F810719D5B06810F00C0F07D0B068AC
:100CB00000F00C0008285BD17068410258D43068FD
:100CC000810703D5E068012840F047813168206939
:100CD00021F0F80141EAC00131602178080779D597
:100CE0006069A249002868D001220A6000F042F938
:100CF0000546706F81076DD400F03CF9401B022857
:100D0000F7D903202CE16068B0F5803F04D130684A
:100D100040F48030306011E0B0F5A02F306806D18B
:100D200040F480203060316841F4803105E020F4E7
:100D300080303060316821F480213160606858B1C2
:100D400000F018F9054630688103A8D400F012F9C4
:100D5000401B6528F7D3D4E700F00CF9054630684E
:100D600081039CD500F006F9401B6528F7D3C8E73E
:100D7000E068A8B10121396000F0FCF80546306850
:100D8000810705D400F0F6F8401B0228F7D9B8E730
:100D90003068216920F0F80040EAC10030609CE72B
:100DA000386000F0E7F805463168880795D500F00F
:100DB000E1F8401B0228F7D9A3E7086000F0DAF851
:100DC0000546706F810705D500F0D4F8401B022856
:100DD000F7D996E7207841075FD5306C0025C10030
:100DE0000AD400950125316C41F080513164306C9A
:100DF00000F0805000900098DFF87481D8F800006F
:100E0000C10513D4D8F8000040F48070C8F8000081
:100E100000F0B0F88146D8F80000C10506D400F013
:100E2000A9F8A0EB09000228F5D96AE7A068012813
:100E300005D00528306F06D140F004003067306FD0
:100E400040F0010005E0400840003067306F20F0BE
:100E50000400306741F28938A06860B100F08AF878
:100E60008146306F810713D400F084F8A0EB0900AD
:100E70004045F6D345E700F07DF88146306F8107A5
:100E800006D500F077F8A0EB09004045F6D338E727
:100E90001DB1306C20F080503064A06900285ED015
:100EA000B16801F00C0108293AD002282AD10020AB
:100EB000386600F05FF805463068810105D500F01E
:100EC00059F8401B0228F7D91BE7E069216A626ADA
:100ED0000843A16A490840EA8210491E40EA0140DD
:100EE000E16A40EA016070600120386600F042F873
:100EF00004463068810132D400F03CF8001B02281F
:100F0000F7D9FEE60020386600F034F80446306871
:100F1000810124D500F02EF8001B0228F7D9F0E655
:100F200001281AD0B068E26900F48001914202BF42
:100F300000F03F01226A91420FD147F6C071626A08
:100F40000140914202BF00F44031A26A914202BFC7
:100F500000F07060E16A884201D0012000E00020CA
:100F6000BDE8F2830038024000004742800E47424D
:100F70000070004001484068704700BF000000203A
:100F8000F0B540F2FF7581EA030C0CF0004C15EA55
:100F900011541DBF15EA1357AC42AF42E5E0BC4106
:100FA000C1F31301C3F31303801A994143F480136F
:100FB00004D2641E4000494180185941C90241EAE7
:100FC0005051B1FBF3F603FB1611A2FB0675D7EBEC
:100FD000C020A94102D2761E80185941C90241EAB7
:100FE0005051B1FBF3FE03FB1E11A2FB0E75D7EBB4
:100FF000C020A94103D2AEF1010E801859418902E7
:1010000041EA9051760546EA8E2EB1FBF3F603FBDA
:101010001611A2FB0675D7EB8020A94102D2761EDD
:1010200080185941C90241EA50514EEA060EB1FBFF
:10103000F3F603FB1611A2FB0675D7EBC020A941FE
:1010400002D2761E80185941C90241EA5051B1FBC3
:10105000F3F703FB1711A2FB0735D3EBC020A9411F
:1010600067F100070CBF004247F0010766F3D52780
:101070004FEA1E31B80814F5806412DDBD0775F122
:10108000004250EB0E5051EB045111F5801F5CBF34
:1010900041EA0C01F0BD4CF07F6141F0E0410020DD
:1010A000F0BDBD076D0840EA0E5041F48011D4F147
:1010B0000104B4F120060ADAC4F120060200E0407F
:1010C00001FA06F3E1401843B24015430EE0342C18
:1010D00013DCC6F1200445EA40056D0820FA06F24B
:1010E000154321FA06F0A1400D43002175F100429D
:1010F00050F1000051EB0C01F0BD00205FEA0C0143
:10110000F0BDCFB992185B41B3FA83F704BFB2FACE
:1011100082F6BF190B3FB7F120062FBF02FA06F384
:10112000BB40C7F1200622FA06F638BF3343BA4067
:101130001CB1E419641E33E77F4231F00041B1FA7B
:1011400081F404BFB0FA80F6A4190B3CB4F1200678
:101150002FBF00FA06F1A140C4F1200620FA06F6DE
:1011600038BF3143A0403C1B1AE7AC421ABF05EA26
:101170001357AF4212E050EA41061CBF52EA430641
:10118000BFE750EA4107304661461CBF41EA0551BE
:10119000F0BD52EA430C08BFC143F0BD00204FF43C
:1011A000001616EB410F98BF16EB430F08BF16EB66
:1011B000410F24BFC14305E016EB430F0CBF61464E
:1011C0004CEA0551F0BD000018B587B060220092CE
:1011D000019000220292049204227B4C694604F1A1
:1011E0000800FFF7DBF800F0A0F808B010BD2DE90B
:1011F000F8418DB000F0FEF800F09CF800F0F4F833
:1012000000200090DFF8C48171486F4C016841F004
:1012100080010160026802F08002009200220099C1
:101220000092036843F001030360016801F00101CB
:10123000009100990092FF21036843F008030360C6
:10124000006800F00800009000980191029203925B
:1012500001A94046FFF7C0FB1022002109A8FFF7B3
:10126000B1FB082200216846FFF7ACFB1C220021DD
:1012700002A8FFF7A7FB0021E16043F2D301554824
:10128000A060616100202061A0618021216204F1E1
:101290000800FEF78BFF4FF48050099009A904F174
:1012A0000800FFF7F3F804F10800FEF7A6FF00219D
:1012B0000091019104F10800694600F0B5F8602141
:1012C0000022029103920492069202A9042204F1E0
:1012D0000800FFF763F804F10800FFF7D8FA00F000
:1012E00024F8D8F81000D8F810600006000F0A2281
:1012F00010FB02F506F00F067719B8B200F0DAF825
:101300000022354BFFF73CFE0022344B00F0E0F8A2
:1013100041EC100B25806680A78084ED120B00F055
:10132000A9F980B2FFF750FFDBE7042104F10800C0
:10133000FEF770BF80B592B03022002106A8FFF7FB
:1013400041FB00F051F8002000904FF48033244816
:10135000016841F0805101600021006800F0805078
:10136000009000981F480091026822F4404242F425
:10137000804202600122006800F44040009006A80C
:101380000099069202214FF480020C910D920421E3
:1013900064220E910F920221042207931091119260
:1013A000FFF760FC02210291002203920F204FF40C
:1013B000A051019004914FF480520592032101A89D
:1013C00000F076F913B000BD1000002000000240CC
:1013D0003038024000080040000059408069C84091
:1013E00040380240007000401422002101A8FFF79D
:1013F000E9BA000080B50B48016841F40071016052
:10140000026842F480620260016841F48071016008
:101410000320FFF782FA002000F00AFAFFF702FA31
:10142000002002BD003C024070B500F13C031A7878
:10143000012A01D1022070BD01221A7002245C70C1
:1014400005686E68AC680A6826F0700616436E6020
:1014500002681148824218BFB2F1804F11D00F4884
:1014600082421CBF0E4DAA420BD00E4882421CBFC6
:101470000D4DAA4205D00D4882421CBF0C4DAA4218
:1014800004D1486824F08004044394600121597019
:101490000020187070BD00000000014000040040F2
:1014A00000080040000C00400004014000400140E2
:1014B00000180040014648B1B0FA80F18840C91CCC
:1014C000C1F58461090501EBD0214005704700009A
:1014D000B0B581EA030C0CF0004C40F2FF7515EA40
:1014E00011541DBF15EA1357AC42AF4239E0E4195D
:1014F00023EA455343F48013C90241F0004141EA15
:10150000505EC7021100A7FB020200284FF0000046
:10151000EEFB01204FF00001E3FB072118BF42F072
:101520000102401800214941E3FB0E01A4F580644B
:101530000F0302D252004041494154F101046CDDD5
:10154000470872F1004250F1000051EB0451A1F53F
:1015500080115CBF41EA0C01B0BD4CEA055100208E
:10156000B0BD05EA1357AC4214BFAF4241E050EAA8
:10157000410E1CBF52EA430E02E061460020B0BD9E
:1015800024423C441BD15FEA070EF6D0090302BF98
:1015900001460020AEF1140EB1FA81F7AEEB07045C
:1015A00001FA07FE0C37C7F1200100FA07F7C8401F
:1015B0004EEA000E23EA455343F48013A2E733F0CA
:1015C0000043B3FA83F704BFB2FA82FE77440B3FBD
:1015D000E41BB7F1200E2FBF02FA0EF3BB40C7F198
:1015E000200E22FA0EFE38BF43EA0E03BA40641CF6
:1015F00082E750EA410E14BF52EA430E6FF0000139
:101600004FF4001717EB430F8ABF194617EB410F32
:10161000B5E74CEA05510020B0BDD4F10104B4F1A6
:1016200020070FDAC4F12007520828BF42F0010258
:1016300010FA07F501FA07F7E1BF2A43E040384303
:10164000E1400FE0352C98DCC7F1200452EA40025B
:1016500020FA07F218BF42F0010231FA07F0A14068
:101660000A43002172F1004250F1000051EB0C01DD
:10167000B0BD0000C1F30A5340F2FE329B1A14DDE4
:10168000D3F120034FEAE17208DDC90241EA50516B
:1016900041F00040D84080185040704703F2E130DC
:1016A00010B1D24382F00040704700207047000024
:1016B0002DE9F04104000F4654D0404E306800F050
:1016C0000F00B84202D200F073F84BD120683C4DB5
:1016D000810712D5400703D5A96841F4E051A960FC
:1016E0002078010703D5A86840F46040A860A96885
:1016F000A06821F0F0010143A9602178C80729D52D
:101700006068012802D129688A0305E0022818BF11
:10171000032803D129688A0103D423E029688A07B2
:1017200020D5A968890840EA8100A860FFF722FC5B
:101730008046A868616800F00C00B0EB810F09D00A
:10174000FFF718FCA0EB080041F289318842F0D382
:1017500003202BE0306800F00F00874204D200F035
:1017600027F801D0012021E02078410705D5AA689B
:10177000E06822F4E0520243AA602178080706D507
:10178000A968206921F4604141EAC001A96000F024
:101790001FF8AA680B490C4BC2F30312895CC840BE
:1017A00018600A48006800F043F80020BDE8F081A6
:1017B0003770316801F00F01B9427047003C0240B8
:1017C00000380240981900080C0000200800002092
:1017D00030B5144C606800F00C00042802D00828D2
:1017E00002D01DE0104830BD22682068002341026D
:1017F00002F03F0204D525680B49C5F3881003E0C9
:1018000020680A49C0F38810A1FB000100F030F8FD
:101810002168C1F30141491C4900B0FBF1F030BD22
:10182000024830BD0438024000127A000024F4005F
:1018300038B50D4D0D4B2A7804464FF47A7118686F
:10184000B1FBF2F2B0FBF2F0FFF79CF850B9102CAC
:1018500008D2002221464FF0FF30FFF76BF8AC6052
:10186000002032BD012032BD000000200C0000200D
:10187000D3BBD9B1B2F5803F5BD2022A1ED98C46C8
:10188000B1FBF2F102FB11C31B0443EA1043B3FBAB
:10189000F2FC02FB1C3380B240EA0343B3FBF2F0DC
:1018A00002FB103240EA0C4000237047022A05D99F
:1018B0008446B0FBF2F002FB10C270474AB105D17A
:1018C00000F0010249085FEA30007047002200235F
:1018D000704700F051B80B00020000210020704753
:1018E000F7D3002200237047904271EB030CF2D330
:1018F00070B5B1FA81F4B3FA83F52C1BA340C4F19F
:10190000200532FA05F63343A2405FF00046E64078
:1019100002E05B085FEA3202841A71EB030524BF20
:10192000204629467641F4D302000B003000002106
:1019300070BD70B5B1FA81F4B2FA82F5C4F1200439
:101940006419B4F12006DAD3B2405FF00044F440E9
:10195000002502E052085FEA3303C61A71EB020E5B
:1019600024BF3046714664416D41F3D302000B0041
:101970002000290070BD0000704700000448054A9F
:10198000016841F4700101604FF000601060704721
:1019900088ED00E008ED00E000000000000000001D
:1019A000010203040607080910B5074979441831F4
:1019B000064C7C44163404E00A68081D114488472C
:1019C0000146A142F8D110BD2C0000004C000000DF
:1019D0004EF68851CEF20001086840F470000860AD
:1019E000BFF34F8FBFF36F8F4FF00070E1EE100A1F
:1019F00070470000F7EDFFFF5000000010000020CE
:101A00000000000033F2FFFF10000000940000000F
:101A100000000020000000007047FEE7FEE7FEE740
:101A2000FEE770477047704700F006B80148FEF7C0
:101A300011BC0000180000200248416802788A1892
:101A4000426070470000002000F00DF8002801D02F
:101A5000FFF7AAFFAFF300800020AFF30080FFF78D
:101A6000C6FB00F002F80120704700F001B800004A
:101A70000746384600F002F8FBE7000080B5AFF3F8
:101A80000080024A11001820ABBEFBE726000200CE
:101A900001488047014800477D190008B11A000835
:101AA0000100000000000000100000000024F4000D
:101AB000AFF30080FFF78CFFFFF7C6FFFFF7FEBF15
:101AC000FFF7FEBFFFF7FEBFFFF7FEBFFFF7FEBF4A
:101AD000FFF7FEBFFFF7FEBFFFF7FEBFFFF7FEBF3A
:101AE000FFF7FEBFFFF7FEBFFFF7FEBFFFF7FEBF2A
:101AF000FFF7FEBFFFF7FEBFFFF7FEBFFFF7FEBF1A
:101B0000FFF7FEBFFFF7FEBFFFF7FEBFFFF7FEBF09
:101B1000FFF7FEBFFFF7FEBFFFF7FEBFFFF7FEBFF9
:101B2000FFF7FEBFFFF7FEBFFFF7FEBFFFF7FEBFE9
:101B3000FFF7FEBFFFF7FEBFFFF7FEBFFFF7FEBFD9
:101B4000FFF7FEBFFFF7FEBFFFF7FEBFFFF7FEBFC9
:101B5000FFF7FEBFFFF7FEBFFFF7FEBFFFF7FEBFB9
:101B6000FFF7FEBFFFF7FEBFFFF7FEBFFFF7FEBFA9
:101B7000FFF7FEBFFFF7FEBFFFF7FEBFFFF7FEBF99
:101B8000FFF7FEBFFFF7FEBFFFF7FEBFFFF7FEBF89
:101B9000FFF7FEBFFFF7FEBFFFF7FEBFFFF7FEBF79
:101BA000FFF7FEBFFFF7FEBFFFF7FEBFFFF7FEBF69
:101BB000FFF7FEBFFFF7FEBFFFF7FEBFFFF7FEBF59
:101BC000FFF7FEBFFFF7FEBFFFF7FEBFFFF7FEBF49
:101BD000FFF7FEBFFFF7FEBFFFF7FEBFFFF7FEBF39
:101BE000FFF7FEBFFFF7FEBFFFF7FEBFFFF7FEBF29
:101BF000FFF7FEBFFFF7FEBFFFF7FEBFFFF7FEBF19
:101C0000FFF7FEBFFFF7FEBFFFF7FEBFFFF7FEBF08
:101C1000FFF7FEBFFFF7FEBFFFF7FEBFFFF7FEBFF8
:0400000508001AB124
:00000001FF
