:020000040800F2
:1000000090040020411900087D1700087F170008A0
:1000100081170008831700088517000800000000FA
:10002000000000000000000000000000871700082A
:1000300089170008000000008B1700088D170008C2
:100040006D19000871190008751900087919000860
:100050007D19000881190008851900088919000810
:100060008D190008911900089519000899190008C0
:100070009D190008A1190008A5190008A919000870
:10008000AD190008B1190008B5190008B919000820
:10009000BD190008C1190008C5190008C9190008D0
:1000A000CD190008D1190008D5190008D919000880
:1000B000DD19000891170008E1190008E51900088A
:1000C000E9190008ED190008F1190008F5190008F0
:1000D000F9190008FD190008011A0008051A00089E
:1000E000091A00080D1A0008111A0008151A00084C
:1000F000191A00081D1A0008211A0008251A0008FC
:10010000291A00082D1A0008311A0008351A0008AB
:10011000391A00083D1A0008411A0008451A00085B
:10012000491A00084D1A0008511A0008551A00080B
:10013000591A00085D1A0008611A0008651A0008BB
:10014000691A00086D1A0008711A0008751A00086B
:10015000791A00087D1A0008811A0008851A00081B
:10016000891A00088D1A0008911A0008951A0008CB
:10017000991A00089D1A0008A11A00080000000042
:10018000A51A0008A91A0008AD1A0008B11A00083B
:10019000B51A0008B91A0008BD1A0008C11A0008EB
:1001A000C51A0008C91A0008CD1A000838B504009D
:1001B00001D1012032BD00F02EF818B900F027F867
:1001C00000F0DEFBFFE702206870211D206800F0D0
:1001D0002FFA01206870002032BD38B5040001D12B
:1001E000012032BD00F017F818B900F010F800F047
:1001F00021FCE8E738B5040001D1012032BD00F050
:100200000AF818B900F003F800F015FCDBE700214C
:1002100029702046704704F13C056878704710B596
:100220000446206801698A0715D5C1688A0712D576
:100230006FF00201016101222277806910F0030F43
:10024000204602D000F0F8FB03E000F0F6FB00F0DF
:1002500087F800202077206801694A0715D5C16812
:100260004A0712D56FF004010161022222778069EA
:1002700010F4407F204602D000F0DEFB03E000F0E7
:10028000DCFB00F06DF800202077206801690A0788
:1002900015D5C1680A0712D56FF008010161042263
:1002A0002277C06910F0030F204602D000F0C4FB93
:1002B00003E000F0C2FB00F053F800202077206834
:1002C0000169CA0615D5C168CA0612D56FF01001BA
:1002D000016108222277C06910F4407F204602D0D5
:1002E00000F0AAFB03E000F0A8FB00F039F80020C2
:1002F000207720680169CA0708D5C168CA0705D5F3
:100300006FF001010161204600F098FB206801694F
:100310000A0608D5C1680A0605D56FF0800101619B
:10032000204600F08CFB206801694A0608D5C168A8
:100330004A0605D56FF040010161204600F080FBC0
:10034000206801698A060AD5C1688A0607D56FF058
:10035000200101612046BDE8104000F072BB10BDD5
:10036000204600F06FBBF8B500F0DDF801D10220A7
:10037000F2BD00F0E5F882B9EB686A682968306878
:1003800000F04FFA3068816921F00C018161316819
:100390008A69A86802438A615CE0042A10D1EB688C
:1003A0006A682968306800F094FA3068816921F43D
:1003B000406100F0B4F8AA6841EA0221816149E095
:1003C000082AE9686A682B6823D13768386A20F4FC
:1003D000807038621B0207F11C0003F42063D0F820
:1003E00000C0D7F820E04FEA9C0C42EA8C0261F38F
:1003F000071202602EF4206003433B623068C1693B
:1004000021F00C01C1613168CA69A8680243CA6160
:1004100020E030681C301B03476827F48057476092
:1004200003F420430768D0F804C027F4407747EA74
:10043000022761F30F372CF4204107600B43436020
:100440003068C16921F4406100F065F8AA6841EAAA
:100450000221C16100F06EF8F2BD70B500F063F8E2
:1004600001D1022070BD00F06BF832B1042A17D020
:10047000082A28D00C2A39D04AE03068294600F0F2
:1004800022F93068816941F0080100F048F821F054
:100490000401816131688A69286902438A6137E011
:1004A0003068294600F03BF93068816941F4006109
:1004B00000F035F821F4806100F031F82A6941EA52
:1004C0000221816124E03068294600F058F9306843
:1004D000C16941F0080100F01EF821F00401C1617A
:1004E0003168CA6928690243CA6111E03068294647
:1004F00000F074F93068C16941F4006100F00BF854
:1005000021F4806100F007F82A6941EA0221C16103
:1005100000F010F870BDC1613068C1697047816139
:10052000306881697047064606F13C040D46207824
:100530000128704701206070002121700020704761
:100540000120207002216170704738B500F04EF82C
:1005500001D1022032BD0120207002226270DFF83A
:1005600024032A689368034093600868020018BF58
:1005700010282DD0202818BF302829D0402823D07B
:10058000502816D0602818D0702803D0B0F5005F2E
:1005900007D021E000F025F82868816841F0770154
:1005A00005E000F01EF82868816841F48041816010
:1005B00012E000F012F850210BE0CA684968286880
:1005C00000F09DF9602104E000F007F8402100E010
:1005D0000146286800F0A5F90EE0CA684968286855
:1005E00068E1CB684A6889682868A2E1054605F198
:1005F0003C042078012870470120607000212170A0
:10060000002032BD0246002031B1042907D008295C
:1006100008D00C2909D070471068406B70471068EB
:10062000806B70471068C06B70471068006C704733
:10063000F0B5954C0568954B954E964FDFF858C22E
:10064000A04218BFB0F1804F07D0604518BFB84234
:1006500003D0B04218BF98420DD14A6825F070050A
:100660001543A04218BFB0F1804F17D060451CBFA2
:10067000B842B04212D098421CBF884A90420DD076
:10068000874EB0421CBF874A904207D0864EB04288
:100690001FBF864A9042864EB04203D1CA6825F4F5
:1006A000407515434A6925F0800515430560A04251
:1006B0008D68C5620A68826212BF98420969016347
:1006C00001224261F0BDF0B5026A6F4F520852003C
:1006D0000262066A446885690B688A6825F07305BA
:1006E00026F002061D431643684BB84218BF9842D5
:1006F00007D1CA6826F008061643B84226F0040659
:1007000001D0984205D14B698A6924F440741C4396
:10071000144344608561496841630662F0BDF0B5E9
:10072000026A594E22F010020262B042056A436822
:1007300084690A6824F4E64444EA02248A6825F0BD
:10074000200545EA0215514A18BF904208D1CF68EA
:1007500025F0800545EA0715B04225F0400501D097
:10076000904206D14E698A6923F44063164343EAF6
:10077000860343608461496881630562F0BDF0B51A
:10078000026A22F480720262056A4368C4698E6854
:100790000A6825F4007524F0730445EA062514431D
:1007A000394E3A4AB04218BF904208D1CF6825F47A
:1007B000006545EA0725B04225F4806501D09042E6
:1007C00006D14E698A6923F44053164343EA06135F
:1007D0004360C4614968C1630562F0BD70B5026AD7
:1007E000294E22F480520262B042046A4268C36910
:1007F0000D6823F4E64343EA05238D6824F400548E
:1008000044EA05341CBF214DA84204D14D6922F4AD
:10081000804242EA85124260C36149680164046211
:1008200070BDF0B5046A184E640864000462B042FA
:100830008469056A18BFB0F1804F11D0164EB042DE
:100840001CBF144FB8420BD0114EB0421CBF0F4F0B
:10085000B84205D0114EB0421CBF134FB84203D16D
:10086000A40842EA840201E044F0010263F30712A3
:1008700025F00A0501F00A01826129430162F0BDF9
:10088000000000008800FFFF00000140000401405C
:10089000000C0040000800400004004000400140FF
:1008A000004401400048014000180040001C004086
:1008B0000020004010B5036A046A64086400046202
:1008C00023F00A03846924F0F00444EA02148461EA
:1008D00039E030B5046A24F0100404620901846927
:1008E000056A24F4407444EA022463F30F3425F0CB
:1008F000A00501F0A00184612943016230BD10B55B
:10090000036A23F0100303628369046A23F47043CB
:1009100043EA023324F0A004836144EA0114046230
:1009200010BD826822F07002114341F0070181601E
:10093000704710B5846824F47F442143114341EA91
:100940000321816010BD1943016210BD81B00020F8
:10095000009000223348416841F480414160416881
:1009600001F48041009100990092036843F08053A4
:100970000360006800F080500090009801B070475C
:1009800010B586B000F038F82168274881421CD1A4
:10099000002226480092016941F0020101610169CB
:1009A00001F002010091009900928021036843F058
:1009B00001030360022200F025F8002200211D201F
:1009C00000F078F81D2000F092F806B010BD10B5C8
:1009D00086B000F011F82168134881420AD1002244
:1009E000124800920222016841F001010160402199
:1009F00000F008F806B010BD04461422002101A83A
:100A000000F0A0B8006800F00100009000980848CD
:100A1000019102920021039104910221059101A903
:100A200000F09AB8403802400004004030380240DC
:100A3000000002407047704770477047704770472A
:100A400070477047704730B4002513E050F8042B0E
:100A5000D30744BFA9F101039A18091F042942F8DA
:100A6000045BFAD213468C0744BF15809B1CC90750
:100A700048BF1D7050F8041B0029E7D130BC7047F7
:100A80000901020002D4294881547047284B02F022
:100A90000F021A4402F8041C7047264B19684FF6DF
:100AA000FF020002114000F4E060084322490843BD
:100AB0001860704770B51F4B1C68C4F302230124F3
:100AC000C3F10705052D2EBF0F2504FA05F56D1E90
:100AD0001E1D072E34BF0023DB1E2940994004FA57
:100AE00003F3BDE870405B1E1A401143C8E70100E4
:100AF00007D4012200F01F01104B8A40400943F83F
:100B00002020704710B5401EB0F1807F01D3012036
:100B100010BD0B4C60600F214FF0FF30FFF7B0FFAE
:100B20000021A16007202060002010BD00E400E04B
:100B300018ED00E00CED00E00000FA0500E100E037
:100B400010E000E010B5044610460A460146204673
:100B500000F008F9204610BD2DE9F84F0D4600269B
:100B60007349744A0F23044601202F68B04000EAFD
:100B70000708804540F0CB804FEA460C032707FA70
:100B80000CF76FEA070E6F68012F18BF022F03D012
:100B9000112F18BF122F12D1A768D5F80C900EEAAA
:100BA000070709FA0CF949EA0707A760676827EA07
:100BB00000006F68C7F30017B74038436060E06813
:100BC000AF680EEA000007FA0CF73843E060B000A7
:100BD0006F68022F18BF122F12D1F70804EB870796
:100BE00000F01C09D7F820A003FA09FB2AEA0B0A37
:100BF000D5F810B00BFA09F949EA0A09C7F82090AC
:100C000027680EEA070E2F7907F0030707FA0CF79B
:100C100047EA0E0727606F68FF0078D50027009726
:100C20004FEA960C176847F48047176000F00C00F5
:100C3000176807F48047009703FA00FE009F3E4FB5
:100C400057F82C7027EA0E0E3C4FBC4208BF002715
:100C50002CD03B4FBC4208BF012727D0394FBC42A4
:100C600008BF022722D0384FBC4208BF03271DD03F
:100C7000364FBC4208BF042718D0354FBC4208BFCE
:100C8000052713D0334FBC4208BF06270ED0324F82
:100C9000BC4208BF072709D0304FBC4208BF082715
:100CA00004D02F4FBC420CBF09270A2707FA00F0D7
:100CB000214F40EA0E0047F82C006FEA08000F6849
:100CC00000EA070C6F68FF0348BF48EA0C0CC1F844
:100CD00000C04F6800EA070C6F68BF0348BF48EACE
:100CE0000C0CC1F804C08F6800EA070C6F68FF02A3
:100CF00048BF48EA0C0CC1F808C0CF6800EA070CEE
:100D00006868800248BF48EA0C0CC1F80CC0761C29
:100D10000F2E7FF629AFBDE8F18F0069084018BF9C
:100D20000120C0B2704702B9090481617047000018
:100D3000003C0140443802400838014000000240B5
:100D40000004024000080240000C02400010024073
:100D50000014024000180240001C02400020024023
:100D60000024024062F30F2262F31F42401810F089
:100D7000030308D0C91A1FD3DB0748BF00F8012DB1
:100D800028BF20F8022D130030B414461546103940
:100D900028BF20E93C00FAD8490728BF20E90C0009
:100DA00048BF40F8042D890028BF20F8022D48BF15
:100DB00000F8012D30BC7047C91818BF00F8012D8C
:100DC000CB0728BF00F8012D704730B40EE0026851
:100DD000436802440830DC0744BFA9F10104E3186A
:100DE00052F8045B43F8045B091FF9D150F8041B67
:100DF0000029ECD130BC70472DE9F843040016D02F
:100E00002078DFF8F462C10713D5B06800F00C0059
:100E1000042807D0B06800F00C0008283DD17068A5
:100E200041023AD53068810303D56068002800F09C
:100E30005E812078B14F810719D5B06810F00C0F92
:100E400007D0B06800F00C0008285BD17068410240
:100E500058D43068810703D5E068012840F0478105
:100E60003168206921F0F80141EAC0013160217840
:100E7000080779D56069A249002868D001220A6074
:100E800000F042F90546706F81076DD400F03CF91F
:100E9000401B0228F7D903202CE16068B0F5803FA1
:100EA00004D1306840F48030306011E0B0F5A02FFC
:100EB000306806D140F480203060316841F48031E0
:100EC00005E020F480303060316821F48021316009
:100ED000606858B100F018F9054630688103A8D45D
:100EE00000F012F9401B6528F7D3D4E700F00CF9A5
:100EF0000546306881039CD500F006F9401B652843
:100F0000F7D3C8E7E068A8B10121396000F0FCF828
:100F100005463068810705D400F0F6F8401B02282A
:100F2000F7D9B8E73068216920F0F80040EAC1003D
:100F300030609CE7386000F0E7F8054631688807C4
:100F400095D500F0E1F8401B0228F7D9A3E7086027
:100F500000F0DAF80546706F810705D500F0D4F887
:100F6000401B0228F7D996E7207841075FD5306CFF
:100F70000025C1000AD400950125316C41F0805153
:100F80003164306C00F0805000900098DFF874817C
:100F9000D8F80000C10513D4D8F8000040F48070E0
:100FA000C8F8000000F0B0F88146D8F80000C1058C
:100FB00006D400F0A9F8A0EB09000228F5D96AE7E9
:100FC000A068012805D00528306F06D140F0040044
:100FD0003067306F40F0010005E0400840003067A6
:100FE000306F20F00400306741F28938A06860B1AA
:100FF00000F08AF88146306F810713D400F084F83E
:10100000A0EB09004045F6D345E700F07DF88146A6
:10101000306F810706D500F077F8A0EB0900404556
:10102000F6D338E71DB1306C20F080503064A069F1
:1010300000285ED0B16801F00C0108293AD00228DE
:101040002AD10020386600F05FF80546306881013B
:1010500005D500F059F8401B0228F7D91BE7E069D5
:10106000216A626A0843A16A490840EA8210491E5F
:1010700040EA0140E16A40EA0160706001203866A0
:1010800000F042F804463068810132D400F03CF8A8
:10109000001B0228F7D9FEE60020386600F034F87D
:1010A00004463068810124D500F02EF8001B022888
:1010B000F7D9F0E601281AD0B068E26900F480019F
:1010C000914202BF00F03F01226A91420FD147F6E0
:1010D000C071626A0140914202BF00F44031A26ACD
:1010E000914202BF00F07060E16A884201D00120A5
:1010F00000E00020BDE8F2830038024000004742D3
:10110000800E47420070004001484068704700BFB1
:101110000000002038B504469E4D0022042100F056
:101120002DF80022082100F029F800F023F80A2009
:1011300000F04AF9002200F020F8BDE832400A2011
:1011400000F042B938B50446924D0122042100F066
:1011500015F80022082100F011F800F00BF801202A
:1011600000F032F9002200F008F8BDE83240022019
:1011700000F02AB988480460012202212846FFF7BE
:10118000D2BDF0B591B000F033F900F0BAF800F03C
:1011900015F900200090814C8148824D016841F092
:1011A00080010160026802F0800200920022009932
:1011B00000922021036843F001030360006800F0FF
:1011C00001000090009801910292039201A920462B
:1011D000FFF7C2FC102200210DA8FFF7B3FC082284
:1011E00000216846FFF7AEFC1C22002106A8FFF78D
:1011F000A9FC1022002102A8FFF7A4FC6A48A860FD
:1012000042F20F71E96000202861E621A86128629E
:10121000696105F10800FEF7C9FF4FF480500D9099
:101220000DA905F10800FFF790F905F10800FEF798
:10123000D4FF05F10800FEF7DDFF002100910191C8
:1012400005F10800694600F0EDF86021069149F6C5
:10125000404207920021089100220A9206A905F156
:101260000800FFF7FAF80A210291012200210392F7
:1012700004910591042202A905F10800FFF773F813
:1012800005F10800FFF7A3FB20212046FFF745FDED
:10129000012819BF454ED6E900674549D1E90067E5
:1012A0003046394600F029F83030A88039463046BB
:1012B00000F023F816461F46304639460A2200F051
:1012C0001DF830306880394630460A2200F016F8A2
:1012D00030322A80A888FFF735FF6888FFF732FF91
:1012E0002888FFF72FFF1020FFF714FF1020FFF7CB
:1012F00011FF1020FFF70EFFC6E76422002300F065
:10130000D7B880B592B03022002106A8FFF71AFCAA
:1013100000F054F8002000904FF480332548016815
:1013200041F0805101600021006800F08050009081
:10133000009821480091026842F440420260012274
:10134000006800F44040009006A80099069202212F
:101350004FF480020C910D920421A8220E910F925D
:1013600002210422079310911192FFF745FD0221FB
:101370000291002203920F204FF4A051019004919A
:101380004FF480520592052101A800F015F913B021
:1013900000BD000000180240140C02400000024092
:1013A00030380240100000200004004058000020A7
:1013B00060000020403802400070004014220021EC
:1013C00001A8FFF7BFBB000038B50446FFF79CFE3D
:1013D00014F1010F054602D0044801786418FFF7A4
:1013E00093FE401BA042FAD331BD00BF0000002095
:1013F00080B50B48016841F400710160026842F455
:1014000080620260016841F4807101600320FFF78F
:1014100044FB002000F090F9FFF798FA002002BD8D
:10142000003C024070B500F13C031A78012A01D15A
:10143000022070BD01221A7002245C7005686E687B
:10144000AC680A6826F0700616436E6002681148A0
:10145000824218BFB2F1804F11D00F4882421CBFA8
:101460000E4DAA420BD00E4882421CBF0D4DAA421F
:1014700005D00D4882421CBF0C4DAA4204D14868D9
:1014800024F08004044394600121597000201870F6
:1014900070BD000000000140000400400008004052
:1014A000000C0040000401400040014000180040D2
:1014B000D3BBD9B1B2F5803F5BD2022A1ED98C468C
:1014C000B1FBF2F102FB11C31B0443EA1043B3FB6F
:1014D000F2FC02FB1C3380B240EA0343B3FBF2F0A0
:1014E00002FB103240EA0C4000237047022A05D963
:1014F0008446B0FBF2F002FB10C270474AB105D13E
:1015000000F0010249085FEA300070470022002322
:10151000704700F031B90B00020000210020704735
:10152000F7D3002200237047904271EB030CF2D3F3
:1015300070B5B1FA81F4B3FA83F52C1BA340C4F162
:10154000200532FA05F63343A2405FF00046E6403C
:1015500002E05B085FEA3202841A71EB030524BFE4
:10156000204629467641F4D302000B0030000021CA
:1015700070BD70B5B1FA81F4B2FA82F5C4F12004FD
:101580006419B4F12006DAD3B2405FF00044F440AD
:10159000002502E052085FEA3303C61A71EB020E1F
:1015A00024BF3046714664416D41F3D302000B0005
:1015B0002000290070BD00002DE9F04104000F4615
:1015C00054D0404E306800F00F00B84202D200F014
:1015D00073F84BD120683C4D810712D5400703D5E5
:1015E000A96841F4E051A9602078010703D5A868F3
:1015F00040F46040A860A968A06821F0F0010143B0
:10160000A9602178C80729D56068012802D1296816
:101610008A0305E0022818BF032803D129688A013C
:1016200003D423E029688A0720D5A968890840EAFD
:101630008100A860FFF768FD8046A868616800F037
:101640000C00B0EB810F09D0FFF75EFDA0EB0800A6
:1016500041F289318842F0D303202BE0306800F05A
:101660000F00874204D200F027F801D0012021E0CA
:101670002078410705D5AA68E06822F4E0520243C9
:10168000AA602178080706D5A968206921F460417D
:1016900041EAC001A96000F01FF8AA680B490C4B91
:1016A000C2F30312895CC84018600A48006800F061
:1016B00043F80020BDE8F0813770316801F00F0178
:1016C000B9427047003C02400038024078180008D8
:1016D0000C0000200800002030B5144C606800F0B9
:1016E0000C00042802D0082802D01DE0104830BDAC
:1016F000226820680023410202F03F0204D52568D9
:101700000B49C5F3881003E020680A49C0F388102C
:10171000A1FB0001FFF7CCFE2168C1F30141491C88
:101720004900B0FBF1F030BD024830BD0438024042
:1017300000127A000024F40038B50D4D0D4B2A78C4
:1017400004464FF47A711868B1FBF2F2B0FBF2F084
:10175000FFF7D8F950B9102C08D2002221464FF0DB
:10176000FF30FFF7A7F9AC60002032BD012032BD89
:10177000000000200C000020704700007047FEE7CA
:10178000FEE7FEE7FEE770477047704700F05EB87F
:10179000F8B52A4D2A4C2846FEF741FDD4E9080148
:1017A000002908BF00280AD104212846FEF72AFF95
:1017B0000021C4E904010120C4E90801F1BD0122AE
:1017C0000023994208BF904236D104212846FEF7F3
:1017D00019FF0021C4E90601D4E90623D4E9040174
:1017E000994208D828BF904205D2101A63EB010134
:1017F000C4E90A0102E00020C4E90A00114D124ABE
:101800002E68D4E90A01B6FBF2F2FFF751FE3A2244
:10181000002306460F46FFF74BFEC4E90001942261
:10182000304639460023FFF743FEC4E90201002099
:10183000C4E90C67C4E90800F1BD000018000020ED
:10184000580000200C00002080841E0002484168DF
:1018500002788A1842607047000000200448054A58
:10186000016841F4700101604FF000601060704742
:1018700088ED00E008ED00E000000000000000003E
:10188000010203040607080910B507497944183115
:10189000064C7C44163404E00A68081D114488474D
:1018A0000146A142F8D110BD2C0000004C00000000
:1018B0004EF68851CEF20001086840F470000860CE
:1018C000BFF34F8FBFF36F8F4FF00070E1EE100A40
:1018D0007047000073F1FFFF80000000100000203F
:1018E00000000000E7F4FFFF1000000064000000AB
:1018F000000000200000000000F00DF8002801D0DA
:10190000FFF7C2FFAFF300800020AFF30080FFF7C6
:1019100038FC00F002F80120704700F001B8000028
:101920000746384600F002F8FBE7000080B5AFF349
:101930000080024A11001820ABBEFBE7260002001F
:1019400001488047014800475D18000861190008F8
:101950000100000000000000100000000024F4005E
:10196000AFF30080FFF7A4FFFFF7C6FFFFF7FEBF4E
:10197000FFF7FEBFFFF7FEBFFFF7FEBFFFF7FEBF9B
:10198000FFF7FEBFFFF7FEBFFFF7FEBFFFF7FEBF8B
:10199000FFF7FEBFFFF7FEBFFFF7FEBFFFF7FEBF7B
:1019A000FFF7FEBFFFF7FEBFFFF7FEBFFFF7FEBF6B
:1019B000FFF7FEBFFFF7FEBFFFF7FEBFFFF7FEBF5B
:1019C000FFF7FEBFFFF7FEBFFFF7FEBFFFF7FEBF4B
:1019D000FFF7FEBFFFF7FEBFFFF7FEBFFFF7FEBF3B
:1019E000FFF7FEBFFFF7FEBFFFF7FEBFFFF7FEBF2B
:1019F000FFF7FEBFFFF7FEBFFFF7FEBFFFF7FEBF1B
:101A0000FFF7FEBFFFF7FEBFFFF7FEBFFFF7FEBF0A
:101A1000FFF7FEBFFFF7FEBFFFF7FEBFFFF7FEBFFA
:101A2000FFF7FEBFFFF7FEBFFFF7FEBFFFF7FEBFEA
:101A3000FFF7FEBFFFF7FEBFFFF7FEBFFFF7FEBFDA
:101A4000FFF7FEBFFFF7FEBFFFF7FEBFFFF7FEBFCA
:101A5000FFF7FEBFFFF7FEBFFFF7FEBFFFF7FEBFBA
:101A6000FFF7FEBFFFF7FEBFFFF7FEBFFFF7FEBFAA
:101A7000FFF7FEBFFFF7FEBFFFF7FEBFFFF7FEBF9A
:101A8000FFF7FEBFFFF7FEBFFFF7FEBFFFF7FEBF8A
:101A9000FFF7FEBFFFF7FEBFFFF7FEBFFFF7FEBF7A
:101AA000FFF7FEBFFFF7FEBFFFF7FEBFFFF7FEBF6A
:101AB000FFF7FEBFFFF7FEBFFFF7FEBFFFF7FEBF5A
:101AC000FFF7FEBFFFF7FEBFFFF7FEBFFFF7FEBF4A
:040000050800196175
:00000001FF
