:020000040800F2
:1000000068040020C5300008D12E0008D32E000857
:10001000D52E0008D72E0008D92E000800000000B9
:10002000000000000000000000000000DB2E0008BF
:10003000DD2E000800000000DF2E0008E12E000881
:10004000E1300008E5300008E9300008ED30000834
:10005000F1300008F5300008F9300008FD300008E4
:100060000131000805310008093100080D31000890
:100070001131000815310008193100081D31000840
:100080002131000825310008E52E0008293100083B
:100090002D310008313100083531000839310008B0
:1000A0003D31000841310008453100084931000860
:1000B0004D31000851310008553100085931000810
:1000C0005D310008613100086531000869310008C0
:1000D0006D31000871310008753100087931000870
:1000E0007D31000881310008853100088931000820
:1000F0008D310008913100089531000899310008D0
:100100009D310008A1310008A5310008A93100087F
:10011000AD310008B1310008B5310008B93100082F
:10012000BD310008C1310008C5310008C9310008DF
:10013000CD310008D1310008D5310008D93100088F
:10014000DD310008E1310008E5310008E93100083F
:10015000ED310008F1310008F5310008F9310008EF
:10016000FD3100080132000805320008093200089C
:100170000D3200081132000815320008000000009E
:10018000193200081D32000821320008253200080B
:10019000293200082D3200083132000835320008BB
:1001A000393200083D320008413200082DE9F14F94
:1001B000B0B0924604910DF142013A9A12919946DB
:1001C0004A7000200AE01AF8011B0498309A904700
:1001D0000028049000F018810D98401C0D909AF8AA
:1001E000000050B12528EED100210022079108928D
:1001F00009910A920B910C9204E00D9800F04EBE0A
:1002000041F001011AF8010F2028F9D023280CD061
:100210002B2804D02D2805D0302809D00BE041F040
:100220000201EFE741F00401ECE741F00801E9E7E2
:1002300041F01001E6E72A280FD1D9F8002052F842
:10024000040BC9F8002000280F9003D540420F90FE
:1002500041F004010AF1010A14E00F92DFF8C03BFB
:100260000AE00F98984205DA00EB800402EB4402A2
:10027000303A0F920AF1010A9AF80020A2F13000F8
:100280000A28EED39AF800002E2803D04FF0FF3250
:100290000E9229E01AF8010F2A2809D1D9F8000096
:1002A00050F8042BC9F800000E920AF1010A1BE075
:1002B0002D280CBF0AF1010A002000220E92DFF85F
:1002C000604B0BE040B90E9AA24205DA02EB8205C0
:1002D00003EB4503303B0E930AF1010A9AF8003014
:1002E000A3F130020A2AEDD3ADF840100FF63430F6
:1002F0009AF8001000F0B2FF08B11AF8010B8DF85F
:1003000042009DF84200682805D19AF8000068284C
:100310000CD1622106E06C2804BF9AF800006C281A
:1003200004D171218DF842100AF1010A1DA806902E
:100330001AF801BBBBF125012DD01C3900F06181F9
:10034000091F022940F25D810E392AD0491F00F0B1
:100350009D84093900F05581891E00F03385491EBE
:1003600000F0DF84491E022940F24B81091F00F092
:10037000D884491F00F0BA80491E00F08784491EC6
:1003800065D0C91E21D0891E00F08084C91E00F0EE
:100390007D8400F036BD25238DF87430012107914E
:1003A0002AE06C208DF84200D9F8000050F8042BA8
:1003B000C9F80000002A43D11299487800283DD09E
:1003C0004FF0FF340FF6642012E09DF842006C28D5
:1003D000EAD0D9F8000050F8044BC9F800000594A1
:1003E000D4B91299487898B14FF0FF340FF65820DD
:1003F00000F040FF201A07D130981DAA02A900F092
:1004000050FD00287FF5EBAE4FF0FF3000F046BD09
:100410000FF650200590EFE70E9D002D04D52046E5
:1004200000F048FF044607E02A46204600F05EFF41
:10043000002814BF041B2C460894DDE70FF6282281
:10044000309802A900F0B3FD0028D5D5DCE7D9F833
:10045000001051F8040BC9F8001020F0000400212E
:1004600021F0FF351DABCDE902450593DDE90223FF
:1004700006993C2413B90AB90E9898B102F00F05F9
:100480003035641EEEB23A2EA8BF2735120942EA73
:1004900003721B090D5508BF002A03D005980D19DA
:1004A000A842EBD308190590C4F13C020E980892BB
:1004B000824209DABDF84010821A4FF6EF7001400F
:1004C0000A92ADF8401097E7002895D59DF84000B6
:1004D00000F0140010288FD10F9B07990A985B1A1F
:1004E0001B1A9A1A002A87DD0A9285E71299487822
:1004F00020B14FF0FF340FF6741079E79DF84200F9
:10050000622862D0682819D06A2840D06C2806D0AA
:1005100071284DD074282DD07A281ED064E0D9F8E7
:10052000001051F8040BC9F8001020B94FF0FF3447
:100530000FF650105CE70D9901605DE7D9F80010E7
:1005400051F8040BC9F8001020B94FF0FF340FF632
:1005500034104DE70D9901804EE7D9F8001051F89D
:10056000040BC9F800100028E5D14FF0FF340FF656
:1005700014103DE7D9F8001051F8040BC9F8001029
:100580000028D8D14FF0FF340FF6F80030E7D9F843
:10059000001051F8040BC9F8001020B94FF0FF34D7
:1005A0000FF6E00024E70D9AD317C0E9002323E7F4
:1005B000D9F8001051F8040BC9F800100028F2D146
:1005C0004FF0FF340FF6BC0012E7D9F8001051F8D5
:1005D000040BC9F8001020B94FF0FF340FF6A40047
:1005E00006E70D99017007E7D9F8001051F8040BE0
:1005F000C9F8001000289ED14FF0FF340FF6840098
:10060000F6E6D9F80020D21D22F00702C9F8002032
:10061000D2E900010832C9F80020CDE90201C80F73
:1006200002D007982D210AE0BDF84000810702D5CD
:1006300007982B2103E0C00705D5079820211DAAA4
:100640001154401C07901DA807994BF02002431835
:10065000DDE90201CDE92C01612A059313AC0BD031
:100660000E98002802D506200E9005E001BF4BF041
:100670002000672801210E91DDE9020148004015A4
:10068000401C0A4611D109030FD0ABF161050320CC
:100690001A2D089002D20FF6783101E00FF674316E
:1006A0000322184600F04EFEA6E650B9120308D108
:1006B000ABF1610503201A2D089016D30FF65C31BB
:1006C000EEE7DDE90201CDE92E01DDE92E2323F07D
:1006D0000047B7F5801F22F000060DD20022002F40
:1006E00008BF002E009203D116E00FF62C31D7E799
:1006F0006A4600F07BFE0FE0DFF8C40ADFF8C41A98
:1007000000EB17500090DDE92E234FF0FF30194029
:10071000DFF8B47A10403943CDE902014BF02000F4
:1007200061280DD1059830210170821CBBF1610F49
:1007300005920CBF7821582141700798801C0790C2
:10074000DDE9020120F0000231F0004308BF002A79
:1007500002D10026002563E14BF02008B8F1610FBB
:1007600040F0B4800E98002847BF21210191401C21
:100770000190019FDDE92C017F1C00220023DDE9AF
:10078000024500F06BFE00998DF84C2038BF85F0D3
:100790000045091F002F00910DF14D0653DD204645
:1007A00029460022002300F071FE4CD24800400D83
:1007B00000F11C0312D0002B10DD40F2FF708342C9
:1007C00006DBDFF8081A05F000421143002011E0B3
:1007D0006FF31E5141EA035120460BE024F0000064
:1007E00035F0004108BF00280FBF29461C222946CA
:1007F00000F064FE04460D4600F0FEFEFF1F002FD1
:10080000804609DD00F016FF02460B4620462946C9
:1008100000F022FF04460D46F01D0721B8F1000F3D
:100820000CDD491E5EBF08F00F0200F8012D4FEAF3
:100830002818F3D502E0002200F8012D491EFAD550
:10084000C61D002FABDC0DF14D00361A0198864213
:10085000D8BF304600280DF14D0430D4B04206DA3E
:100860000DF14D010A5C082AA8BF0F2100DA002112
:10087000024613AB134400E0401E13F80159521E08
:100880008D42F9D00F2904D10DF14D018B5C5B1C19
:100890008B54002A04D50099091D13AC401C00910B
:1008A000411E0CD46218ABF13A0613783033DDB236
:1008B0003A2DA8BFF318491E02F80139F5D50E9953
:1008C000002940F1AB80421E0E92A7E00099DFF8AC
:1008D000002947F29750414391FBF2F2DDE92C45A4
:1008E000009225F00045D2F1070204DD204629469A
:1008F00000F042FC0BE052420020DFF8D81800F074
:100900003BFC02460B462046294600F017FF0446F2
:10091000B8F1660F0E9806BF009F0A3706273F18EA
:10092000142FC8BF142730200D468DF84C000DF150
:100930004D06002F34DD2046294601F023F80146FC
:100940000A4606F1080304200A26B2FBF6F606EB77
:10095000860EA2EB4E02303203F8012C0A22B6FBBF
:10096000F2F202EB820EA6EB4E063036401E03F882
:10097000026DE9D1083F002F03F10806D9DD0846D2
:1009800001F014F802460B462046294600F064FEAA
:100990000022DFF8443801F017F804460D46CAE794
:1009A0000DF14D00361A0DF14D0404E00098401E83
:1009B000761E0090641C20783028F7D0B8F1660FBE
:1009C00002D10099491C04E0B8F1650F0CBF012168
:1009D00000210E9808188642B8BF701E00281DD44A
:1009E000B04204DA215C3429C8BF392100DC30214F
:1009F0000246631E9D1800E0401E15F80169521E54
:100A00008E42F9D0392902D1A15C491CA154002A97
:100A100004D50099491C1C46401C00910646009DC7
:100A20000E9F30B2002802DC01260FF2F4744BF066
:100A30002000662808BF6D1C15D067280FFA85F8BE
:100A400041D118F1040F44DBB84542DA9DF840006B
:100A50006D1C010703D430B2B842B8BF074628B2B4
:100A60003F1A48BF00270FFA85F8B8F1000F00F3CE
:100A7000AF800898411C0891302205990A54002F34
:100A800003DC9DF84000010705D50898411C08913A
:100A90002E2205990A5417EB080FB8BF7D4228B2E1
:100AA000C51932B2414295420B91B8BF2E46059B03
:100AB000089836B2099632462146184400F042FCA6
:100AC000AD1B0C95CCE0BBF1610F15D14FF0700B55
:100AD00017E030B2B84204DA9DF840100A0758BF58
:100AE00007467F1E48BF0027BBF1670F14BF4FF0BA
:100AF000450B4FF0650B04E0BBF1410F08BF4FF011
:100B0000500B0898411C0891002F059914F8012BEF
:100B10000A5403DC9DF84000010719D50898411CD0
:100B200008912E2205990A54002F11DD761E30B24D
:100B300087420598089BB8BF3E4632B2214618440A
:100B400000F000FC089836B23018BF1B08900B97D5
:100B5000059808990844B8F1000F80F800B003D454
:100B60002B224270821C04E02D2145464170821CDC
:100B70006D4200212CAB28460AE004460A2094FB73
:100B8000F0F000EB8005A4EB450403F8014B491C91
:100B900000B20028F1DC012906DC4BF020006528BA
:100BA00004BF302002F8010B00292CAB08D1302003
:100BB00002F8010B06E0491E585C303002F8010BC8
:100BC0000029F8DC059908980844121A099247E0B0
:100BD00030B229B288421BDA0598089B32B221460E
:100BE000184400F0AFFB089936B27118A8EB06065E
:100BF000002F08910B9603DC9DF84000020705D5F5
:100C0000059A2E2050540999491C09910C9727E008
:100C10000598089B2AB22146184400F093FB0898D7
:100C2000761B4044002F089003DC9DF840100A0713
:100C300004D5411C08912E2205990A5430B28742EE
:100C40000598089BB8BF3E4632B204EB0801184431
:100C500000F078FB089836B23018BE1B08900B964F
:100C60009DF8400000F0140010287FF4C5AB079AEF
:100C700008990B988A18099982180C988A18821872
:100C80000F988242BFF6B8AB821A2DE49DF842005D
:100C9000622808D068280ED06A2814D06C281FD08B
:100CA000712810D01CE0D9F8001051F8040BC9F8D5
:100CB0000010C0B21AE0D9F8001051F8040BC9F8BE
:100CC000001080B212E0D9F80020D21D22F00702F5
:100CD000C9F80020D2E900010832C9F8002006E076
:100CE000D9F8001051F8040BC9F800100021CDE923
:100CF00002019DF8400001075AD5DDE90223002BCF
:100D000008BF002A54D04BF02000782850D1079813
:100D10001DA930220A54401C431C079301F800B05F
:100D200046E09DF84200622808D068280ED06A2864
:100D300014D06C281FD0712810D01CE0D9F80010F6
:100D400051F8040BC9F8001040B21AE0D9F80010AD
:100D500051F8040BC9F8001000B212E0D9F80020D5
:100D6000D21D22F00702C9F80020D2E900010832A2
:100D7000C9F8002006E0D9F8001051F8040BC9F8B2
:100D80000010C117CDE90201002902D507982D21D5
:100D90000AE0BDF84000810702D507982B2103E047
:100DA000C00705D5079820211DAA1154401C0790A3
:100DB0001DA807990144059102A8594600F057F96A
:100DC000FFF71ABB9DF842006C280BD00121079158
:100DD000D9F8000050F8041BC9F800008DF8741011
:100DE000FFF70ABBD9F8000050F8041BC9F800004F
:100DF00013914FF0FF320E920021149113AAFFF7C6
:100E00001FBB25210122BBF1000F8DF87410079242
:100E10003FF4F2AA8DF875B00221FFF7C0BA0000C6
:100E2000CBCCCC0C686A6C747A4C00007072696E22
:100E300074665F733A2062616420256C732061726E
:100E400067756D656E7400007072696E74665F73AD
:100E50003A2062616420257320617267756D656E4A
:100E60007400000000000000000000007072696E55
:100E700074665F733A20256E20646973616C6C6FD1
:100E8000776564007072696E74663A2062616420EE
:100E9000256E20617267756D656E740031B0BDE8B6
:100EA000F08F2DE9FC410F46064690467A6B786933
:100EB000396ABC6A121AB869521A796A121AF86940
:100EC000521A121A97F83800141B41070FD4202029
:100ED000002C8DF800000ADD254601236A463946BC
:100EE000304600F07DF900285DD16D1EF5D17B699B
:100EF00042463946304600F073F9002853D130207D
:100F00008DF800003D6A002D09DD01236A4639464F
:100F1000304600F065F9002845D16D1EF5D1BB695A
:100F2000FA683946304600F05BF900283BD13020A2
:100F30008DF800007D6A002D08DD01236A463946E0
:100F4000304600F04DF970BB6D1EF6D1F868B969F6
:100F5000FB6942183946304600F042F918BB302090
:100F60008DF80000BD6A002D08DD01236A46394670
:100F7000304600F035F9B0B96D1EF6D197F838005B
:100F800041070DD52020002C8DF8000008DD01233D
:100F90006A463946304600F023F920B9641EF6D17E
:100FA0000020BDE8F6814FF0FF30BDE8F6812DE965
:100FB000F8470D46A3B02F6B002F8246904648BFDE
:100FC0006FF0004700F0D1FD696B401801AA0021C5
:100FD000C2E90011812828BF4FF0FF3044D2894672
:100FE0001EE0A74230DB6869201881280BD300215E
:100FF000696303AA29465046FFF753FF5FEA0009D9
:1010000022D40020686103AB6E69224669469819B4
:1010100000F098F9A6196E6158F8040BA0B13F1BB7
:10102000002F11DDD8F8001001AA684600F0A2FDDB
:101030000446002C05D4D8F800000028D1D1641E45
:10104000CFD54FF0FF390EE0B9F1000F504604D173
:1010500003AA2946FFF725FF8146B9F1000F02D107
:10106000002068616863484624B0BDE8F0872DE938
:10107000FC4307466F293E6908BF082405D041F0AC
:101080002000782814BF0A2410243C25D7E9002327
:10109000642918BF69299046994605D1002B03D5CC
:1010A000D8F1000869EB4909B9F1000F08BFB8F1A0
:1010B000000F0CD1386B50B9082C39D197F8380093
:1010C000010735D530203B2586F83B0030E08DF810
:1010D0000010404649462246E31700F04DFD3032ED
:1010E000D0B26D1E3A28019504DB9DF80000A0F1F6
:1010F00051018A187255404649462246E31700F0CE
:101100003BFD80465FEA010908BFB8F1000F03D03C
:10111000F86871198842DCD3082C09D197F8380097
:10112000010705D5705D302802D06D1E3020705546
:10113000C5F13C02BA617119F960386B824208DA74
:10114000821A3A624FF6EF70398F01403987BDE855
:10115000F38300280ED597F8380000F0140010280B
:1011600008D17B6B7969386A5B1A1B1A9A1A002AB4
:10117000C8BF3A62BDE8F3832DE9D04306460F4667
:1011800014464FF00008DFF8549012E0E00707D54E
:1011900042464B463046394600F016FC06460F469E
:1011A0004046494642464B4600F00EFC64108046DD
:1011B0008946002CEAD130463946BDE8D08300008C
:1011C00002FCFFFFFFFF0F800000E03F0000F07F08
:1011D000A08601000000F03F84D797410000244022
:1011E000F8B505460E4617461C4600205CB117F8B8
:1011F000011BB068A847B06030B1F06A401CF062D3
:101200000020641EF3D1F2BD4FF0FF30F2BD0000AC
:101210006E616E004E414E00696E6600494E46009A
:10122000300030B4002513E050F8042BD30744BF3E
:10123000A9F101039A18091F042942F8045BFAD2A4
:1012400013468C0744BF15809B1CC90748BF1D70FF
:1012500050F8041B0029E7D130BC7047C9B20278AE
:101260008A421AB11CBF10F8012FF9E718BF0020FD
:101270007047000080B500B906A005490B681BB196
:1012800022220021984701E000F0F9FC222002BD53
:1012900064000020636F6E73747261696E742068FD
:1012A000616E646C65723A20626164206D6573736F
:1012B0006167650000F10103810704D010F8011B8C
:1012C000820781B1FAD10268A2F10131914311F094
:1012D000803104BF50F8042FF6E709BAB1FA81F162
:1012E00000EBD100401CC01A70470000C9B2830750
:1012F00006D0521E22D310F8013B9942F7D11FE0CD
:10130000083A13D302F1040241EA012141EA014102
:1013100050F8043B121F21BF4B40A3F1013C2CEAC3
:10132000030C1CF0803FF3D0C9B2001F083210F844
:10133000013B521E28BF91EA030FF8D818BF0120C5
:10134000401E704762B38B0708D0521E11F8013B54
:1013500000F8013B00F024808B07F6D1830740F0B2
:10136000208000BF103A07D330B4B1E83810103AEB
:10137000A0E83810F9D230BC530724BFB1E80810F8
:10138000A0E8081044BF51F8043B40F8043BD207E2
:1013900024BF31F8022B20F8022B44BF0B780370D6
:1013A0007047121F17D35B0009D151F8043B20F896
:1013B000023B1B0C121F20F8023BF6D20BE051F847
:1013C000043B00F8013B1B0A20F8023B1B0C121FD8
:1013D00000F8013BF3D238BF121D521E24BF11F892
:1013E000013B00F8013BF8D87047000010B51446E7
:1013F00000F002F8226010BDC1F30A5343B14A0065
:1014000012F5001F28D2A3F2FE32A1EB0251704761
:1014100050EA410C20D001F0004C31EA0C01B1FA45
:1014200081F204BFB0FA80F3D2180B3AB2F1200374
:101430002CBF00FA03F1914041EA0C013EBFC2F11A
:10144000200C20FA0CF319439040524240F2FD3335
:10145000D21A01EB03517047002270474FF4001C71
:101460001CEB410F94BF1CEB430F09E041EA030C56
:1014700050EA4C0C52EA0C0C03D2994208BF90423D
:10148000704714BF8B428242704700004FF4001C2B
:101490001CEB410F94BF1CEB430F09E041EA030C26
:1014A00050EA4C0C52EA0C0C03D28B4208BF824229
:1014B000704714BF9942904270470000124254D4C2
:1014C00040F2FF7C1CEA11530FD0634531D09B18CA
:1014D00063453CBF01EB0251704701F0004141EA16
:1014E0000C510020AFF30080704750EA410320D038
:1014F00001F0004C91EA0C011CD0B1FA81F30B3BD6
:101500009A420DD9D21A994051EA0C01C3F1200C2C
:1015100020FA0CFC61449840531C40F2FF7CD7E752
:10152000914041EA0C01C2F1200C20FA0CF319435E
:1015300090407047B0FA80F31533202BE0D3202A77
:10154000EED3203A203B9A4209D9D21A00FA03F18D
:1015500041EA0C010020531C40F2FF7CB8E700FA7E
:1015600002F141EA0C0100207047524240F2FF7C38
:101570001CEA11530DD06345DBD0B2EB030C3CBF2A
:10158000A1EB025170470CF1010221EA035141F431
:10159000801150EA410CCCD001F0004C352A27DCF8
:1015A00030B481EA0C01B2F1200309DAC2F1200360
:1015B000044601FA03F5D0402843D1409C400CE09A
:1015C000C3F12002450020FA03F418BF44F00104DF
:1015D00021FA03F091400C43002174F1004550F1D1
:1015E000000051EB0C01244230BC7FF47BAF70470C
:1015F0006146002076E70000C1F30A5340F2FE3254
:101600009B1A14DDD3F120034FEAE17208DDC90211
:1016100041EA505141F00040D84080185040704796
:1016200003F2E13010B1D24382F000407047002055
:1016300070470000C11768B14840401AB0FA80F204
:101640009040D21CC907C2F5846241EA025202EB03
:10165000D02140057047000070B44FF0004591EA7A
:10166000030F40F10F836B40841A71EB030603D222
:10167000001BB141121973414FF4001C1CEB410FC8
:1016800034BF7CEB430442E00C0DA4EB1356352E23
:101690004FDC45EAC323DB0A45EAC121C912B6F192
:1016A00020050DDD63FA05F6EB4086EA03051242DC
:1016B00018BF45F00105C01851F100010CD213E02C
:1016C00062FA06F5F2405540F3415A40B340F34008
:1016D0005A408018594107D349085FEA30005FEA51
:1016E000350528BF45F0010501F58011420875F167
:1016F000004250F1000041EB04514E0016F5001F6E
:1017000070BC38BF70470020090D090570471CEBFD
:10171000410F10D252EA43060BD0BCEB410F05D863
:101720000C0DAB43661E342EB6DD02E0AB438018D1
:10173000594170BC704770BC70470000F0B540F272
:10174000FF7581EA030C0CF0004C15EA11541DBF23
:1017500015EA1357AC42AF42E5E0BC41C1F31301B7
:10176000C3F31303801A994143F4801304D2641E17
:101770004000494180185941C90241EA5051B1FB2A
:10178000F3F603FB1611A2FB0675D7EBC020A941A7
:1017900002D2761E80185941C90241EA5051B1FB6C
:1017A000F3FE03FB1E11A2FB0E75D7EBC020A9416F
:1017B00003D2AEF1010E80185941890241EA9051DD
:1017C000760546EA8E2EB1FBF3F603FB1611A2FB5B
:1017D0000675D7EB8020A94102D2761E80185941A8
:1017E000C90241EA50514EEA060EB1FBF3F603FB83
:1017F0001611A2FB0675D7EBC020A94102D2761EB6
:1018000080185941C90241EA5051B1FBF3F703FB7B
:101810001711A2FB0735D3EBC020A94167F10007E0
:101820000CBF004247F0010766F3D5274FEA1E318F
:10183000B80814F5806412DDBD0775F1004250EB65
:101840000E5051EB045111F5801F5CBF41EA0C01B1
:10185000F0BD4CF07F6141F0E0410020F0BDBD07DC
:101860006D0840EA0E5041F48011D4F10104B4F146
:1018700020060ADAC4F120060200E04001FA06F36D
:10188000E1401843B24015430EE0342C13DCC6F19E
:10189000200445EA40056D0820FA06F2154321FAB6
:1018A00006F0A1400D43002175F1004250F1000007
:1018B00051EB0C01F0BD00205FEA0C01F0BDCFB987
:1018C00092185B41B3FA83F704BFB2FA82F6BF19EC
:1018D0000B3FB7F120062FBF02FA06F3BB40C7F15A
:1018E000200622FA06F638BF3343BA401CB1E41989
:1018F000641E33E77F4231F00041B1FA81F404BF46
:10190000B0FA80F6A4190B3CB4F120062FBF00FA00
:1019100006F1A140C4F1200620FA06F638BF314393
:10192000A0403C1B1AE7AC421ABF05EA1357AF426E
:1019300012E050EA41061CBF52EA4306BFE750EAF4
:101940004107304661461CBF41EA0551F0BD52EAED
:10195000430C08BFC143F0BD00204FF4001616EB46
:10196000410F98BF16EB430F08BF16EB410F24BF82
:10197000C14305E016EB430F0CBF61464CEA05512D
:10198000F0BD0000400D491840EA81200CD2490DFD
:10199000A1F58061491C40F0004005DBD1F11F0139
:1019A00054BFC840C017704700207047014648B177
:1019B000B0FA80F18840C91CC1F58461090501EBCA
:1019C000D021400570470000B0B581EA030C0CF04F
:1019D000004C40F2FF7515EA11541DBF15EA13576C
:1019E000AC42AF4239E0E41923EA455343F4801393
:1019F000C90241F0004141EA505EC7021100A7FB55
:101A0000020200284FF00000EEFB01204FF0000121
:101A1000E3FB072118BF42F00102401800214941B1
:101A2000E3FB0E01A4F580640F0302D25200404193
:101A3000494154F101046CDD470872F1004250F154
:101A4000000051EB0451A1F580115CBF41EA0C018B
:101A5000B0BD4CEA05510020B0BD05EA1357AC42B9
:101A600014BFAF4241E050EA410E1CBF52EA430EA0
:101A700002E061460020B0BD24423C441BD15FEA35
:101A8000070EF6D0090302BF01460020AEF1140E86
:101A9000B1FA81F7AEEB070401FA07FE0C37C7F184
:101AA000200100FA07F7C8404EEA000E23EA45532A
:101AB00043F48013A2E733F00043B3FA83F704BF83
:101AC000B2FA82FE77440B3FE41BB7F1200E2FBF22
:101AD00002FA0EF3BB40C7F1200E22FA0EFE38BF09
:101AE00043EA0E03BA40641C82E750EA410E14BF79
:101AF00052EA430E6FF000014FF4001717EB430F4B
:101B00008ABF194617EB410FB5E74CEA0551002093
:101B1000B0BDD4F10104B4F120070FDAC4F12007FD
:101B2000520828BF42F0010210FA07F501FA07F740
:101B3000E1BF2A43E0403843E1400FE0352C98DC18
:101B4000C7F1200452EA400220FA07F218BF42F01F
:101B5000010231FA07F0A1400A43002172F100426C
:101B600050F1000051EB0C01B0BD012070470000A6
:101B700000F03DB90023FBE7D3BBD9B1B2F5803FFC
:101B80005BD2022A1ED98C46B1FBF2F102FB11C3D3
:101B90001B0443EA1043B3FBF2FC02FB1C3380B28C
:101BA00040EA0343B3FBF2F002FB103240EA0C4080
:101BB00000237047022A05D98446B0FBF2F002FBED
:101BC00010C270474AB105D100F0010249085FEA2E
:101BD0003000704700220023704700F011B90B005D
:101BE0000200002100207047F7D300220023704735
:101BF000904271EB030CF2D370B5B1FA81F4B3FAF1
:101C000083F52C1BA340C4F1200532FA05F63343BB
:101C1000A2405FF00046E64002E05B085FEA320265
:101C2000841A71EB030524BF204629467641F4D37C
:101C300002000B003000002170BD70B5B1FA81F4D4
:101C4000B2FA82F5C4F120046419B4F12006DAD3A3
:101C5000B2405FF00044F440002502E052085FEA21
:101C60003303C61A71EB020E24BF3046714664413D
:101C70006D41F3D302000B002000290070BD01204C
:101C800000F0C0B8841A71EB030604D26E40001B4A
:101C9000B141121973414FF4001C1CEB410F34BFCA
:101CA0007CEB430683E00C0DA4EB1356362E00F3B9
:101CB0007C80012E45EAC32341DC43EA525312BF24
:101CC000D20292025B08240545EAC12141EA505143
:101CD000D2EBC020994125D407D1B0FA80F610FA92
:101CE00006F162D00020203608E0B1FA81F6B1405A
:101CF000C6F1200220FA02F21143B0404FEAF47418
:101D0000B4EB465434F001064FEA74040AD8D6F511
:101D10000016760D04F00044F04061FA06F25040DF
:101D2000F1404840C00A40EA415021F0004128BF3C
:101D30005FEA500550F1000044EBD12135E0DB0AA9
:101D400045EAC121C90AB6F120050EDD42EA024288
:101D5000120CC5F1200603FA06F6EB4042EA06052E
:101D60006D42984161F100010DE062FA06F5F24022
:101D7000554063FA06FC82EA0C02F3405A406D4279
:101D8000904161EB030111F4801F05D1641E6205CF
:101D900002D06D004041494121F48011430875F1A2
:101DA000004350F1000041EB045170BC70471CEB44
:101DB000410F15D223F0004352EA43060BD04FEAFD
:101DC0004C0CBCEB410F04D80C0D661E342EB7DD55
:101DD000EBE7801A994150EA410608BF0021E4E789
:101DE00008BF1CEB430F28BF6FF00001DDE7B1F522
:101DF000807F02D34FF0FF307047017001207047A1
:101E00007047000080B500F007F8024A1100182062
:101E1000ABBEFBE72600020010B500F013F802008D
:101E200000230024E4431068A04203D011000220E4
:101E3000ABBE13605068A04203D0111D0220ABBEA0
:101E4000536010BD004870471000002070B5044674
:101E500000250CB9012070BD04F13006306920B9AD
:101E6000204600F0AFFA756135733069C10600F1A4
:101E700092803069DFF8F01420F4885040F00200BE
:101E80003061086820F4403008600A6860680243E6
:101E90000A602068416821F48071416020684168CF
:101EA000226941EA022141602068416821F04071C5
:101EB000416021684A68A06802434A6020688168DE
:101EC00021F40061816021688A68E06802438A60C9
:101ED0002068A16ADFF894249142816821F0706142
:101EE00081600CD021688A68A06A02438A6000F091
:101EF0005BF821688A68E06A02438A6001E000F0CA
:101F000053F82068816821F0020100F049F8227E30
:101F100041EA4201816094F8200021680028486865
:101F20000FD040F4006048602068416821F46041AF
:101F3000416020684168626A521E41EA4231416054
:101F400002E020F4006048602068C16A21F470015A
:101F5000C1622068C16AE269521E41EA0251C1624F
:101F60002068816821F4007100F01AF8327841EAA3
:101F7000422100F015F821F4806100F011F8626947
:101F800041EA822181607561316921F0020141F0ED
:101F90000101316100E0012500203073284670BD49
:101FA00081602068816870472068816821F0405115
:101FB0008160704738B500F065F801D1022032BD6C
:101FC00000F074F837D500F045F846BF906820F06F
:101FD0000600002000F036F80868DFF88C2343681C
:101FE00043F0806343F02003436000F058F818D1B9
:101FF00088420FD0DFF87813884204D1126812F0BB
:102000001F0F18D106E0DFF86C13884213D100F0DF
:1020100014F810D2816811F0405F0CD100F03AF84A
:1020200009E0884202BFDFF85003016811F0405F09
:1020300001D100F022F8002032BD126802F01F0228
:10204000102A70479060002313706FF022000A6816
:10205000106070475568DFF82403054045F480752B
:1020600055605868430505D5506820F4005040F489
:10207000805050605068C3047047016841F080414F
:10208000016070470146002001F13C020090137886
:10209000012B7047816841F080418160704708687A
:1020A0001368DFF8DC1213F01F0F70470120107067
:1020B00008688368DC0714D48368DFF8C84243F0FB
:1020C00001038360DFF8C0020368B3FBF4F404EBA0
:1020D0004404009402E00098401E009000980028FC
:1020E000F9D10B689868C407704738B50446206872
:1020F000016802468907506829D5800627D5216CDA
:10210000C80603D4216C41F400712164916811F078
:10211000405F04BF207E002812D1D06A10F4700FF7
:1021200002D0916848050BD4506820F02000506020
:10213000206C20F480702064206CC10400F066F8EC
:10214000204600F07DF921686FF0120008602268D7
:1021500011685068490730D500062ED5216CC80695
:1021600003D4216C41F400512164916811F4401FA3
:102170001CD1916B11F4401F02D09168480515D411
:102180005068410512D4916811F0405F04BF207E71
:1021900000280BD1506820F080005060206C20F4A3
:1021A00080502064206CC10500F030F8204600F01B
:1021B00049F921686FF00C000860206802684168E6
:1021C000D2070FD549060DD50068C1070AD5206C86
:1021D00040F480302064204600F035F921686FF02B
:1021E0000100086020680268416892060DD5490127
:1021F0000BD5626C42F0020262646FF0200505604C
:10220000204600F021F92068056031BD03D4206C20
:1022100040F00100206470470068C06C704778B5DA
:1022200002460020009092F83C30012B01D10220A0
:1022300072BD012082F83C0007240B6810680A2B4D
:1022400012D30A3BC56803EB43039C4025EA040410
:10225000C460C3680D688C68A5F10A0606EB4606E3
:10226000B4402343C3600FE0056903EB430304FA62
:1022700003F325EA0303036103690D688C6805EB2A
:102280004505AC40234303611F244B68072B0CD248
:102290005B1E456B00F059F84463436B4D680C8836
:1022A0006E1E00F04DF843631BE00D2B0CD2DB1FBC
:1022B000056B00F04AF80463036B4D680C88EE1F51
:1022C00000F03EF803630CE00D3BC56A00F03DF8FA
:1022D000C462C36A4D680C88A5F10D0600F030F8A1
:1022E000C362274B984226D10C681F48122C07D195
:1022F000036823F400030360046844F4800404606A
:102300000B68224CA34218BF112B14D1036823F48D
:1023100080030360056845F4000505600868A04275
:1023200009D11949174C0B68B3FBF4F40A20444354
:10233000009400F010F8002182F83C10002072BDDB
:1023400006EB8606B4402343704703EB83039C40AF
:1023500025EA0404704702E00098401E00900098AF
:102360000028F9D170470000042301400100000F4C
:10237000002101400022014008200140FEF9FFFF3A
:102380000020014040420F000C000020120000100D
:1023900081B00020009000222548416841F480412E
:1023A0004160416801F48041009100990092036806
:1023B00043F080530360006800F080500090009864
:1023C00001B0704710B586B004461422002101A860
:1023D00000F03BF821681748814227D100221648B7
:1023E0000092416941F480714161416901F4807159
:1023F0000091009900920221036843F002030360F8
:102400000322006800F00200009000980B48019140
:1024100002920021039101A900F022F8002200217C
:10242000122000F033F9122000F04DF906B010BD73
:102430004038024000200140303802400004024091
:102440007047000070477047704710B5044610464B
:102450000A460146204600F061F9204610BD000002
:102460002DE9F84F0D4600266E496F4A0F230446AA
:1024700001202F68B04000EA0708804540F0CB807B
:102480004FEA460C032707FA0CF76FEA070E6F684E
:10249000012F18BF022F03D0112F18BF122F12D1F6
:1024A000A768D5F80C900EEA070709FA0CF949EA73
:1024B0000707A760676827EA00006F68C7F300177F
:1024C000B74038436060E068AF680EEA000007FA82
:1024D0000CF73843E060B0006F68022F18BF122F6E
:1024E00012D1F70804EB870700F01C09D7F820A0E9
:1024F00003FA09FB2AEA0B0AD5F810B00BFA09F91E
:1025000049EA0A09C7F8209027680EEA070E2F79D2
:1025100007F0030707FA0CF747EA0E0727606F6812
:10252000FF0078D5002700974FEA960C176847F40C
:102530008047176000F00C00176807F48047009789
:1025400003FA00FE009F394F57F82C7027EA0E0E51
:10255000374FBC4208BF00272CD0364FBC4208BFC3
:10256000012727D0344FBC4208BF022722D0334F67
:10257000BC4208BF03271DD0314FBC4208BF04270F
:1025800018D0304FBC4208BF052713D02E4FBC4295
:1025900008BF06270ED02D4FBC4208BF072709D021
:1025A0002B4FBC4208BF082704D02A4FBC420CBFA7
:1025B00009270A2707FA00F01C4F40EA0E0047F8E7
:1025C0002C006FEA08000F6800EA070C6F68FF0331
:1025D00048BF48EA0C0CC1F800C04F6800EA070C7D
:1025E0006F68BF0348BF48EA0C0CC1F804C08F688D
:1025F00000EA070C6F68FF0248BF48EA0C0CC1F8FC
:1026000008C0CF6800EA070C6868800248BF48EA43
:102610000C0CC1F80CC0761C0F2E7FF629AFBDE85C
:10262000F18F0000003C014044380240083801406E
:10263000000002400004024000080240000C02407A
:10264000001002400014024000180240001C02402A
:1026500000200240002402400901020002D429485F
:1026600081547047284B02F00F021A4402F8041CF0
:102670007047264B19684FF6FF020002114000F424
:10268000E0600843224908431860704770B51F4B4B
:102690001C68C4F302230124C3F10705052D2EBFD6
:1026A0000F2504FA05F56D1E1E1D072E34BF0023ED
:1026B000DB1E2940994004FA03F3BDE870405B1E1D
:1026C0001A401143C8E7010007D4012200F01F019E
:1026D000104B8A40400943F82020704710B5401E37
:1026E000B0F1807F01D3012010BD0B4C60600F2141
:1026F0004FF0FF30FFF7B0FF0021A16007202060FE
:10270000002010BD00E400E018ED00E00CED00E05A
:102710000000FA0500E100E010E000E062F30F22A3
:1027200062F31F42401810F0030308D0C91A1FD3E8
:10273000DB0748BF00F8012D28BF20F8022D130049
:1027400030B414461546103928BF20E93C00FAD8A9
:10275000490728BF20E90C0048BF40F8042D890034
:1027600028BF20F8022D48BF00F8012D30BC70476B
:10277000C91818BF00F8012DCB0728BF00F8012D9C
:10278000704700002DE9F843040016D02078DFF8E8
:10279000F462C10713D5B06800F00C00042807D01C
:1027A000B06800F00C0008283DD1706841023AD5AD
:1027B0003068810303D56068002800F05E812078CE
:1027C000B14F810719D5B06810F00C0F07D0B06871
:1027D00000F00C0008285BD17068410258D43068C2
:1027E000810703D5E068012840F0478131682069FE
:1027F00021F0F80141EAC00131602178080779D55C
:102800006069A249002868D001220A6000F042F9FC
:102810000546706F81076DD400F03CF9401B02281B
:10282000F7D903202CE16068B0F5803F04D130680F
:1028300040F48030306011E0B0F5A02F306806D150
:1028400040F480203060316841F4803105E020F4AC
:1028500080303060316821F480213160606858B187
:1028600000F018F9054630688103A8D400F012F989
:10287000401B6528F7D3D4E700F00CF90546306813
:1028800081039CD500F006F9401B6528F7D3C8E703
:10289000E068A8B10121396000F0FCF80546306815
:1028A000810705D400F0F6F8401B0228F7D9B8E7F5
:1028B0003068216920F0F80040EAC10030609CE7F0
:1028C000386000F0E7F805463168880795D500F0D4
:1028D000E1F8401B0228F7D9A3E7086000F0DAF816
:1028E0000546706F810705D500F0D4F8401B02281B
:1028F000F7D996E7207841075FD5306C0025C100F5
:102900000AD400950125316C41F080513164306C5E
:1029100000F0805000900098DFF87481D8F8000033
:10292000C10513D4D8F8000040F48070C8F8000046
:1029300000F0B0F88146D8F80000C10506D400F0D8
:10294000A9F8A0EB09000228F5D96AE7A0680128D8
:1029500005D00528306F06D140F004003067306F95
:1029600040F0010005E0400840003067306F20F083
:102970000400306741F28938A06860B100F08AF83D
:102980008146306F810713D400F084F8A0EB090072
:102990004045F6D345E700F07DF88146306F81076A
:1029A00006D500F077F8A0EB09004045F6D338E7EC
:1029B0001DB1306C20F080503064A06900285ED0DA
:1029C000B16801F00C0108293AD002282AD1002070
:1029D000386600F05FF805463068810105D500F0E3
:1029E00059F8401B0228F7D91BE7E069216A626A9F
:1029F0000843A16A490840EA8210491E40EA0140A2
:102A0000E16A40EA016070600120386600F042F837
:102A100004463068810132D400F03CF8001B0228E3
:102A2000F7D9FEE60020386600F034F80446306836
:102A3000810124D500F02EF8001B0228F7D9F0E61A
:102A400001281AD0B068E26900F48001914202BF07
:102A500000F03F01226A91420FD147F6C071626ACD
:102A60000140914202BF00F44031A26A914202BF8C
:102A700000F07060E16A884201D0012000E000208F
:102A8000BDE8F2830038024000004742800E474212
:102A90000070004001484068704700BF00000020FF
:102AA0002DE9F04104000F4654D0404E306800F04C
:102AB0000F00B84202D200F073F84BD120683C4DB1
:102AC000810712D5400703D5A96841F4E051A960F8
:102AD0002078010703D5A86840F46040A860A96881
:102AE000A06821F0F0010143A9602178C80729D529
:102AF0006068012802D129688A0305E0022818BF0E
:102B0000032803D129688A0103D423E029688A07AE
:102B100020D5A968890840EA8100A860FFF7BAFFBC
:102B20008046A868616800F00C00B0EB810F09D006
:102B3000FFF7B0FFA0EB080041F289318842F0D3E3
:102B400003202BE0306800F00F00874204D200F031
:102B500027F801D0012021E02078410705D5AA6897
:102B6000E06822F4E0520243AA602178080706D503
:102B7000A968206921F4604141EAC001A96000F020
:102B80001FF8AA680B490C4BC2F30312895CC840BA
:102B900018600A48006800F043F80020BDE8F081A2
:102BA0003770316801F00F01B9427047003C0240B4
:102BB00000380240702F00080C00002008000020A0
:102BC00030B5144C606800F00C00042802D00828CE
:102BD00002D01DE0104830BD226820680023410269
:102BE00002F03F0204D525680B49C5F3881003E0C5
:102BF00020680A49C0F38810A1FB0001FEF7BCFF62
:102C00002168C1F30141491C4900B0FBF1F030BD1E
:102C1000024830BD0438024000127A000024F4005B
:102C200038B50D4D0D4B2A7804464FF47A7118686B
:102C3000B1FBF2F2B0FBF2F0FFF750FD50B9102CEF
:102C400008D2002221464FF0FF30FFF71FFDAC6095
:102C5000002032BD012032BD000000200C00002009
:102C600038B584B000F0AEF800F04DF800200090C8
:102C70004B4C4C48016841F08001016004F1300583
:102C8000026802F080020092002200990092102255
:102C9000036843F0020303600021006800F00200B3
:102CA000009000986846FFF7D0FB3F482060002165
:102CB0000020206184F820006160A16001213B4870
:102CC000A062217601200021E0616061E162E160A3
:102CD00029702046FFF7BAF80920012100900191E0
:102CE0000022029269462046FFF799FA2046FFF734
:102CF00061F900BF30A4298B204600F07DF86420E4
:102D000000F08EF8F7E780B592B03022002106A8D7
:102D1000FFF79BFB1422002101A8FFF796FB002080
:102D200000904FF480332248016841F080510160E7
:102D30000021006800F08050009000981D4800912C
:102D4000026822F4404242F480420260012200689C
:102D500000F44040009006A80099069202214FF42A
:102D600080020C910D92042164220E910F92022197
:102D70000422079310911192FFF704FD02210291A2
:102D8000002203920F204FF4A051019004914FF4C0
:102D900080520592032101A8FFF782FE13B000BD07
:102DA0001800002030380240002001400100000FD0
:102DB000403802400070004056616C75653A20252D
:102DC000640A000080B50B48016841F4007101609D
:102DD000026842F480620260016841F4807101601F
:102DE0000320FFF746FC0020FFF71AFFFFF7D0FA99
:102DF000002002BD003C02400EB4C0B5024603A84C
:102E000000210190009101AB0121044878440C306D
:102E1000FDF7CCF906BC5DF810FB00BF9302000083
:102E200038B50446FFF736FE14F1010F054602D00F
:102E3000044801786418FFF72DFE401BA042FAD326
:102E400031BD00BF00000020F0B583B00400FEF7E4
:102E5000F9FFA10047183D680026F643B54216D198
:102E600000F01AF83D68B5420FD100BF09A00090EC
:102E7000002C01D1002000E00420019003200290EA
:102E800069460120ABBE05003D6000F017F8280040
:102E900003B0F0BD3A74740007480121BFF35F8F9F
:102EA000D0E84F3FC0E8421F002AF9D1BFF35F8F3F
:102EB000002BF3D1704700BF620000200348BFF32E
:102EC0005F8F00210170BFF35F8F704762000020A9
:102ED0007047FEE7FEE7FEE7FEE770477047704782
:102EE00000F014B810B5074C2046FFF7FEF8204656
:102EF000FFF792F9044908802046BDE81040FFF72B
:102F000059B8000018000020600000200248416805
:102F100002788A18426070470000002030B50168CE
:102F200084684218416802EB5103C90703D54C4439
:102F300001E0491C05D19A420AD012F9011B12F88E
:102F4000015B002904F8015BF3D4491EF7D5F2E7D1
:102F50000C3030BD0448054A016841F4700101603D
:102F60004FF000601060704788ED00E008ED00E071
:102F70000000000000000000010203040607080929
:102F800010B5074979441831064C7C44163404E0E6
:102F90000A68081D114488470146A142F8D110BDB6
:102FA0004C000000680000004EF68851CEF200018F
:102FB000086840F470000860BFF34F8FBFF36F8F55
:102FC0004FF00070E1EE100A704718B583B00300AF
:102FD000140000930191029469460520ABBE0122C2
:102FE0001900201AAFF3008004B010BD37E2FFFFD4
:102FF00050000000180000200000000021FFFFFF2B
:10300000440200001C0000000000002080B58DF884
:10301000000001226946012000F008F8012802D1D1
:103020009DF8000002BD4FF0FF3002BD80B50028C2
:1030300002D400F003F802BD002002BD80B50029D3
:1030400001D1002002BD012801D0022802D100F0E8
:1030500004F802BDFFF7B9FF02BD30B583B00C0024
:1030600015000120FFF7F0FE0090019402956946DB
:103070000520ABBE281A03B030BD000000F00DF8EB
:10308000002801D0FFF77CFFAFF300800020AFF3F2
:103090000080FFF7E5FD00F002F80120704700F026
:1030A00001B8000007463846FEF7ACFEFBE738B52E
:1030B00004460D462846FFF7A9FFA84218BF002482
:1030C000204632BD0148804701480047552F00087F
:1030D000D5300008AFF30080FFF766FFFFF7CEFFA3
:1030E000FFF7FEBFFFF7FEBFFFF7FEBFFFF7FEBF14
:1030F000FFF7FEBFFFF7FEBFFFF7FEBFFFF7FEBF04
:10310000FFF7FEBFFFF7FEBFFFF7FEBFFFF7FEBFF3
:10311000FFF7FEBFFFF7FEBFFFF7FEBFFFF7FEBFE3
:10312000FFF7FEBFFFF7FEBFFFF7FEBFFFF7FEBFD3
:10313000FFF7FEBFFFF7FEBFFFF7FEBFFFF7FEBFC3
:10314000FFF7FEBFFFF7FEBFFFF7FEBFFFF7FEBFB3
:10315000FFF7FEBFFFF7FEBFFFF7FEBFFFF7FEBFA3
:10316000FFF7FEBFFFF7FEBFFFF7FEBFFFF7FEBF93
:10317000FFF7FEBFFFF7FEBFFFF7FEBFFFF7FEBF83
:10318000FFF7FEBFFFF7FEBFFFF7FEBFFFF7FEBF73
:10319000FFF7FEBFFFF7FEBFFFF7FEBFFFF7FEBF63
:1031A000FFF7FEBFFFF7FEBFFFF7FEBFFFF7FEBF53
:1031B000FFF7FEBFFFF7FEBFFFF7FEBFFFF7FEBF43
:1031C000FFF7FEBFFFF7FEBFFFF7FEBFFFF7FEBF33
:1031D000FFF7FEBFFFF7FEBFFFF7FEBFFFF7FEBF23
:1031E000FFF7FEBFFFF7FEBFFFF7FEBFFFF7FEBF13
:1031F000FFF7FEBFFFF7FEBFFFF7FEBFFFF7FEBF03
:10320000FFF7FEBFFFF7FEBFFFF7FEBFFFF7FEBFF2
:10321000FFF7FEBFFFF7FEBFFFF7FEBFFFF7FEBFE2
:10322000FFF7FEBFFFF7FEBFFFF7FEBFFFF7FEBFD2
:10323000FFF7FEBFFFF7FEBFFFF7FEBFFFF7FEBFC2
:10324000FFF7FEBF0001F9000010FC000224F400AB
:02325000F8FF85
:04000005080030D5EA
:00000001FF
