:020000040800F2
:1000000010040020C90E00089D0D00089F0D000877
:10001000A10D0008A30D0008A50D000800000000B8
:10002000000000000000000000000000A70D000814
:10003000A90D000800000000AB0D0008AD0D000880
:10004000F50E0008F90E0008FD0E0008010F00086B
:10005000050F0008090F00080D0F0008110F000818
:10006000150F0008190F00081D0F0008210F0008C8
:10007000250F0008290F00082D0F0008310F000878
:10008000350F0008390F00083D0F0008410F000828
:10009000450F0008490F00084D0F0008510F0008D8
:1000A000550F0008590F00085D0F0008610F000888
:1000B000650F0008690F00086D0F0008710F000838
:1000C000750F0008790F00087D0F0008810F0008E8
:1000D000850F0008890F00088D0F0008910F000898
:1000E000950F0008990F00089D0F0008A10F000848
:1000F000A50F0008A90F0008AD0F0008B10F0008F8
:10010000B50F0008B90F0008BD0F0008C10F0008A7
:10011000C50F0008C90F0008CD0F0008D10F000857
:10012000D50F0008D90F0008DD0F0008E10F000807
:10013000E50F0008E90F0008ED0F0008F10F0008B7
:10014000F50F0008F90F0008FD0F00080110000866
:1001500005100008091000080D1000081110000813
:1001600015100008191000081D10000821100008C3
:1001700025100008291000082D10000800000000BC
:100180003110000835100008391000083D10000833
:100190004110000845100008491000084D100008E3
:1001A0005110000855100008591000082DE9F843B7
:1001B000040016D02078DFF8F462C10713D5B068C8
:1001C00000F00C00042807D0B06800F00C000828EC
:1001D0003DD1706841023AD53068810303D560682B
:1001E000002800F05E812078B14F810719D5B068F2
:1001F00010F00C0F07D0B06800F00C0008285BD19D
:100200007068410258D43068810703D5E06801283E
:1002100040F047813168206921F0F80141EAC001CE
:1002200031602178080779D56069A249002868D033
:1002300001220A6000F042F90546706F81076DD413
:1002400000F03CF9401B0228F7D903202CE160683C
:10025000B0F5803F04D1306840F48030306011E068
:10026000B0F5A02F306806D140F4802030603168AE
:1002700041F4803105E020F480303060316821F4B1
:1002800080213160606858B100F018F90546306887
:100290008103A8D400F012F9401B6528F7D3D4E7F6
:1002A00000F00CF90546306881039CD500F006F992
:1002B000401B6528F7D3C8E7E068A8B10121396081
:1002C00000F0FCF805463068810705D400F0F6F828
:1002D000401B0228F7D9B8E73068216920F0F80000
:1002E00040EAC10030609CE7386000F0E7F805465E
:1002F0003168880795D500F0E1F8401B0228F7D94E
:10030000A3E7086000F0DAF80546706F810705D5AD
:1003100000F0D4F8401B0228F7D996E7207841076F
:100320005FD5306C0025C1000AD400950125316CE1
:1003300041F080513164306C00F0805000900098A2
:10034000DFF87481D8F80000C10513D4D8F8000094
:1003500040F48070C8F8000000F0B0F88146D8F88A
:100360000000C10506D400F0A9F8A0EB090002289E
:10037000F5D96AE7A068012805D00528306F06D1B5
:1003800040F004003067306F40F0010005E04008A5
:1003900040003067306F20F00400306741F2893848
:1003A000A06860B100F08AF88146306F810713D4ED
:1003B00000F084F8A0EB09004045F6D345E700F0D3
:1003C0007DF88146306F810706D500F077F8A0EB05
:1003D00009004045F6D338E71DB1306C20F080505D
:1003E0003064A06900285ED0B16801F00C010829D2
:1003F0003AD002282AD10020386600F05FF805467E
:100400003068810105D500F059F8401B0228F7D962
:100410001BE7E069216A626A0843A16A490840EA69
:100420008210491E40EA0140E16A40EA01607060C2
:100430000120386600F042F804463068810132D469
:1004400000F03CF8001B0228F7D9FEE600203866D1
:1004500000F034F804463068810124D500F02EF80D
:10046000001B0228F7D9F0E601281AD0B068E2692B
:1004700000F48001914202BF00F03F01226A9142E4
:100480000FD147F6C071626A0140914202BF00F489
:100490004031A26A914202BF00F07060E16A884276
:1004A00001D0012000E00020BDE8F28300380240C6
:1004B00000004742800E47420070004001484068FB
:1004C000704700BF000000202DE9F84F0D460026C0
:1004D0007349744A0F23044601202F68B04000EA94
:1004E0000708804540F0CB804FEA460C032707FA07
:1004F0000CF76FEA070E6F68012F18BF022F03D0A9
:10050000112F18BF122F12D1A768D5F80C900EEA40
:10051000070709FA0CF949EA0707A760676827EA9D
:1005200000006F68C7F30017B74038436060E068A9
:10053000AF680EEA000007FA0CF73843E060B0003D
:100540006F68022F18BF122F12D1F70804EB87072C
:1005500000F01C09D7F820A003FA09FB2AEA0B0ACD
:10056000D5F810B00BFA09F949EA0A09C7F8209042
:1005700027680EEA070E2F7907F0030707FA0CF732
:1005800047EA0E0727606F68FF0078D500270097BD
:100590004FEA960C176847F48047176000F00C008C
:1005A000176807F48047009703FA00FE009F3E4F4C
:1005B00057F82C7027EA0E0E3C4FBC4208BF0027AC
:1005C0002CD03B4FBC4208BF012727D0394FBC423B
:1005D00008BF022722D0384FBC4208BF03271DD0D6
:1005E000364FBC4208BF042718D0354FBC4208BF65
:1005F000052713D0334FBC4208BF06270ED0324F19
:10060000BC4208BF072709D0304FBC4208BF0827AB
:1006100004D02F4FBC420CBF09270A2707FA00F06D
:10062000214F40EA0E0047F82C006FEA08000F68DF
:1006300000EA070C6F68FF0348BF48EA0C0CC1F8DA
:1006400000C04F6800EA070C6F68BF0348BF48EA64
:100650000C0CC1F804C08F6800EA070C6F68FF0239
:1006600048BF48EA0C0CC1F808C0CF6800EA070C84
:100670006868800248BF48EA0C0CC1F80CC0761CC0
:100680000F2E7FF629AFBDE8F18F02B90904816111
:10069000704742690A408A4208BF09048161704775
:1006A000003C01404438024008380140000002404C
:1006B0000004024000080240000C0240001002400A
:1006C0000014024000180240001C024000200240BA
:1006D00000240240F8B586B000F0DEF800F07AF8A9
:1006E00014220021684600F0F1F80020059040F245
:1006F000FF155F485F4C01685F4E41F010010160DB
:10070000FF27026802F01002059200220599059267
:10071000036843F020030360016801F020010591A4
:1007200005990592036843F080030360016801F0B6
:100730008001059105990592036843F00103036068
:10074000016801F001010591059905928021036876
:1007500043F008030360006800F008000590059866
:100760002046FFF792FF002229463046FFF78DFF13
:1007700000F02AF84148FFF7A7FE802100910122EE
:100780000192002102910322039269462046FFF75D
:100790009BFE01200321019000220391029200950B
:1007A00069463046FFF790FE00F00EF83448FFF738
:1007B0008BFE34483449354B4160F0221A700021D9
:1007C000816007220260FEE70021019102910097FB
:1007D0006946704780B592B03022002106A800F02B
:1007E00075F81422002101A800F070F80020009094
:1007F0004FF480332648016841F0805101600021A8
:10080000006800F080500090009822480091026833
:1008100042F4404202600122006800F4404000902F
:1008200006A80099069202214FF480020C910D92C5
:100830000421B4220E910F920221042207931091F9
:100840001192FFF7B3FC00F04BF802210291002255
:1008500003920F204FF4A051019004914FF4805265
:100860000592052101A800F077F813B000BD000043
:1008700030380240001402400000024000100240E4
:10088000000C024010E000E01FBF020023ED00E07A
:10089000403802400070004080B50B48016841F4C8
:1008A00000710160026842F480620260016841F4F4
:1008B00080710160032000F01CF9002000F062F953
:1008C00000F080F9002002BD003C024010B5044653
:1008D00010460A460146204600F090F9204610BD19
:1008E000F8B500F027F8012100F01EF83160FFF79D
:1008F000E5FD07462868C10306D4FFF7DFFDC01BEE
:10090000A042F7D30320F2BD01207060FFF7D6FDAF
:1009100006462868810305D4FFF7D0FD801BA0425E
:10092000F7D3EFE70020F2BD006800F080500090A0
:10093000009870470020009040F2E9340448054ECA
:100940000168024D41F08051016070470470004021
:100950004038024040000E422DE9F04104000F46AD
:1009600054D0404E306800F00F00B84202D200F080
:1009700073F84BD120683C4D810712D5400703D551
:10098000A96841F4E051A9602078010703D5A8685F
:1009900040F46040A860A968A06821F0F00101431C
:1009A000A9602178C80729D56068012802D1296883
:1009B0008A0305E0022818BF032803D129688A01A9
:1009C00003D423E029688A0720D5A968890840EA6A
:1009D0008100A860FFF772FD8046A868616800F09A
:1009E0000C00B0EB810F09D0FFF768FDA0EB080009
:1009F00041F289318842F0D303202BE0306800F0C7
:100A00000F00874204D200F027F801D0012021E036
:100A10002078410705D5AA68E06822F4E052024335
:100A2000AA602178080706D5A968206921F46041E9
:100A300041EAC001A96000F01FF8AA680B490C4BFD
:100A4000C2F30312895CC84018600A48006800F0CD
:100A500099F80020BDE8F0813770316801F00F018E
:100A6000B9427047003C024000380240100E0008B6
:100A70000C0000200800002030B5144C606800F025
:100A80000C00042802D0082802D01DE0104830BD18
:100A9000226820680023410202F03F0204D5256845
:100AA0000B49C5F3881003E020680A49C0F3881099
:100AB000A1FB000100F0ECF82168C1F30141491CE1
:100AC0004900B0FBF1F030BD024830BD04380240AF
:100AD00000127A000024F4000901020002D4244824
:100AE00081547047234B02F00F021A4402F8041C91
:100AF0007047214B19684FF6FF020002114000F4C5
:100B0000E06008431D4908431860704770B51A4BF0
:100B10001C68C4F302230124C3F10705052D2EBF71
:100B20000F2504FA05F56D1E1E1D072E34BF002388
:100B3000DB1E2940994004FA03F3BDE870405B1EB8
:100B40001A401143C8E710B5401EB0F1807F01D3B1
:100B5000012010BD0A4C60600F214FF0FF30FFF7FD
:100B6000BBFF0021A16007202060002010BD000015
:100B700000E400E018ED00E00CED00E00000FA05F4
:100B800010E000E038B50D4D0D4B2A7804464FF4C7
:100B90007A711868B1FBF2F2B0FBF2F0FFF7D3FF05
:100BA00050B9102C08D2002221464FF0FF30FFF739
:100BB000ADFFAC60002032BD012032BD000000203E
:100BC0000C00002081B00020009000220A484168FB
:100BD00041F480414160416801F4804100910099F5
:100BE0000092036843F080530360006800F0805077
:100BF0000090009801B070474038024062F30F2225
:100C000062F31F42401810F0030308D0C91A1FD323
:100C1000DB0748BF00F8012D28BF20F8022D130084
:100C200030B414461546103928BF20E93C00FAD8E4
:100C3000490728BF20E90C0048BF40F8042D89006F
:100C400028BF20F8022D48BF00F8012D30BC7047A6
:100C5000C91818BF00F8012DCB0728BF00F8012DD7
:100C6000704730B40EE00268436802440830DC0785
:100C700044BFA9F10104E31852F8045B43F8045B94
:100C8000091FF9D150F8041B0029ECD130BC704782
:100C9000D3BBD9B1B2F5803F5BD2022A1ED98C46B4
:100CA000B1FBF2F102FB11C31B0443EA1043B3FB97
:100CB000F2FC02FB1C3380B240EA0343B3FBF2F0C8
:100CC00002FB103240EA0C4000237047022A05D98B
:100CD0008446B0FBF2F002FB10C270474AB105D166
:100CE00000F0010249085FEA30007047002200234B
:100CF000704700F051B80B0002000021002070473F
:100D0000F7D3002200237047904271EB030CF2D31B
:100D100070B5B1FA81F4B3FA83F52C1BA340C4F18A
:100D2000200532FA05F63343A2405FF00046E64064
:100D300002E05B085FEA3202841A71EB030524BF0C
:100D4000204629467641F4D302000B0030000021F2
:100D500070BD70B5B1FA81F4B2FA82F5C4F1200425
:100D60006419B4F12006DAD3B2405FF00044F440D5
:100D7000002502E052085FEA3303C61A71EB020E47
:100D800024BF3046714664416D41F3D302000B002D
:100D90002000290070BD0000704700007047FEE78A
:100DA000FEE7FEE7FEE770477047704780B5802199
:100DB0000848FFF76EFC0849084A08681168084BA4
:100DC00000F0FF0001F0FF0108181860BDE80140C5
:100DD00000F008B800140240100C0240101002404D
:100DE000140002400248416802788A184260704745
:100DF000000000200448054A016841F470010160C8
:100E00004FF000601060704788ED00E008ED00E0F2
:100E100000000000000000000102030406070809AA
:100E200010B5074979441831064C7C44163404E067
:100E30000A68081D114488470146A142F8D110BD37
:100E40002C0000003C0000004EF68851CEF200015C
:100E5000086840F470000860BFF34F8FBFF36F8FD6
:100E60004FF00070E1EE100A70470000F7FDFFFF41
:100E700010000000640000000000002000000000DE
:100E800000F00DF8002801D0FFF7CAFFAFF3008093
:100E90000020AFF30080FFF71DFC00F002F80120F6
:100EA000704700F001B800000746384600F002F82D
:100EB000FBE7000080B5AFF30080024A1100182064
:100EC000ABBEFBE72600020001488047014800470F
:100ED000F50D0008E90E0008010000000000000008
:100EE000100000000024F400AFF30080FFF7ACFF17
:100EF000FFF7C6FFFFF7FEBFFFF7FEBFFFF7FEBF1E
:100F0000FFF7FEBFFFF7FEBFFFF7FEBFFFF7FEBF15
:100F1000FFF7FEBFFFF7FEBFFFF7FEBFFFF7FEBF05
:100F2000FFF7FEBFFFF7FEBFFFF7FEBFFFF7FEBFF5
:100F3000FFF7FEBFFFF7FEBFFFF7FEBFFFF7FEBFE5
:100F4000FFF7FEBFFFF7FEBFFFF7FEBFFFF7FEBFD5
:100F5000FFF7FEBFFFF7FEBFFFF7FEBFFFF7FEBFC5
:100F6000FFF7FEBFFFF7FEBFFFF7FEBFFFF7FEBFB5
:100F7000FFF7FEBFFFF7FEBFFFF7FEBFFFF7FEBFA5
:100F8000FFF7FEBFFFF7FEBFFFF7FEBFFFF7FEBF95
:100F9000FFF7FEBFFFF7FEBFFFF7FEBFFFF7FEBF85
:100FA000FFF7FEBFFFF7FEBFFFF7FEBFFFF7FEBF75
:100FB000FFF7FEBFFFF7FEBFFFF7FEBFFFF7FEBF65
:100FC000FFF7FEBFFFF7FEBFFFF7FEBFFFF7FEBF55
:100FD000FFF7FEBFFFF7FEBFFFF7FEBFFFF7FEBF45
:100FE000FFF7FEBFFFF7FEBFFFF7FEBFFFF7FEBF35
:100FF000FFF7FEBFFFF7FEBFFFF7FEBFFFF7FEBF25
:10100000FFF7FEBFFFF7FEBFFFF7FEBFFFF7FEBF14
:10101000FFF7FEBFFFF7FEBFFFF7FEBFFFF7FEBF04
:10102000FFF7FEBFFFF7FEBFFFF7FEBFFFF7FEBFF4
:10103000FFF7FEBFFFF7FEBFFFF7FEBFFFF7FEBFE4
:10104000FFF7FEBFFFF7FEBFFFF7FEBFFFF7FEBFD4
:0C105000FFF7FEBFFFF7FEBFFFF7FEBF7B
:0400000508000EE9F8
:00000001FF
