:020000040800F2
:10000000B8040020D51E0008051D0008071D0008C3
:10001000091D00080B1D00080D1D00080000000050
:100020000000000000000000000000000F1D00089C
:10003000111D000800000000131D0008151D000818
:10004000011F0008051F0008091F00080D1F0008F8
:10005000111F0008151F0008191F00081D1F0008A8
:10006000211F0008251F0008291F00082D1F000858
:10007000311F0008351F0008391F00083D1F000808
:10008000411F0008451F0008191D0008491F0008EE
:100090004D1F0008511F0008551F0008591F000878
:1000A0005D1F0008611F0008651F0008691F000828
:1000B0006D1F0008711F0008751F0008791F0008D8
:1000C0007D1F0008811F0008851F0008891F000888
:1000D0008D1F0008911F0008951F0008991F000838
:1000E0009D1F0008A11F0008A51F0008A91F0008E8
:1000F000AD1F0008B11F0008B51F0008B91F000898
:10010000BD1F0008C11F0008611D0008C51F0008B1
:10011000C91F0008CD1F0008D11F0008D51F000807
:10012000D91F0008DD1F0008E11F0008E51F0008B7
:10013000E91F0008ED1F0008F11F0008F51F000867
:10014000F91F0008FD1F0008012000080520000815
:10015000092000080D2000081120000815200008C3
:10016000192000081D200008212000082520000873
:10017000292000082D200008312000080000000080
:1001800035200008392000083D20000841200008E3
:1001900045200008492000084D2000085120000893
:1001A00055200008592000085D20000870B504465D
:1001B00000250CB9012070BD04F13006306920B96A
:1001C000204600F0AFFA756135733069C10600F161
:1001D00092803069DFF8F01420F4885040F002007B
:1001E0003061086820F4403008600A6860680243A3
:1001F0000A602068416821F480714160206841688C
:10020000226941EA022141602068416821F0407181
:10021000416021684A68A06802434A60206881689A
:1002200021F40061816021688A68E06802438A6085
:100230002068A16ADFF894249142816821F07061FE
:1002400081600CD021688A68A06A02438A6000F04D
:100250005BF821688A68E06A02438A6001E000F086
:1002600053F82068816821F0020100F049F8227EED
:1002700041EA4201816094F8200021680028486822
:100280000FD040F4006048602068416821F460416C
:10029000416020684168626A521E41EA4231416011
:1002A00002E020F4006048602068C16A21F4700117
:1002B000C1622068C16AE269521E41EA0251C1620C
:1002C0002068816821F4007100F01AF8327841EA60
:1002D000422100F015F821F4806100F011F8626904
:1002E00041EA822181607561316921F0020141F0AA
:1002F0000101316100E0012500203073284670BD06
:1003000081602068816870472068816821F04051D1
:100310008160704738B500F065F801D1022032BD28
:1003200000F074F837D500F045F846BF906820F02B
:100330000600002000F036F80868DFF88C234368D8
:1003400043F0806343F02003436000F058F818D175
:1003500088420FD0DFF87813884204D1126812F077
:100360001F0F18D106E0DFF86C13884213D100F09C
:1003700014F810D2816811F0405F0CD100F03AF807
:1003800009E0884202BFDFF85003016811F0405FC6
:1003900001D100F022F8002032BD126802F01F02E5
:1003A000102A70479060002313706FF022000A68D3
:1003B000106070475568DFF82403054045F48075E8
:1003C00055605868430505D5506820F4005040F446
:1003D000805050605068C3047047016841F080410C
:1003E000016070470146002001F13C020090137843
:1003F000012B7047816841F0804181607047086837
:100400001368DFF8DC1213F01F0F70470120107023
:1004100008688368DC0714D48368DFF8C84243F0B7
:1004200001038360DFF8C0020368B3FBF4F404EB5C
:100430004404009402E00098401E009000980028B8
:10044000F9D10B689868C407704738B5044620682E
:10045000016802468907506829D5800627D5216C96
:10046000C80603D4216C41F400712164916811F035
:10047000405F04BF207E002812D1D06A10F4700FB4
:1004800002D0916848050BD4506820F020005060DD
:10049000206C20F480702064206CC10400F066F8A9
:1004A000204600F0C7F921686FF01200086022684A
:1004B00011685068490730D500062ED5216CC80652
:1004C00003D4216C41F400512164916811F4401F60
:1004D0001CD1916B11F4401F02D09168480515D4CE
:1004E0005068410512D4916811F0405F04BF207E2E
:1004F00000280BD1506820F080005060206C20F460
:1005000080502064206CC10500F030F8204600F0D7
:10051000AFF921686FF00C0008602068026841683C
:10052000D2070FD549060DD50068C1070AD5206C42
:1005300040F480302064204600F09BF921686FF081
:100540000100086020680268416892060DD54901E3
:100550000BD5626C42F0020262646FF02005056008
:10056000204600F087F92068056031BD03D4206C77
:1005700040F00100206470470068C06C704778B597
:1005800002460020009092F83C30012B01D102205D
:1005900072BD012082F83C0007240B6810680A2B0A
:1005A00012D30A3BC56803EB43039C4025EA0404CD
:1005B000C460C3680D688C68A5F10A0606EB4606A0
:1005C000B4402343C3600FE0056903EB430304FA1F
:1005D00003F325EA0303036103690D688C6805EBE7
:1005E0004505AC40234303611F244B68072B0CD205
:1005F0005B1E456B00F059F84463436B4D680C88F3
:100600006E1E00F04DF843631BE00D2B0CD2DB1F78
:10061000056B00F04AF80463036B4D680C88EE1F0D
:1006200000F03EF803630CE00D3BC56A00F03DF8B6
:10063000C462C36A4D680C88A5F10D0600F030F85D
:10064000C362274B984226D10C681F48122C07D151
:10065000036823F400030360046844F48004046026
:100660000B68224CA34218BF112B14D1036823F44A
:1006700080030360056845F4000505600868A04232
:1006800009D11949174C0B68B3FBF4F40A20444311
:10069000009400F010F8002182F83C10002072BD98
:1006A00006EB8606B4402343704703EB83039C406C
:1006B00025EA0404704702E00098401E009000986C
:1006C0000028F9D170470000042301400100000F09
:1006D000002101400022014008200140FEF9FFFFF7
:1006E0000020014040420F000C00002012000010CA
:1006F00081B00020009000224748416841F48041C9
:100700004160416801F480410091009900920368C2
:1007100043F080530360006800F080500090009820
:1007200001B0704710B586B000F04EF821683B4824
:10073000814222D100223A480092416941F48071FD
:100740004161416901F48071009100990092022198
:10075000036843F0020303600322006800F0020014
:10076000009000982F4800F035F800220021122058
:1007700000F0B2F8122000F0CCF806B010BD10B5B1
:1007800086B000F021F82168274881421AD1002262
:1007900023480092016941F000510161016901F0B3
:1007A00000510091009900922021036843F0010359
:1007B00003600322006800F00100009000981B48CD
:1007C00000F008F806B010BD04461422002101A86C
:1007D00000F0CAB8019102920021039101A900F032
:1007E000CDB800681249884200D0704780B5002219
:1007F00009480092016841F0080101600021006889
:1008000000F0080000900098322000F065F8BDE884
:100810000240322000F07DB8403802400020014004
:1008200030380240000402400074004000000240E2
:10083000000C0040704730B4002513E050F8042B42
:10084000D30744BFA9F101039A18091F042942F8EC
:10085000045BFAD213468C0744BF15809B1CC90762
:1008600048BF1D7050F8041B0029E7D130BC704709
:1008700070477047704730B40EE002684368024426
:100880000830DC0744BFA9F10104E31852F8045B07
:1008900043F8045B091FF9D150F8041B0029ECD17F
:1008A00030BC70470901020002D4294881547047C6
:1008B000284B02F00F021A4402F8041C7047264B22
:1008C00019684FF6FF020002114000F4E06008438F
:1008D000224908431860704770B51F4B1C68C4F369
:1008E00002230124C3F10705052D2EBF0F2504FAAD
:1008F00005F56D1E1E1D072E34BF0023DB1E29408B
:10090000994004FA03F3BDE870405B1E1A4011439E
:10091000C8E7010007D4012200F01F01104B8A40F4
:10092000400943F82020704710B5401EB0F1807F89
:1009300001D3012010BD0B4C60600F214FF0FF3040
:10094000FFF7B0FF0021A16007202060002010BD4C
:1009500000E400E018ED00E00CED00E00000FA0516
:1009600000E100E010E000E010B5044610460A4641
:100970000146204600F0FEF8204610BD2DE9F84F54
:100980000D4600266E496F4A0F23044601202F684A
:10099000B04000EA0708804540F0CB804FEA460CA3
:1009A000032707FA0CF76FEA070E6F68012F18BFCD
:1009B000022F03D0112F18BF122F12D1A768D5F81C
:1009C0000C900EEA070709FA0CF949EA0707A76035
:1009D000676827EA00006F68C7F30017B74038431D
:1009E0006060E068AF680EEA000007FA0CF7384371
:1009F000E060B0006F68022F18BF122F12D1F70805
:100A000004EB870700F01C09D7F820A003FA09FBC4
:100A10002AEA0B0AD5F810B00BFA09F949EA0A09D3
:100A2000C7F8209027680EEA070E2F7907F0030712
:100A300007FA0CF747EA0E0727606F68FF0078D5C2
:100A4000002700974FEA960C176847F48047176015
:100A500000F00C00176807F48047009703FA00FEC7
:100A6000009F394F57F82C7027EA0E0E374FBC42C3
:100A700008BF00272CD0364FBC4208BF012727D023
:100A8000344FBC4208BF022722D0334FBC4208BFBC
:100A900003271DD0314FBC4208BF042718D0304F68
:100AA000BC4208BF052713D02E4FBC4208BF062703
:100AB0000ED02D4FBC4208BF072709D02B4FBC4298
:100AC00008BF082704D02A4FBC420CBF09270A27B9
:100AD00007FA00F01C4F40EA0E0047F82C006FEABE
:100AE00008000F6800EA070C6F68FF0348BF48EA78
:100AF0000C0CC1F800C04F6800EA070C6F68BF0318
:100B000048BF48EA0C0CC1F804C08F6800EA070C23
:100B10006F68FF0248BF48EA0C0CC1F808C0CF68F4
:100B200000EA070C6868800248BF48EA0C0CC1F86C
:100B30000CC0761C0F2E7FF629AFBDE8F18F0000A8
:100B4000003C0140443802400838014000000240A7
:100B50000004024000080240000C02400010024065
:100B60000014024000180240001C02400020024015
:100B70000024024062F30F2262F31F42401810F07B
:100B8000030308D0C91A1FD3DB0748BF00F8012DA3
:100B900028BF20F8022D130030B414461546103932
:100BA00028BF20E93C00FAD8490728BF20E90C00FB
:100BB00048BF40F8042D890028BF20F8022D48BF07
:100BC00000F8012D30BC7047C91818BF00F8012D7E
:100BD000CB0728BF00F8012D7047000038B504008E
:100BE00001D1012032BD00F028F818B900F021F839
:100BF000FFF7F7FD13E0022180F83D1002689168CD
:100C000001F00701062904D001680A6842F00102D8
:100C10000A60FFE7012180F83D10002070470220A4
:100C20006870211D206800F00DF901206870002017
:100C300032BD002129702046704704F13C056878D8
:100C4000704710B50446206801698A0715D5C16848
:100C50008A0712D56FF002010161012222778069B3
:100C600010F0030F204602D000F086F903E000F0F8
:100C700084F900F087F800202077206801694A078E
:100C800015D5C1684A0712D56FF00401016102222F
:100C90002277806910F4407F204602D000F06CF982
:100CA00003E000F06AF900F06DF80020207720687A
:100CB00001690A0715D5C1680A0712D56FF0080146
:100CC000016104222277C06910F0030F204602D090
:100CD00000F052F903E000F050F900F053F8002062
:100CE000207720680169CA0615D5C168CA0612D5E1
:100CF0006FF01001016108222277C06910F4407F73
:100D0000204602D000F038F903E000F036F900F098
:100D100039F80020207720680169CA0708D5C16822
:100D2000CA0705D56FF001010161204600F026F9E0
:100D3000206801690A0608D5C1680A0605D56FF062
:100D400080010161204600F01AF9206801694A0615
:100D500008D5C1684A0605D56FF0400101612046FB
:100D600000F00EF9206801698A060AD5C1688A0672
:100D700007D56FF0200101612046BDE8104000F06A
:100D800000B910BD204600F0FDB838B500F04EF8AF
:100D900001D1022032BD0120207002226270DFF8F2
:100DA0003C012A689368034093600868020018BFFA
:100DB00010282DD0202818BF302829D0402823D033
:100DC000502816D0602818D0702803D0B0F5005FE6
:100DD00007D021E000F025F82868816841F077010C
:100DE00005E000F01EF82868816841F480418160C8
:100DF00012E000F012F850210BE0CA684968286838
:100E000000F093F8602104E000F007F8402100E0D2
:100E10000146286800F09BF80EE0CA684968286817
:100E200074E0CB684A688968286898E0054605F14F
:100E30003C04207801287047012060700021217057
:100E4000002032BDF0B5264C0568264B264E274FB4
:100E5000DFF89CC0A04218BFB0F1804F07D06045BA
:100E600018BFB84203D0B04218BF98420DD14A68AB
:100E700025F070051543A04218BFB0F1804F17D080
:100E800060451CBFB842B04212D098421CBF194AFC
:100E900090420DD0184EB0421CBF184A904207D065
:100EA000174EB0421FBF174A9042174EB04203D1AF
:100EB000CA6825F4407515434A6925F08005154335
:100EC0000560A0428D68C5620A68826212BF9842BE
:100ED0000969016301224261F0BD00008800FFFF43
:100EE0000000014000040140000C004000080040E8
:100EF000000400400040014000440140004801401F
:100F000000180040001C00400020004010B5036A9B
:100F1000046A64086400046223F00A03846924F00C
:100F2000F00444EA0214846123E010B5036A23F05C
:100F3000100303628369046A23F4704343EA0233B3
:100F400024F0A004836144EA0114046210BD8268A5
:100F500022F07002114341F007018160704710B523
:100F6000846824F47F442143114341EA03218160D2
:100F700010BD1943016210BD70477047704770473C
:100F800070477047704700002DE9F843040016D001
:100F90002078DFF8F462C10713D5B06800F00C00C8
:100FA000042807D0B06800F00C0008283DD1706814
:100FB00041023AD53068810303D56068002800F00B
:100FC0005E812078B14F810719D5B06810F00C0F01
:100FD00007D0B06800F00C0008285BD170684102AF
:100FE00058D43068810703D5E068012840F0478174
:100FF0003168206921F0F80141EAC00131602178AF
:10100000080779D56069A249002868D001220A60E2
:1010100000F042F90546706F81076DD400F03CF98D
:10102000401B0228F7D903202CE16068B0F5803F0F
:1010300004D1306840F48030306011E0B0F5A02F6A
:10104000306806D140F480203060316841F480314E
:1010500005E020F480303060316821F48021316077
:10106000606858B100F018F9054630688103A8D4CB
:1010700000F012F9401B6528F7D3D4E700F00CF913
:101080000546306881039CD500F006F9401B6528B1
:10109000F7D3C8E7E068A8B10121396000F0FCF897
:1010A00005463068810705D400F0F6F8401B022899
:1010B000F7D9B8E73068216920F0F80040EAC100AC
:1010C00030609CE7386000F0E7F805463168880733
:1010D00095D500F0E1F8401B0228F7D9A3E7086096
:1010E00000F0DAF80546706F810705D500F0D4F8F6
:1010F000401B0228F7D996E7207841075FD5306C6E
:101100000025C1000AD400950125316C41F08051C1
:101110003164306C00F0805000900098DFF87481EA
:10112000D8F80000C10513D4D8F8000040F480704E
:10113000C8F8000000F0B0F88146D8F80000C105FA
:1011400006D400F0A9F8A0EB09000228F5D96AE757
:10115000A068012805D00528306F06D140F00400B2
:101160003067306F40F0010005E040084000306714
:10117000306F20F00400306741F28938A06860B118
:1011800000F08AF88146306F810713D400F084F8AC
:10119000A0EB09004045F6D345E700F07DF8814615
:1011A000306F810706D500F077F8A0EB09004045C5
:1011B000F6D338E71DB1306C20F080503064A06960
:1011C00000285ED0B16801F00C0108293AD002284D
:1011D0002AD10020386600F05FF8054630688101AA
:1011E00005D500F059F8401B0228F7D91BE7E06944
:1011F000216A626A0843A16A490840EA8210491ECE
:1012000040EA0140E16A40EA01607060012038660E
:1012100000F042F804463068810132D400F03CF816
:10122000001B0228F7D9FEE60020386600F034F8EB
:1012300004463068810124D500F02EF8001B0228F6
:10124000F7D9F0E601281AD0B068E26900F480010D
:10125000914202BF00F03F01226A91420FD147F64E
:10126000C071626A0140914202BF00F44031A26A3B
:10127000914202BF00F07060E16A884201D0012013
:1012800000E00020BDE8F283003802400000474241
:10129000800E47420070004001484068704700BF20
:1012A0000000002070B586B000F0F2F800F093F86E
:1012B000002000906E4C6F48016841F08001016091
:1012C00004F13005026802F08002009200220099C9
:1012D000009204F18806036843F00103036001688B
:1012E00001F001010091009900921022036843F07F
:1012F000020303600021006800F0020000900098E3
:101300006846FFF731FB5C48206000210020206127
:1013100084F820006160A16001215848A062217614
:1013200001200021E0616061E162E16029702046F6
:10133000FEF73CFF0920012100900191002202925A
:1013400069462046FFF71BF900F040F84C48A865B5
:10135000304600F0B7F80021022200910192694660
:101360001022304600F0F4F81022002102A8FFF706
:10137000FBFA00F02BF84348A8610021E961002046
:10138000286240F2CF21A8622863696204F1480014
:10139000FFF724FC4FF48050029002A904F14800AA
:1013A000FFF7F3FC00210091019104F14800694628
:1013B00000F002F91021304600F098F804F14800DE
:1013C000FFF719FC2046FEF7A5FFFEE708220021E3
:1013D0006846FFF7C9BA80B592B03022002106A84E
:1013E000FFF7C2FA1422002101A8FFF7BDFA00207E
:1013F00000904FF480332448016841F0805101602F
:101400000021006800F08050009000981F48009173
:10141000026822F4404242F48042026001220068E5
:1014200000F44040009006A80099069202214FF473
:1014300080020C910D92042148220E910F920221FC
:101440000422079310911192FFF79EFD0221029151
:10145000802203920F204FF4A051019004914FF489
:1014600080520592012101A800F0ECF813B000BDF4
:101470001000002030380240002001400100000F21
:1014800000740040000C00404038024000700040F2
:1014900080B50B48016841F400710160026842F4B4
:1014A00080620260016841F4807101600320FFF7EF
:1014B00006FA002000F086F9FFF71AF9002002BDB5
:1014C000003C024010B5040001D1012010BD20797C
:1014D00020B9002161712046FFF751F902202071E7
:1014E0000021216101202071002010BD10B542793A
:1014F000012A01D1022010BD012242710223037191
:101500000123026814688B401C43146000290268A0
:10151000136811680AD15A0714D501F03801382927
:1015200010D101684A6842F001020AE05A0309D565
:1015300001F46011B1F5601F04D101684A6842F0FE
:1015400002024A600122027100214171002010BD97
:1015500070B54379012B01D1022070BD0123437185
:101560000224047140F6FE7503681C680E68496821
:1015700095400E43AC43964034431C60C024016840
:101580000B6804FA02F223EA02020A6001210171E7
:1015900000224271002070BD38B50024009400295B
:1015A000056800950CBF083214320098121800929A
:1015B00000980360002032BD70B500F13C031A783A
:1015C000012A01D1022070BD01221A7002245C7030
:1015D00005686E68AC680A6826F0700616436E608F
:1015E00002681148824218BFB2F1804F11D00F48F3
:1015F00082421CBF0E4DAA420BD00E4882421CBF35
:101600000D4DAA4205D00D4882421CBF0C4DAA4286
:1016100004D1486824F08004044394600121597087
:101620000020187070BD0000000001400004004060
:1016300000080040000C0040000401400040014050
:10164000001800402DE9F04104000F4654D0404EF0
:10165000306800F00F00B84202D200F073F84BD1AE
:1016600020683C4D810712D5400703D5A96841F495
:10167000E051A9602078010703D5A86840F46040D4
:10168000A860A968A06821F0F0010143A960217851
:10169000C80729D56068012802D129688A0305E0B6
:1016A000022818BF032803D129688A0103D423E044
:1016B00029688A0720D5A968890840EA8100A860BE
:1016C000FFF7EAFD8046A868616800F00C00B0EB07
:1016D000810F09D0FFF7E0FDA0EB080041F289314E
:1016E0008842F0D303202BE0306800F00F008742DF
:1016F00004D200F027F801D0012021E02078410732
:1017000005D5AA68E06822F4E0520243AA60217875
:10171000080706D5A968206921F4604141EAC001A3
:10172000A96000F01FF8AA680B490C4BC2F3031222
:10173000895CC84018600A48006800F043F800203F
:10174000BDE8F0813770316801F00F01B942704790
:10175000003C0240003802400C1E00080C00002033
:101760000800002030B5144C606800F00C0004281C
:1017700002D0082802D01DE0104830BD2268206841
:101780000023410202F03F0204D525680B49C5F34E
:10179000881003E020680A49C0F38810A1FB00010B
:1017A00000F030F82168C1F30141491C4900B0FB49
:1017B000F1F030BD024830BD0438024000127A001A
:1017C0000024F40038B50D4D0D4B2A7804464FF433
:1017D0007A711868B1FBF2F2B0FBF2F0FFF7A4F8EF
:1017E00050B9102C08D2002221464FF0FF30FFF7ED
:1017F00073F8AC60002032BD012032BD0000002033
:101800000C000020D3BBD9B1B2F5803F5BD2022AD5
:101810001ED98C46B1FBF2F102FB11C31B0443EA53
:101820001043B3FBF2FC02FB1C3380B240EA0343DB
:10183000B3FBF2F002FB103240EA0C400023704789
:10184000022A05D98446B0FBF2F002FB10C27047B1
:101850004AB105D100F0010249085FEA3000704743
:1018600000220023704700F051B80B000200002155
:1018700000207047F7D3002200237047904271EB9D
:10188000030CF2D370B5B1FA81F4B3FA83F52C1BD3
:10189000A340C4F1200532FA05F63343A2405FF0BD
:1018A0000046E64002E05B085FEA3202841A71EB10
:1018B000030524BF204629467641F4D302000B00DD
:1018C0003000002170BD70B5B1FA81F4B2FA82F532
:1018D000C4F120046419B4F12006DAD3B2405FF0F9
:1018E0000044F440002502E052085FEA3303C61AC0
:1018F00071EB020E24BF3046714664416D41F3D353
:1019000002000B002000290070BD0000704700009D
:10191000B0B581EA030C0CF0004C40F2FF7515EAFB
:1019200011541DBF15EA1357AC42AF4239E0E41918
:1019300023EA455343F48013C90241F0004141EAD0
:10194000505EC7021100A7FB020200284FF0000002
:10195000EEFB01204FF00001E3FB072118BF42F02E
:101960000102401800214941E3FB0E01A4F5806407
:101970000F0302D252004041494154F101046CDD91
:10198000470872F1004250F1000051EB0451A1F5FB
:1019900080115CBF41EA0C01B0BD4CEA055100204A
:1019A000B0BD05EA1357AC4214BFAF4241E050EA64
:1019B000410E1CBF52EA430E02E061460020B0BD5A
:1019C00024423C441BD15FEA070EF6D0090302BF54
:1019D00001460020AEF1140EB1FA81F7AEEB070418
:1019E00001FA07FE0C37C7F1200100FA07F7C840DB
:1019F0004EEA000E23EA455343F48013A2E733F086
:101A00000043B3FA83F704BFB2FA82FE77440B3F78
:101A1000E41BB7F1200E2FBF02FA0EF3BB40C7F153
:101A2000200E22FA0EFE38BF43EA0E03BA40641CB1
:101A300082E750EA410E14BF52EA430E6FF00001F4
:101A40004FF4001717EB430F8ABF194617EB410FEE
:101A5000B5E74CEA05510020B0BDD4F10104B4F162
:101A600020070FDAC4F12007520828BF42F0010214
:101A700010FA07F501FA07F7E1BF2A43E0403843BF
:101A8000E1400FE0352C98DCC7F1200452EA400217
:101A900020FA07F218BF42F0010231FA07F0A14024
:101AA0000A43002172F1004250F1000051EB0C0199
:101AB000B0BD000070B44FF0004591EA030F40F153
:101AC000B7806B40841A71EB030604D26E40001B92
:101AD000B141121973414FF4001C1CEB410F34BF8C
:101AE0007CEB430683E00C0DA4EB1356362E00F37B
:101AF0007C80012E45EAC32341DC43EA525312BFE6
:101B0000D20292025B08240545EAC12141EA505104
:101B1000D2EBC020994125D407D1B0FA80F610FA53
:101B200006F162D00020203608E0B1FA81F6B1401B
:101B3000C6F1200220FA02F21143B0404FEAF474D9
:101B4000B4EB465434F001064FEA74040AD8D6F5D3
:101B50000016760D04F00044F04061FA06F25040A1
:101B6000F1404840C00A40EA415021F0004128BFFE
:101B70005FEA500550F1000044EBD12135E0DB0A6B
:101B800045EAC121C90AB6F120050EDD42EA02424A
:101B9000120CC5F1200603FA06F6EB4042EA0605F0
:101BA0006D42984161F100010DE062FA06F5F240E4
:101BB000554063FA06FC82EA0C02F3405A406D423B
:101BC000904161EB030111F4801F05D1641E620591
:101BD00002D06D004041494121F48011430875F164
:101BE000004350F1000041EB045170BC70471CEB06
:101BF000410F15D223F0004352EA43060BD04FEABF
:101C00004C0CBCEB410F04D80C0D661E342EB7DD16
:101C1000EBE7801A994150EA410608BF0021E4E74A
:101C200008BF1CEB430F28BF6FF00001DDE7000089
:101C3000841A71EB030603D2001BB14112197341E0
:101C40004FF4001C1CEB410F34BF7CEB430442E01B
:101C50000C0DA4EB1356352E4FDC45EAC323DB0AEB
:101C600045EAC121C912B6F120050DDD63FA05F67A
:101C7000EB4086EA0305124218BF45F00105C01883
:101C800051F100010CD213E062FA06F5F240554022
:101C9000F3415A40B340F3405A408018594107D3AA
:101CA00049085FEA30005FEA350528BF45F00105C5
:101CB00001F58011420875F1004250F1000041EB3E
:101CC00004514E0016F5001F70BC38BF704700204D
:101CD000090D090570471CEB410F10D252EA43066B
:101CE0000BD0BCEB410F05D80C0DAB43661E342E58
:101CF000B6DD02E0AB438018594170BC704770BC40
:101D0000704700007047FEE7FEE7FEE7FEE770471A
:101D10007047704700F038B838B5134C134D204663
:101D2000FEF793FB2046FEF727FC28602868104D3D
:101D300000F032F80F4A104BFFF7EAFD00220F4B7C
:101D4000FFF7B8FE00F036F8288083B20022102199
:101D50000B48FFF721FC2046BDE83240FEF7DABA17
:101D60000848FEF76EBF000010000020AC00002005
:101D7000B0000020CDCCCCCCCCCCE43F00408440A3
:101D800098000020580000200248416802788A1814
:101D90004260704700000020014648B1B0FA80F16F
:101DA0008840C91CC1F58461090501EBD0214005BB
:101DB00070470000C1F30A5340F2FE329B1A14DD53
:101DC000D3F120034FEAE17208DDC90241EA505124
:101DD00041F00040D84080185040704703F2E13095
:101DE00010B1D24382F000407047002070470000DD
:101DF0000448054A016841F4700101604FF0006039
:101E00001060704788ED00E008ED00E00000000081
:101E100000000000010203040607080910B5074985
:101E200079441831064C7C44163404E00A68081DD5
:101E3000114488470146A142F8D110BD2C00000092
:101E40004C0000004EF68851CEF20001086840F4C4
:101E500070000860BFF34F8FBFF36F8F4FF00070BB
:101E6000E1EE100A70470000CFE9FFFFA400000078
:101E70001000002000000000FFE9FFFF100000003C
:101E800064000000000000200000000000F00DF8D9
:101E9000002801D0FFF7C2FFAFF300800020AFF3AE
:101EA0000080FFF7FFF900F002F80120704700F012
:101EB00001B800000746384600F002F8FBE70000D2
:101EC00080B5AFF30080024A11001820ABBEFBE7DB
:101ED000260002000148804701480047F11D000824
:101EE000F51E0008010000000000000010000000C6
:101EF0000024F400AFF30080FFF7A4FFFFF7C6FF54
:101F0000FFF7FEBFFFF7FEBFFFF7FEBFFFF7FEBF05
:101F1000FFF7FEBFFFF7FEBFFFF7FEBFFFF7FEBFF5
:101F2000FFF7FEBFFFF7FEBFFFF7FEBFFFF7FEBFE5
:101F3000FFF7FEBFFFF7FEBFFFF7FEBFFFF7FEBFD5
:101F4000FFF7FEBFFFF7FEBFFFF7FEBFFFF7FEBFC5
:101F5000FFF7FEBFFFF7FEBFFFF7FEBFFFF7FEBFB5
:101F6000FFF7FEBFFFF7FEBFFFF7FEBFFFF7FEBFA5
:101F7000FFF7FEBFFFF7FEBFFFF7FEBFFFF7FEBF95
:101F8000FFF7FEBFFFF7FEBFFFF7FEBFFFF7FEBF85
:101F9000FFF7FEBFFFF7FEBFFFF7FEBFFFF7FEBF75
:101FA000FFF7FEBFFFF7FEBFFFF7FEBFFFF7FEBF65
:101FB000FFF7FEBFFFF7FEBFFFF7FEBFFFF7FEBF55
:101FC000FFF7FEBFFFF7FEBFFFF7FEBFFFF7FEBF45
:101FD000FFF7FEBFFFF7FEBFFFF7FEBFFFF7FEBF35
:101FE000FFF7FEBFFFF7FEBFFFF7FEBFFFF7FEBF25
:101FF000FFF7FEBFFFF7FEBFFFF7FEBFFFF7FEBF15
:10200000FFF7FEBFFFF7FEBFFFF7FEBFFFF7FEBF04
:10201000FFF7FEBFFFF7FEBFFFF7FEBFFFF7FEBFF4
:10202000FFF7FEBFFFF7FEBFFFF7FEBFFFF7FEBFE4
:10203000FFF7FEBFFFF7FEBFFFF7FEBFFFF7FEBFD4
:10204000FFF7FEBFFFF7FEBFFFF7FEBFFFF7FEBFC4
:10205000FFF7FEBFFFF7FEBFFFF7FEBFFFF7FEBFB4
:0400000508001EF5DC
:00000001FF
