:020000040800F2
:10000000B0040020811F0008051D0008071D00081E
:10001000091D00080B1D00080D1D00080000000050
:100020000000000000000000000000000F1D00089C
:10003000111D000800000000131D0008151D000818
:100040009D1F0008A11F0008A51F0008A91F000888
:10005000AD1F0008B11F0008B51F0008B91F000838
:10006000BD1F0008C11F0008C51F0008C91F0008E8
:10007000CD1F0008D11F0008D51F0008D91F000898
:10008000DD1F0008E11F0008191D0008E51F00081A
:10009000E91F0008ED1F0008F11F0008F51F000808
:1000A000F91F0008FD1F00080120000805200008B6
:1000B000391D0008092000080D2000081120000843
:1000C00015200008192000081D2000082120000824
:1000D00025200008292000082D20000831200008D4
:1000E00035200008392000083D2000084120000884
:1000F00045200008492000084D2000085120000834
:1001000055200008592000085D20000861200008E3
:1001100065200008692000086D2000087120000893
:1001200075200008792000087D2000088120000843
:1001300085200008892000088D20000891200008F3
:1001400095200008992000089D200008A1200008A3
:10015000A5200008A9200008AD200008B120000853
:10016000B5200008B9200008BD200008C120000803
:10017000C5200008C9200008CD20000800000000AC
:10018000D1200008D5200008D9200008DD20000873
:10019000E1200008E5200008E9200008ED20000823
:1001A000F1200008F5200008F920000870B5044689
:1001B00000250CB9012070BD04F13006306920B96A
:1001C000204600F0AFFA756135733069C10600F161
:1001D00092803069DFF8F01420F4885040F002007B
:1001E0003061086820F4403008600A6860680243A3
:1001F0000A602068416821F480714160206841688C
:10020000226941EA022141602068416821F0407181
:10021000416021684A68A06802434A60206881689A
:1002200021F40061816021688A68E06802438A6085
:100230002068A16ADFF894249142816821F07061FE
:1002400081600CD021688A68A06A02438A6000F04D
:100250005BF821688A68E06A02438A6001E000F086
:1002600053F82068816821F0020100F049F8227EED
:1002700041EA4201816094F8200021680028486822
:100280000FD040F4006048602068416821F460416C
:10029000416020684168626A521E41EA4231416011
:1002A00002E020F4006048602068C16A21F4700117
:1002B000C1622068C16AE269521E41EA0251C1620C
:1002C0002068816821F4007100F01AF8327841EA60
:1002D000422100F015F821F4806100F011F8626904
:1002E00041EA822181607561316921F0020141F0AA
:1002F0000101316100E0012500203073284670BD06
:1003000081602068816870472068816821F04051D1
:100310008160704738B500F065F801D1022032BD28
:1003200000F074F837D500F045F846BF906820F02B
:100330000600002000F036F80868DFF88C234368D8
:1003400043F0806343F02003436000F058F818D175
:1003500088420FD0DFF87813884204D1126812F077
:100360001F0F18D106E0DFF86C13884213D100F09C
:1003700014F810D2816811F0405F0CD100F03AF807
:1003800009E0884202BFDFF85003016811F0405FC6
:1003900001D100F022F8002032BD126802F01F02E5
:1003A000102A70479060002313706FF022000A68D3
:1003B000106070475568DFF82403054045F48075E8
:1003C00055605868430505D5506820F4005040F446
:1003D000805050605068C3047047016841F080410C
:1003E000016070470146002001F13C020090137843
:1003F000012B7047816841F0804181607047086837
:100400001368DFF8DC1213F01F0F70470120107023
:1004100008688368DC0714D48368DFF8C84243F0B7
:1004200001038360DFF8C0020368B3FBF4F404EB5C
:100430004404009402E00098401E009000980028B8
:10044000F9D10B689868C407704738B5044620682E
:10045000016802468907506829D5800627D5216C96
:10046000C80603D4216C41F400712164916811F035
:10047000405F04BF207E002812D1D06A10F4700FB4
:1004800002D0916848050BD4506820F020005060DD
:10049000206C20F480702064206CC10400F066F8A9
:1004A000204600F099F921686FF012000860226878
:1004B00011685068490730D500062ED5216CC80652
:1004C00003D4216C41F400512164916811F4401F60
:1004D0001CD1916B11F4401F02D09168480515D4CE
:1004E0005068410512D4916811F0405F04BF207E2E
:1004F00000280BD1506820F080005060206C20F460
:1005000080502064206CC10500F030F8204600F0D7
:1005100081F921686FF00C0008602068026841686A
:10052000D2070FD549060DD50068C1070AD5206C42
:1005300040F480302064204600F06DF921686FF0AF
:100540000100086020680268416892060DD54901E3
:100550000BD5626C42F0020262646FF02005056008
:10056000204600F059F92068056031BD03D4206CA5
:1005700040F00100206470470068C06C704778B597
:1005800002460020009092F83C30012B01D102205D
:1005900072BD012082F83C0007240B6810680A2B0A
:1005A00012D30A3BC56803EB43039C4025EA0404CD
:1005B000C460C3680D688C68A5F10A0606EB4606A0
:1005C000B4402343C3600FE0056903EB430304FA1F
:1005D00003F325EA0303036103690D688C6805EBE7
:1005E0004505AC40234303611F244B68072B0CD205
:1005F0005B1E456B00F059F84463436B4D680C88F3
:100600006E1E00F04DF843631BE00D2B0CD2DB1F78
:10061000056B00F04AF80463036B4D680C88EE1F0D
:1006200000F03EF803630CE00D3BC56A00F03DF8B6
:10063000C462C36A4D680C88A5F10D0600F030F85D
:10064000C362274B984226D10C681F48122C07D151
:10065000036823F400030360046844F48004046026
:100660000B68224CA34218BF112B14D1036823F44A
:1006700080030360056845F4000505600868A04232
:1006800009D11949174C0B68B3FBF4F40A20444311
:10069000009400F010F8002182F83C10002072BD98
:1006A00006EB8606B4402343704703EB83039C406C
:1006B00025EA0404704702E00098401E009000986C
:1006C0000028F9D170470000042301400100000F09
:1006D000002101400022014008200140FEF9FFFFF7
:1006E0000020014040420F002000002012000010B6
:1006F00081B00020009000223348416841F48041DD
:100700004160416801F480410091009900920368C2
:1007100043F080530360006800F080500090009820
:1007200001B0704710B586B004461422002101A81C
:1007300000F073F821682548814227D1002224481F
:100740000092416941F400714161416901F4007115
:100750000091009900920121036843F004030360B3
:100760000322006800F004000090009819480191ED
:1007700002920021039101A900F05AF80022002101
:10078000122000F075F9122000F08FF906B010BDAC
:100790000068B0F1804F00D0704780B500210A4852
:1007A0000091026842F0010202600022006800F03D
:1007B0000100009000981C2000F05AF9BDE80240AA
:1007C0001C2000F072B900004038024000210140B6
:1007D0003038024000080240704730B4002513E072
:1007E00050F8042BD30744BFA9F101039A18091F3D
:1007F000042942F8045BFAD213468C0744BF1580E3
:100800009B1CC90748BF1D7050F8041B0029E7D185
:1008100030BC704770477047704710B504461046AB
:100820000A460146204600F06BF9204610BD000044
:100830002DE9F84F0D4600267349744A0F230446EC
:1008400001202F68B04000EA0708804540F0CB80C7
:100850004FEA460C032707FA0CF76FEA070E6F689A
:10086000012F18BF022F03D0112F18BF122F12D142
:10087000A768D5F80C900EEA070709FA0CF949EABF
:100880000707A760676827EA00006F68C7F30017CB
:10089000B74038436060E068AF680EEA000007FACE
:1008A0000CF73843E060B0006F68022F18BF122FBA
:1008B00012D1F70804EB870700F01C09D7F820A035
:1008C00003FA09FB2AEA0B0AD5F810B00BFA09F96A
:1008D00049EA0A09C7F8209027680EEA070E2F791F
:1008E00007F0030707FA0CF747EA0E0727606F685F
:1008F000FF0078D5002700974FEA960C176847F459
:100900008047176000F00C00176807F480470097D5
:1009100003FA00FE009F3E4F57F82C7027EA0E0E98
:100920003C4FBC4208BF00272CD03B4FBC4208BF05
:10093000012727D0394FBC4208BF022722D0384FA9
:10094000BC4208BF03271DD0364FBC4208BF042756
:1009500018D0354FBC4208BF052713D0334FBC42D7
:1009600008BF06270ED0324FBC4208BF072709D068
:10097000304FBC4208BF082704D02F4FBC420CBFE9
:1009800009270A2707FA00F0214F40EA0E0047F82E
:100990002C006FEA08000F6800EA070C6F68FF037D
:1009A00048BF48EA0C0CC1F800C04F6800EA070CC9
:1009B0006F68BF0348BF48EA0C0CC1F804C08F68D9
:1009C00000EA070C6F68FF0248BF48EA0C0CC1F848
:1009D00008C0CF6800EA070C6868800248BF48EA90
:1009E0000C0CC1F80CC0761C0F2E7FF629AFBDE8A9
:1009F000F18F0069084018BF0120C0B2704702B9EA
:100A00000904816170470000003C01404438024005
:100A10000838014000000240000402400008024083
:100A2000000C024000100240001402400018024076
:100A3000001C024000200240002402400901020084
:100A400002D4294881547047284B02F00F021A44FF
:100A500002F8041C7047264B19684FF6FF0200028B
:100A6000114000F4E06008432249084318607047D1
:100A700070B51F4B1C68C4F302230124C3F10705A2
:100A8000052D2EBF0F2504FA05F56D1E1E1D072E20
:100A900034BF0023DB1E2940994004FA03F3BDE86C
:100AA00070405B1E1A401143C8E7010007D40122C1
:100AB00000F01F01104B8A40400943F82020704786
:100AC00010B5401EB0F1807F01D3012010BD0B4C4A
:100AD00060600F214FF0FF30FFF7B0FF0021A160F1
:100AE00007202060002010BD00E400E018ED00E0C9
:100AF0000CED00E00000FA0500E100E010E000E08D
:100B000062F30F2262F31F42401810F0030308D073
:100B1000C91A1FD3DB0748BF00F8012D28BF20F8F2
:100B2000022D130030B414461546103928BF20E9B1
:100B30003C00FAD8490728BF20E90C0048BF40F81C
:100B4000042D890028BF20F8022D48BF00F8012D90
:100B500030BC7047C91818BF00F8012DCB0728BF5B
:100B600000F8012D7047000038B5040001D10120C4
:100B700032BD00F028F818B900F021F8FFF708FEA0
:100B800013E0022180F83D100268916801F007012E
:100B9000062904D001680A6842F001020A60FFE7F2
:100BA000012180F83D100020704702206870211D4F
:100BB000206800F00DF901206870002032BD00218E
:100BC00029702046704704F13C056878704710B5DD
:100BD0000446206801698A0715D5C1688A0712D5BD
:100BE0006FF00201016101222277806910F0030F8A
:100BF000204602D000F086F903E000F084F900F00E
:100C000087F800202077206801694A0715D5C16858
:100C10004A0712D56FF00401016102222277806930
:100C200010F4407F204602D000F06CF903E000F0A1
:100C30006AF900F06DF800202077206801690A0742
:100C400015D5C1680A0712D56FF0080101610422A9
:100C50002277C06910F0030F204602D000F052F94D
:100C600003E000F050F900F053F8002020772068EE
:100C70000169CA0615D5C168CA0612D56FF0100100
:100C8000016108222277C06910F4407F204602D01B
:100C900000F038F903E000F036F900F039F80020F0
:100CA000207720680169CA0708D5C168CA0705D539
:100CB0006FF001010161204600F026F9206801690A
:100CC0000A0608D5C1680A0605D56FF080010161E2
:100CD000204600F01AF9206801694A0608D5C16863
:100CE0004A0605D56FF040010161204600F00EF97B
:100CF000206801698A060AD5C1688A0607D56FF09F
:100D0000200101612046BDE8104000F000B910BD8F
:100D1000204600F0FDB838B500F04EF801D10220B1
:100D200032BD0120207002226270DFF83C012A6887
:100D30009368034093600868020018BF10282DD004
:100D4000202818BF302829D0402823D0502816D07A
:100D5000602818D0702803D0B0F5005F07D021E0DC
:100D600000F025F82868816841F0770105E000F07F
:100D70001EF82868816841F48041816012E000F02B
:100D800012F850210BE0CA684968286800F093F80F
:100D9000602104E000F007F8402100E001462868E7
:100DA00000F09BF80EE0CA684968286874E0CB68D8
:100DB0004A688968286898E0054605F13C0420786F
:100DC000012870470120607000212170002032BD91
:100DD000F0B5264C0568264B264E274FDFF89CC001
:100DE000A04218BFB0F1804F07D0604518BFB8428D
:100DF00003D0B04218BF98420DD14A6825F0700563
:100E00001543A04218BFB0F1804F17D060451CBFFA
:100E1000B842B04212D098421CBF194A90420DD03D
:100E2000184EB0421CBF184A904207D0174EB0422D
:100E30001FBF174A9042174EB04203D1CA6825F42B
:100E4000407515434A6925F0800515430560A042A9
:100E50008D68C5620A68826212BF9842096901639F
:100E600001224261F0BD00008800FFFF0000014048
:100E700000040140000C0040000800400004004055
:100E8000004001400044014000480140001800407B
:100E9000001C00400020004010B5036A046A64088A
:100EA0006400046223F00A03846924F0F00444EA35
:100EB0000214846123E010B5036A23F01003036277
:100EC0008369046A23F4704343EA023324F0A004E4
:100ED000836144EA0114046210BD826822F070024A
:100EE000114341F007018160704710B5846824F414
:100EF0007F442143114341EA0321816010BD19431E
:100F0000016210BD70477047704770477047704767
:100F10007047000010B500F007F81860002235E0B7
:100F200010B500F001F82FE0B64BB74C0002704747
:100F300080B500220221B448FFF761FD642000F073
:100F40007FF93020FFF7E6FF1E2000F079F930200E
:100F5000FFF7E0FF0A2000F073F93020FFF7DAFF17
:100F60000A2000F06DF93820FFF7D4FF1020FFF7BA
:100F7000D1FF0C20FFF7CEFFBDE802400620C9E7F5
:100F800010B5A04BA04C0020186001220121204682
:100F9000FFF735FD012202212046FFF730FD012039
:100FA00000F04EF92046BDE8104000220221FFF774
:100FB00026BD70B50446FFF7E3FF00250026A05DBF
:100FC00002E02800FBD00020FFF7AAFFA05D00B9D7
:100FD0000125761C102EF4DB70BD000070B586B0C4
:100FE00000F042F9FFF7A4FF93A0884C864D884E8D
:100FF000FFF7DFFFC82000F023F92046FFF7D9FFF5
:1010000000F0B7F800F012F9002000908148016864
:1010100041F080010160026802F08002009200222B
:1010200000990092036843F004030360016801F033
:101030000401009100990092036843F001030360EA
:10104000016801F0010100910099009203210368F9
:1010500043F008030360006800F008000090009867
:101060002846FFF7CCFC00224FF47F413046FFF7C3
:10107000C6FC032100F074F82846FFF7D9FB0420D2
:101080000021019002910391284601A9FFF7D0FBAE
:101090004FF47F4100F064F83046FFF7C9FB10229F
:1010A00000216846FFF7B9FB5B4D5C4828604FF4B0
:1010B00080315B48A8626960012005F1300600229A
:1010C0000121E8616861AA602A61297685F82020FB
:1010D000EA62EA6032702846FFF768F80A200121C8
:1010E000009001910022029269462846FFF747FAD4
:1010F0001022002102A8FFF790FB08220021684679
:10110000FFF78BFB4FF08040B06144F62061F16146
:10111000002030626921B0623063716205F14800DD
:10112000FFF722FD4FF48050029002A905F148001C
:10113000FFF7F1FD00210091019105F1480069469A
:1011400000F0ACF82846FFF7E5F805F14800FFF796
:1011500018FD2046FFF72DFFFA2000F071F8F8E7A0
:10116000019101220292002103910322049201A91C
:10117000704780B592B03022002106A8FFF74DFBE2
:1011800000F054F8002000904FF4803325480168A7
:1011900041F0805101600021006800F08050009013
:1011A000009821480091026842F440420260012206
:1011B000006800F44040009006A8009906920221C1
:1011C0004FF480020C910D920421A8220E910F92EF
:1011D0000221042207931091119200F0A5F8022138
:1011E0000291002203920F204FF4A051019004912C
:1011F0004FF480520592052101A800F01DFA13B0AA
:1012000000BD0000140C0240000002400C00002051
:10121000000C024030380240240000200021014030
:101220000100000F403802400070004014220021ED
:1012300001A8FFF7F2BA00004C41422A000000006A
:1012400038B5044600F0B8FA14F1010F054602D093
:1012500004480178641800F0AFFA401BA042FAD3AA
:1012600031BD00BF0000002080B50B48016841F48B
:1012700000710160026842F480620260016841F41A
:10128000807101600320FFF7E6FB002000F09AFA6E
:10129000FFF72EFA002002BD003C024070B500F1BD
:1012A0003C031A78012A01D1022070BD01221A7074
:1012B00002245C7005686E68AC680A6826F07006E7
:1012C00016436E6002681148824218BFB2F1804F27
:1012D00011D00F4882421CBF0E4DAA420BD00E48BF
:1012E00082421CBF0D4DAA4205D00D4882421CBF50
:1012F0000C4DAA4204D1486824F080040443946051
:10130000012159700020187070BD000000000140DC
:101310000004004000080040000C004000040140B0
:1013200000400140001800402DE9F843040016D0A9
:101330002078DFF8F462C10713D5B06800F00C0024
:10134000042807D0B06800F00C0008283DD1706870
:1013500041023AD53068810303D56068002800F067
:101360005E812078B14F810719D5B06810F00C0F5D
:1013700007D0B06800F00C0008285BD1706841020B
:1013800058D43068810703D5E068012840F04781D0
:101390003168206921F0F80141EAC001316021780B
:1013A000080779D56069A249002868D001220A603F
:1013B00000F002FA0546706F81076DD400F0FCF969
:1013C000401B0228F7D903202CE16068B0F5803F6C
:1013D00004D1306840F48030306011E0B0F5A02FC7
:1013E000306806D140F480203060316841F48031AB
:1013F00005E020F480303060316821F480213160D4
:10140000606858B100F0D8F9054630688103A8D467
:1014100000F0D2F9401B6528F7D3D4E700F0CCF9EF
:101420000546306881039CD500F0C6F9401B65284D
:10143000F7D3C8E7E068A8B10121396000F0BCF932
:1014400005463068810705D400F0B6F9401B022834
:10145000F7D9B8E73068216920F0F80040EAC10008
:1014600030609CE7386000F0A7F9054631688807CE
:1014700095D500F0A1F9401B0228F7D9A3E7086031
:1014800000F09AF90546706F810705D500F094F9D0
:10149000401B0228F7D996E7207841075FD5306CCA
:1014A0000025C1000AD400950125316C41F080511E
:1014B0003164306C00F0805000900098DFF8748147
:1014C000D8F80000C10513D4D8F8000040F48070AB
:1014D000C8F8000000F070F98146D8F80000C10596
:1014E00006D400F069F9A0EB09000228F5D96AE7F3
:1014F000A068012805D00528306F06D140F004000F
:101500003067306F40F0010005E040084000306770
:10151000306F20F00400306741F28938A06860B174
:1015200000F04AF98146306F810713D400F044F986
:10153000A0EB09004045F6D345E700F03DF98146B0
:10154000306F810706D500F037F9A0EB0900404560
:10155000F6D338E71DB1306C20F080503064A069BC
:1015600000285ED0B16801F00C0108293AD00228A9
:101570002AD10020386600F01FF905463068810145
:1015800005D500F019F9401B0228F7D91BE7E069DF
:10159000216A626A0843A16A490840EA8210491E2A
:1015A00040EA0140E16A40EA01607060012038666B
:1015B00000F002F904463068810132D400F0FCF8F2
:1015C000001B0228F7D9FEE60020386600F0F4F888
:1015D00004463068810124D500F0EEF8001B022893
:1015E000F7D9F0E601281AD0B068E26900F480016A
:1015F000914202BF00F03F01226A91420FD147F6AB
:10160000C071626A0140914202BF00F44031A26A97
:10161000914202BF00F07060E16A884201D001206F
:1016200000E00020BDE8F28300380240000047429D
:10163000800E4742007000402DE9F04104000F4643
:1016400054D0404E306800F00F00B84202D200F093
:1016500073F84BD120683C4D810712D5400703D564
:10166000A96841F4E051A9602078010703D5A86872
:1016700040F46040A860A968A06821F0F00101432F
:10168000A9602178C80729D56068012802D1296896
:101690008A0305E0022818BF032803D129688A01BC
:1016A00003D423E029688A0720D5A968890840EA7D
:1016B0008100A86000F080F88046A868616800F0AA
:1016C0000C00B0EB810F09D000F076F8A0EB080019
:1016D00041F289318842F0D303202BE0306800F0DA
:1016E0000F00874204D200F027F801D0012021E04A
:1016F0002078410705D5AA68E06822F4E052024349
:10170000AA602178080706D5A968206921F46041FC
:1017100041EAC001A96000F01FF8AA680B490C4B10
:10172000C2F30312895CC84018600A48006800F0E0
:1017300049F80020BDE8F0813770316801F00F01F1
:10174000B9427047003C024000380240BC1E00080D
:10175000200000200800002030B5144C606800F024
:101760000C00042802D0082802D01DE0104830BD2B
:10177000226820680023410202F03F0204D5256858
:101780000B49C5F3881003E020680A49C0F38810AC
:10179000A1FB000100F036F82168C1F30141491CAA
:1017A0004900B0FBF1F030BD024830BD04380240C2
:1017B00000127A000024F40001484068704700BF1E
:1017C0000000002038B50D4D0D4B2A7804464FF42B
:1017D0007A711868B1FBF2F2B0FBF2F0FFF770F922
:1017E00050B9102C08D2002221464FF0FF30FFF7ED
:1017F0003FF9AC60002032BD012032BD0000002066
:1018000020000020D3BBD9B1B2F5803F5BD2022AC1
:101810001ED98C46B1FBF2F102FB11C31B0443EA53
:101820001043B3FBF2FC02FB1C3380B240EA0343DB
:10183000B3FBF2F002FB103240EA0C400023704789
:10184000022A05D98446B0FBF2F002FB10C27047B1
:101850004AB105D100F0010249085FEA3000704743
:1018600000220023704700F051B80B000200002155
:1018700000207047F7D3002200237047904271EB9D
:10188000030CF2D370B5B1FA81F4B3FA83F52C1BD3
:10189000A340C4F1200532FA05F63343A2405FF0BD
:1018A0000046E64002E05B085FEA3202841A71EB10
:1018B000030524BF204629467641F4D302000B00DD
:1018C0003000002170BD70B5B1FA81F4B2FA82F532
:1018D000C4F120046419B4F12006DAD3B2405FF0F9
:1018E0000044F440002502E052085FEA3303C61AC0
:1018F00071EB020E24BF3046714664416D41F3D353
:1019000002000B002000290070BD0000704700009D
:10191000B0B581EA030C0CF0004C40F2FF7515EAFB
:1019200011541DBF15EA1357AC42AF4239E0E41918
:1019300023EA455343F48013C90241F0004141EAD0
:10194000505EC7021100A7FB020200284FF0000002
:10195000EEFB01204FF00001E3FB072118BF42F02E
:101960000102401800214941E3FB0E01A4F5806407
:101970000F0302D252004041494154F101046CDD91
:10198000470872F1004250F1000051EB0451A1F5FB
:1019900080115CBF41EA0C01B0BD4CEA055100204A
:1019A000B0BD05EA1357AC4214BFAF4241E050EA64
:1019B000410E1CBF52EA430E02E061460020B0BD5A
:1019C00024423C441BD15FEA070EF6D0090302BF54
:1019D00001460020AEF1140EB1FA81F7AEEB070418
:1019E00001FA07FE0C37C7F1200100FA07F7C840DB
:1019F0004EEA000E23EA455343F48013A2E733F086
:101A00000043B3FA83F704BFB2FA82FE77440B3F78
:101A1000E41BB7F1200E2FBF02FA0EF3BB40C7F153
:101A2000200E22FA0EFE38BF43EA0E03BA40641CB1
:101A300082E750EA410E14BF52EA430E6FF00001F4
:101A40004FF4001717EB430F8ABF194617EB410FEE
:101A5000B5E74CEA05510020B0BDD4F10104B4F162
:101A600020070FDAC4F12007520828BF42F0010214
:101A700010FA07F501FA07F7E1BF2A43E0403843BF
:101A8000E1400FE0352C98DCC7F1200452EA400217
:101A900020FA07F218BF42F0010231FA07F0A14024
:101AA0000A43002172F1004250F1000051EB0C0199
:101AB000B0BD000070B44FF0004591EA030F40F153
:101AC000B7806B40841A71EB030604D26E40001B92
:101AD000B141121973414FF4001C1CEB410F34BF8C
:101AE0007CEB430683E00C0DA4EB1356362E00F37B
:101AF0007C80012E45EAC32341DC43EA525312BFE6
:101B0000D20292025B08240545EAC12141EA505104
:101B1000D2EBC020994125D407D1B0FA80F610FA53
:101B200006F162D00020203608E0B1FA81F6B1401B
:101B3000C6F1200220FA02F21143B0404FEAF474D9
:101B4000B4EB465434F001064FEA74040AD8D6F5D3
:101B50000016760D04F00044F04061FA06F25040A1
:101B6000F1404840C00A40EA415021F0004128BFFE
:101B70005FEA500550F1000044EBD12135E0DB0A6B
:101B800045EAC121C90AB6F120050EDD42EA02424A
:101B9000120CC5F1200603FA06F6EB4042EA0605F0
:101BA0006D42984161F100010DE062FA06F5F240E4
:101BB000554063FA06FC82EA0C02F3405A406D423B
:101BC000904161EB030111F4801F05D1641E620591
:101BD00002D06D004041494121F48011430875F164
:101BE000004350F1000041EB045170BC70471CEB06
:101BF000410F15D223F0004352EA43060BD04FEABF
:101C00004C0CBCEB410F04D80C0D661E342EB7DD16
:101C1000EBE7801A994150EA410608BF0021E4E74A
:101C200008BF1CEB430F28BF6FF00001DDE7000089
:101C3000841A71EB030603D2001BB14112197341E0
:101C40004FF4001C1CEB410F34BF7CEB430442E01B
:101C50000C0DA4EB1356352E4FDC45EAC323DB0AEB
:101C600045EAC121C912B6F120050DDD63FA05F67A
:101C7000EB4086EA0305124218BF45F00105C01883
:101C800051F100010CD213E062FA06F5F240554022
:101C9000F3415A40B340F3405A408018594107D3AA
:101CA00049085FEA30005FEA350528BF45F00105C5
:101CB00001F58011420875F1004250F1000041EB3E
:101CC00004514E0016F5001F70BC38BF704700204D
:101CD000090D090570471CEB410F10D252EA43066B
:101CE0000BD0BCEB410F05D80C0DAB43661E342E58
:101CF000B6DD02E0AB438018594170BC704770BC40
:101D0000704700007047FEE7FEE7FEE7FEE770471A
:101D10007047704700F05EB810B5274C2046FEF7BC
:101D20002BFC6421B0FBF1F124481039C16020463E
:101D3000BDE81040FEF789BB38B521481F4CFEF7BF
:101D400046FF04211F48FEF754FE20812089012808
:101D50000FD1E06800F046F81B4A1C4BFFF7D8FD96
:101D600000221B4BFFF7A6FE00F04AF82061462038
:101D700006E094ED030AB8EE400A84ED040A43201D
:101D8000E0700A2294ED040ABDEEC00A10EE100ABB
:101D900081B291FBF2F20A250A2392FBF5F503FBCF
:101DA000152545F0300503FB1211257041F0300177
:101DB0006081617031BD0000240000200C00002013
:101DC0006C00002000000240CDCCCCCCCCCCFC3F41
:101DD000000040400248416802788A18426070471B
:101DE00000000020014648B1B0FA80F18840C91CCB
:101DF000C1F58461090501EBD02140057047000061
:101E000001F000428B1AA3F16051B1F5801F0ADB8B
:101E1000B1F17F6F1FD242EAC102C10071F10041EE
:101E200042EB507070470B15C3F10903212B10D200
:101E3000890241EA905180020128494141F0004164
:101E400021FA03F0C3F12003994071F100415041A0
:101E50007047100070476FF0000013EB103F5CBF3D
:101E6000000E42EAC050704730B5016884684218DD
:101E7000416802EB5103C90703D54C4401E0491CFA
:101E800005D19A420AD012F9011B12F8015B002910
:101E900004F8015BF3D4491EF7D5F2E70C3030BDEE
:101EA0000448054A016841F4700101604FF0006088
:101EB0001060704788ED00E008ED00E000000000D1
:101EC00000000000010203040607080910B50749D5
:101ED00079441831064C7C44163404E00A68081D25
:101EE000114488470146A142F8D110BD2C000000E2
:101EF000480000004EF68851CEF20001086840F418
:101F000070000860BFF34F8FBFF36F8F4FF000700A
:101F1000E1EE100A70470000C3E8FFFF88000000F0
:101F2000240000200000000041FFFFFFD00100005E
:101F3000260000000000002000F00DF8002801D06D
:101F4000FFF7C4FFAFF300800020AFF30080FFF77E
:101F500045F800F002F80120704700F001B80000D9
:101F60000746384600F002F8FBE7000080B5AFF303
:101F70000080024A11001820ABBEFBE726000200D9
:101F80000148804701480047A11E0008911F000832
:101F9000AFF30080FFF7AEFFFFF7CEFFFFF7FEBF06
:101FA000FFF7FEBFFFF7FEBFFFF7FEBFFFF7FEBF65
:101FB000FFF7FEBFFFF7FEBFFFF7FEBFFFF7FEBF55
:101FC000FFF7FEBFFFF7FEBFFFF7FEBFFFF7FEBF45
:101FD000FFF7FEBFFFF7FEBFFFF7FEBFFFF7FEBF35
:101FE000FFF7FEBFFFF7FEBFFFF7FEBFFFF7FEBF25
:101FF000FFF7FEBFFFF7FEBFFFF7FEBFFFF7FEBF15
:10200000FFF7FEBFFFF7FEBFFFF7FEBFFFF7FEBF04
:10201000FFF7FEBFFFF7FEBFFFF7FEBFFFF7FEBFF4
:10202000FFF7FEBFFFF7FEBFFFF7FEBFFFF7FEBFE4
:10203000FFF7FEBFFFF7FEBFFFF7FEBFFFF7FEBFD4
:10204000FFF7FEBFFFF7FEBFFFF7FEBFFFF7FEBFC4
:10205000FFF7FEBFFFF7FEBFFFF7FEBFFFF7FEBFB4
:10206000FFF7FEBFFFF7FEBFFFF7FEBFFFF7FEBFA4
:10207000FFF7FEBFFFF7FEBFFFF7FEBFFFF7FEBF94
:10208000FFF7FEBFFFF7FEBFFFF7FEBFFFF7FEBF84
:10209000FFF7FEBFFFF7FEBFFFF7FEBFFFF7FEBF74
:1020A000FFF7FEBFFFF7FEBFFFF7FEBFFFF7FEBF64
:1020B000FFF7FEBFFFF7FEBFFFF7FEBFFFF7FEBF54
:1020C000FFF7FEBFFFF7FEBFFFF7FEBFFFF7FEBF44
:1020D000FFF7FEBFFFF7FEBFFFF7FEBFFFF7FEBF34
:1020E000FFF7FEBFFFF7FEBFFFF7FEBFFFF7FEBF24
:1020F000FFF7FEBFFFF7FEBFFFF7FEBF0001F900CD
:0F2100000010FD00033030DF43EF000224F40035
:0400000508001F913F
:00000001FF
