:020000040800F2
:10000000A0050020F91B00087D1900087F190008D1
:1000100081190008831900088519000800000000F4
:100020000000000000000000000000008719000828
:1000300089190008000000008B1900088D190008BC
:10004000251C0008291C00082D1C0008311C000874
:10005000351C0008391C00083D1C0008411C000824
:10006000451C0008491C00084D1C0008511C0008D4
:10007000551C0008591C00085D1C0008611C000884
:10008000651C0008691C00086D1C0008711C000834
:10009000751C0008791C00087D1C0008811C0008E4
:1000A000851C0008891C00088D1C0008911C000894
:1000B00091190008E1190008951A0008951C00081C
:1000C000991C00089D1C0008A11C0008A51C000824
:1000D000A91C0008AD1C0008B11C0008B51C0008D4
:1000E000B91C0008BD1C0008C11C0008C51C000884
:1000F000C91C0008CD1C0008D11C0008D51C000834
:10010000D91C0008DD1C0008E11C0008E51C0008E3
:10011000E91C0008ED1C0008F11C0008F51C000893
:10012000F91C0008FD1C0008011D0008051D000841
:10013000091D00080D1D0008111D0008151D0008EF
:10014000191D00081D1D0008211D0008251D00089F
:10015000291D00082D1D0008311D0008351D00084F
:10016000391D00083D1D0008411D0008451D0008FF
:10017000491D00084D1D0008511D00080000000029
:10018000551D0008591D00085D1D0008611D00086F
:10019000651D0008691D00086D1D0008711D00081F
:1001A000751D0008791D00087D1D000838B5040084
:1001B00001D1012032BD00F051F818B900F04AF821
:1001C00000F0F8FB0BE038B5040001D1012032BD8E
:1001D00000F044F818B900F03DF800F0BBFC022034
:1001E0006870211D206800F016FA01206870002058
:1001F00032BD03D1416C41F400414164816801F09A
:100200000701062903D0016841F0010101600020C7
:1002100010BD10B500F007F800F00AF81CBFDFF8B9
:1002200050209042E5E704460122206800F07DBBA3
:100230002068DFF840108842704738B5040001D1CB
:10024000012032BD00F00AF818B900F003F800F000
:1002500082FCC4E7002129702046704704F13C0568
:100260006878704710B5FFF7DEFF2068C6E700002A
:10027000000401400000014010B5044620680169F7
:100280008A0715D5C1688A0712D56FF0020101618E
:1002900001222277806910F0030F204602D000F07F
:1002A0005BFC03E000F059FC00F087F800202077A9
:1002B000206801694A0715D5C1684A0712D56FF051
:1002C0000401016102222277806910F4407F2046F8
:1002D00002D000F041FC03E000F03FFC00F06DF8BC
:1002E00000202077206801690A0715D5C1680A0730
:1002F00012D56FF00801016104222277C06910F065
:10030000030F204602D000F027FC03E000F025FC9C
:1003100000F053F80020207720680169CA0615D53F
:10032000C168CA0612D56FF0100101610822227758
:10033000C06910F4407F204602D000F00DFC03E0BD
:1003400000F00BFC00F039F80020207720680169EC
:10035000CA0708D5C168CA0705D56FF00101016158
:10036000204600F0FBFB206801690A0608D5C16839
:100370000A0605D56FF080010161204600F0EFFB11
:10038000206801694A0608D5C1684A0605D56FF09C
:1003900040010161204600F0E3FB206801698A0604
:1003A0000AD5C1688A0607D56FF020010161204691
:1003B000BDE8104000F0D5BB10BD204600F0D2BB18
:1003C00038B500F13C042378012B01D1022032BD65
:1003D00001232370022565704AB1042A0BD0082A34
:1003E0000DD00C2A04BF006800F0EBF90AE00068A9
:1003F00000F05CF906E0006800F084F902E00068B3
:1004000000F0B0F900F0EBB8F8B500F07FF801D1DA
:100410000220F2BD00F087F882B9EB686A682968AB
:10042000306800F0F1F93068816921F00C018161D8
:1004300031688A69A86802438A615CE0042A10D1A5
:10044000EB686A682968306800F035FA30688169BD
:1004500021F4406100F056F8AA6841EA0221816166
:1004600049E0082AE9686A682B6823D13768386A46
:1004700020F4807038621B0207F11C0003F4206333
:10048000D0F800C0D7F820E04FEA9C0C42EA8C027A
:1004900061F3071202602EF4206003433B62306870
:1004A000C16921F00C01C1613168CA69A8680243C1
:1004B000CA6120E030681C301B03476827F480576E
:1004C000476003F420430768D0F804C027F440775E
:1004D00047EA022761F30F372CF4204107600B43F2
:1004E00043603068C16921F4406100F007F8AA68F0
:1004F00041EA0221C16100F010F8F2BDC16130682B
:10050000C16970478161306881697047064606F1AC
:100510003C040D46207801287047012060700021BE
:100520002170002070470120207002216170704707
:1005300038B500F04EF801D1022032BD0120207004
:1005400002226270DFF820032A68936803409360F8
:100550000868020018BF10282DD0202818BF3028A6
:1005600029D0402823D0502816D0602818D07028D1
:1005700003D0B0F5005F07D021E000F025F828682F
:10058000816841F0770105E000F01EF82868816875
:1005900041F48041816012E000F012F850210BE03C
:1005A000CA684968286800F09CF9602104E000F0FE
:1005B00007F8402100E00146286800F0A4F90EE0A9
:1005C000CA684968286867E1CB684A68896828680A
:1005D000A1E1054605F13C0420780128704701207F
:1005E000607000212170002032BD0246002031B130
:1005F000042907D0082908D00C2909D070471068B1
:10060000406B70471068806B70471068C06B704714
:100610001068006C7047F0B5944C0568944B954E8B
:10062000954FDFF858C2A04218BFB0F1804F07D0F5
:10063000604518BFB84203D0B04218BF98420DD1F0
:100640004A6825F070051543A04218BFB0F1804FED
:1006500017D060451CBFB842B04212D098421CBFB0
:10066000874A90420DD0874EB0421CBF864A9042C6
:1006700007D0864EB0421FBF854A9042854EB04299
:1006800003D1CA6825F4407515434A6925F08005F1
:1006900015430560A0428D68C5620A68826212BF78
:1006A00098420969016301224261F0BDF0B5026A16
:1006B0006E4F520852000262066A446885690B68F0
:1006C0008A6825F0730526F002061D431643684B21
:1006D000B84218BF984207D1CA6826F008061643E8
:1006E000B84226F0040601D0984205D14B698A69C8
:1006F00024F440741C431443446085614968416399
:100700000662F0BDF0B5026A584E22F01002026295
:10071000B042056A436884690A6824F4E64444EAFE
:1007200002248A6825F0200545EA0215504A18BFC0
:10073000904208D1CF6825F0800545EA0715B04200
:1007400025F0400501D0904206D14E698A6923F414
:100750004063164343EA86034360846149688163CA
:100760000562F0BDF0B5026A22F480720262056A89
:100770004368C4698E680A6825F4007524F0730420
:1007800045EA06251443394E394AB04218BF904213
:1007900008D1CF6825F4006545EA0725B04225F465
:1007A000806501D0904206D14E698A6923F4405396
:1007B000164343EA06134360C4614968C163056296
:1007C000F0BD70B5026A294E22F480520262B04236
:1007D000046A4268C3690D6823F4E64343EA0523CB
:1007E0008D6824F4005444EA05341CBF204DA8420F
:1007F00004D14D6922F4804242EA85124260C3610D
:1008000049680164046270BDF0B5046A174E64085B
:1008100064000462B0428469056A18BFB0F1804F79
:1008200011D0164EB0421CBF134FB8420BD0114E20
:10083000B0421CBF0E4FB84205D0114EB0421CBF93
:10084000124FB84203D1A40842EA840201E044F006
:10085000010263F3071225F00A0501F00A01826123
:1008600029430162F0BD00008800FFFF0000014045
:1008700000040140000C004000080040000400405B
:100880000040014000440140004801400018004081
:10089000001C00400020004010B5036A046A640890
:1008A0006400046223F00A03846924F0F00444EA3B
:1008B0000214846144E030B5046A24F01004046238
:1008C00009018469056A24F4407444EA022463F34C
:1008D0000F3425F0A00501F0A001846129430162D5
:1008E00030BD10B5036A23F0100303628369046A04
:1008F00023F4704343EA023324F0A004836144EA02
:100900000114046210BD826822F07002114341F0AC
:1009100007018160704710B5846824F47F44214347
:10092000114341EA0321816010BD10B501F01F01A0
:10093000036A01248C40A343036202FA01F1036AB3
:100940001943016210BD30B4002513E050F8042BA8
:10095000D30744BFA9F101039A18091F042942F8DB
:10096000045BFAD213468C0744BF15809B1CC90751
:1009700048BF1D7050F8041B0029E7D130BC7047F8
:1009800081B00020009000226B48416841F4804112
:100990004160416801F48041009100990092036830
:1009A00043F080530360006800F08050009000988E
:1009B00001B0704710B586B0044614220021684685
:1009C00000F0D1F822685D485D49B2F1804F19D13D
:1009D000002205920B6943F001030B6100230A69B1
:1009E00002F001020592059A0593202200F06CF8AE
:1009F000012200F064F8002200211C2000F0EEF833
:100A00001C2049E04F4B9A4219D1002205920B69F4
:100A100043F002030B6100230A6902F0020205920F
:100A2000059A0593402200F04FF8022200F047F8A3
:100A3000002200211D2000F0D1F81D202CE04248AA
:100A400082422CD100220592086940F0040008611E
:100A5000086900F0040005900598059202220B68D1
:100A600043F008030B60086800F0080005904FF49D
:100A7000805105983548009101920021029103228E
:100A8000022104910392694600F0F0F8002200214F
:100A90001E2000F0A3F81E2000F0BDF80DE02C4849
:100AA00082420AD100220592086940F008000861DC
:100AB000086900F008000590059806B010BD039382
:100AC0000492694600F0D2B80C6844F001040C604E
:100AD0000223096801F00101059105990092019333
:100AE000002202920323704710B586B004461422F8
:100AF000002101A800F037F821681548814219D17A
:100B000000220F4800920222016841F001010160B9
:100B10000721006800F0010000900098074801914B
:100B2000029200210391032202210591049201A95E
:100B300000F09CF806B010BD4038024000000240B2
:100B4000303802400004004000080040000C024021
:100B5000000C0040704770477047704770477047FF
:100B600070477047704710B5044610460A46014664
:100B7000204600F07BF9204610BD30B40EE002683C
:100B8000436802440830DC0744BFA9F10104E318BC
:100B900052F8045B43F8045B091FF9D150F8041BB9
:100BA0000029ECD130BC70470901020002D4294869
:100BB00081547047284B02F00F021A4402F8041CBB
:100BC0007047264B19684FF6FF020002114000F4EF
:100BD000E0600843224908431860704770B51F4B16
:100BE0001C68C4F302230124C3F10705052D2EBFA1
:100BF0000F2504FA05F56D1E1E1D072E34BF0023B8
:100C0000DB1E2940994004FA03F3BDE870405B1EE7
:100C10001A401143C8E7010007D4012200F01F0168
:100C2000104B8A40400943F82020704710B5401E01
:100C3000B0F1807F01D3012010BD0B4C60600F210B
:100C40004FF0FF30FFF7B0FF0021A16007202060C8
:100C5000002010BD00E400E018ED00E00CED00E025
:100C60000000FA0500E100E010E000E02DE9F84F97
:100C70000D4600267049714A0F23044601202F6853
:100C8000B04000EA0708804540F0CB804FEA460CB0
:100C9000032707FA0CF76FEA070E6F68012F18BFDA
:100CA000022F03D0112F18BF122F12D1A768D5F829
:100CB0000C900EEA070709FA0CF949EA0707A76042
:100CC000676827EA00006F68C7F30017B74038432A
:100CD0006060E068AF680EEA000007FA0CF738437E
:100CE000E060B0006F68022F18BF122F12D1F70812
:100CF00004EB870700F01C09D7F820A003FA09FBD2
:100D00002AEA0B0AD5F810B00BFA09F949EA0A09E0
:100D1000C7F8209027680EEA070E2F7907F003071F
:100D200007FA0CF747EA0E0727606F68FF0078D5CF
:100D3000002700974FEA960C176847F48047176022
:100D400000F00C00176807F48047009703FA00FED4
:100D5000009F3B4F57F82C7027EA0E0E394FBC42CC
:100D600008BF00272CD0384FBC4208BF012727D02E
:100D7000364FBC4208BF022722D0354FBC4208BFC5
:100D800003271DD0334FBC4208BF042718D0324F71
:100D9000BC4208BF052713D0304FBC4208BF06270E
:100DA0000ED02F4FBC4208BF072709D02D4FBC42A1
:100DB00008BF082704D02C4FBC420CBF09270A27C4
:100DC00007FA00F01E4F40EA0E0047F82C006FEAC9
:100DD00008000F6800EA070C6F68FF0348BF48EA85
:100DE0000C0CC1F800C04F6800EA070C6F68BF0325
:100DF00048BF48EA0C0CC1F804C08F6800EA070C31
:100E00006F68FF0248BF48EA0C0CC1F808C0CF6801
:100E100000EA070C6868800248BF48EA0C0CC1F879
:100E20000CC0761C0F2E7FF629AFBDE8F18F02B9FA
:100E30000904816170470000003C014044380240D1
:100E4000083801400000024000040240000802404F
:100E5000000C024000100240001402400018024042
:100E6000001C0240002002400024024062F30F22D6
:100E700062F31F42401810F0030308D0C91A1FD3B1
:100E8000DB0748BF00F8012D28BF20F8022D130012
:100E900030B414461546103928BF20E93C00FAD872
:100EA000490728BF20E90C0048BF40F8042D8900FD
:100EB00028BF20F8022D48BF00F8012D30BC704734
:100EC000C91818BF00F8012DCB0728BF00F8012D65
:100ED000704700002DE9F8418DB000F0E7F900F00F
:100EE00081F900F0DDF9002000904FF48056E048D1
:100EF000DFF880830168E04D41F0200101604FF68A
:100F0000FF74026802F02002009200220099009211
:100F1000036843F080030360016801F080010091E1
:100F200000990092036843F001030360016801F037
:100F300001010091009900920E21036843F008031B
:100F40000360006800F008000090009800F01BF9B2
:100F50000E210191012202920021039103220492A9
:100F600001A94046FFF782FE00F032F900F02BF9AC
:100F700000F024F94FF08040286000214FF0FF304E
:100F8000E8606960A9602961A9612846FFF70EF948
:100F9000069606A92846FFF7CBFA2846FFF74DF933
:100FA00000F0F4F8284600F0E5F800F0F8F82846DC
:100FB000FFF72AFA00F00CF900F005F900F0FEF84E
:100FC000AE48286400216964A964EC642965A965B8
:100FD00005F14000FFF7EAF8069606A905F1400082
:100FE000FFF7A6FA05F14000FFF727F900F0CEF869
:100FF00005F1400000F0BEF800F0D1F805F1400026
:10100000FFF702FA00F0E4F800F0DDF800F0D6F89F
:1010100005F184079A48C5F880000021396079609D
:10102000BC60F960796105F180042046FFF7BEF8E5
:10103000069606A92046FFF77BFA2046FFF7FDF843
:1010400000F0A4F8204600F095F800F0A8F820463B
:10105000FFF7DAF91022002109A8FFF784FD00F05C
:10106000B2F81C2200F0ABF88648F863002139641E
:10107000002085497864B964F864786505F1C00793
:101080003846FFF793F8099609A93846FFF750FA52
:101090003846FFF798F800F079F8384600F06AF81B
:1010A00040F633020392002102910491002206923D
:1010B00000F063F8042200F060F8082200F05DF808
:1010C0003846FFF711FD00212846FFF7CBF8002135
:1010D00005F14000FFF7C6F800212046FFF7C2F8EF
:1010E00000213846FFF795F804213846FFF791F8BC
:1010F00008213846FFF78DF800F06FF800F059F836
:1011000000F03FF8614D624E624F13E00122022170
:1011100000F039F80022042100F035F800F03AF828
:101120004FF4FA6000F0DCF800F057F800F041F8F6
:1011300000F027F8D7E90001002901D83328E5D3CA
:10114000D6E90023002B98BF332A03D200F045F8DC
:101150000122E0E7D5E900010029FBD83328F9D2C4
:1011600000F03BF800F025F800F014F800200EB075
:10117000BDE8F081694600F0C7B802A93846FFF71C
:101180001FB9012208214046FFF751BE00210091FE
:1011900001917047002208214046FFF748BE0A210E
:1011A000029101220392002104910022059202A9DA
:1011B0007047002204214046FFF739BE102200216B
:1011C00002A8FFF7D0BC082200216846FFF7CBBC7D
:1011D0001022002106A8FFF7C6BC002202214046CB
:1011E000FFF725BE80B592B03022FFF7F2FF00F086
:1011F00057F8002000904FF480332748016841F0F1
:10120000805101600021006800F08050009000983B
:1012100022480091026842F44042026001220068C4
:1012200000F44040009006A80099069202214FF475
:1012300080020C910D920421A8220E910F9202219E
:10124000042207931091119200F0A4F80221029158
:10125000002203920F204FF4A051019004914FF40B
:1012600080520592052101A800F01CFA13B000BDC0
:1012700030380240001402401000002000040040FA
:1012800000080040000C0040DF7E46007001002096
:101290004001002010010020403802400070004052
:1012A0001422002101A8FFF75EBC000080B50B48A6
:1012B000016841F400710160026842F480620260DA
:1012C000016841F4807101600320FFF77AFC00207F
:1012D00000F0A8FAFFF754FB002002BD003C0240DA
:1012E00038B5044600F0BEFA14F1010F054602D0ED
:1012F00004480178641800F0B5FA401BA042FAD304
:1013000031BD00BF0000002070B500F13C031A7829
:10131000012A01D1022070BD01221A7002245C70E2
:1013200005686E68AC680A6826F0700616436E6041
:1013300002681148824218BFB2F1804F11D00F48A5
:1013400082421CBF0E4DAA420BD00E4882421CBFE7
:101350000D4DAA4205D00D4882421CBF0C4DAA4239
:1013600004D1486824F0800404439460012159703A
:101370000020187070BD0000000001400004004013
:1013800000080040000C0040000401400040014003
:10139000001800402DE9F843040016D02078DFF84B
:1013A000F462C10713D5B06800F00C00042807D020
:1013B000B06800F00C0008283DD1706841023AD5B1
:1013C0003068810303D56068002800F05E812078D2
:1013D000B14F810719D5B06810F00C0F07D0B06875
:1013E00000F00C0008285BD17068410258D43068C6
:1013F000810703D5E068012840F047813168206902
:1014000021F0F80141EAC00131602178080779D55F
:101410006069A249002868D001220A6000F022FA1F
:101420000546706F81076DD400F01CFA401B02283E
:10143000F7D903202CE16068B0F5803F04D1306813
:1014400040F48030306011E0B0F5A02F306806D154
:1014500040F480203060316841F4803105E020F4B0
:1014600080303060316821F480213160606858B18B
:1014700000F0F8F9054630688103A8D400F0F2F9CD
:10148000401B6528F7D3D4E700F0ECF90546306837
:1014900081039CD500F0E6F9401B6528F7D3C8E727
:1014A000E068A8B10121396000F0DCF90546306838
:1014B000810705D400F0D6F9401B0228F7D9B8E718
:1014C0003068216920F0F80040EAC10030609CE7F4
:1014D000386000F0C7F905463168880795D500F0F7
:1014E000C1F9401B0228F7D9A3E7086000F0BAF958
:1014F0000546706F810705D500F0B4F9401B02283E
:10150000F7D996E7207841075FD5306C0025C100F8
:101510000AD400950125316C41F080513164306C62
:1015200000F0805000900098DFF87481D8F8000037
:10153000C10513D4D8F8000040F48070C8F800004A
:1015400000F090F98146D8F80000C10506D400F0FB
:1015500089F9A0EB09000228F5D96AE7A0680128FB
:1015600005D00528306F06D140F004003067306F99
:1015700040F0010005E0400840003067306F20F087
:101580000400306741F28938A06860B100F06AF960
:101590008146306F810713D400F064F9A0EB090095
:1015A0004045F6D345E700F05DF98146306F81078D
:1015B00006D500F057F9A0EB09004045F6D338E70F
:1015C0001DB1306C20F080503064A06900285ED0DE
:1015D000B16801F00C0108293AD002282AD1002074
:1015E000386600F03FF905463068810105D500F006
:1015F00039F9401B0228F7D91BE7E069216A626AC2
:101600000843A16A490840EA8210491E40EA0140A5
:10161000E16A40EA016070600120386600F022F95A
:1016200004463068810132D400F01CF9001B022806
:10163000F7D9FEE60020386600F014F90446306859
:10164000810124D500F00EF9001B0228F7D9F0E63D
:1016500001281AD0B068E26900F48001914202BF0B
:1016600000F03F01226A91420FD147F6C071626AD1
:101670000140914202BF00F44031A26A914202BF90
:1016800000F07060E16A884201D0012000E0002093
:10169000BDE8F2830038024000004742800E474216
:1016A000007000402DE9F04104000F4654D0404E38
:1016B000306800F00F00B84202D200F073F84BD14E
:1016C00020683C4D810712D5400703D5A96841F435
:1016D000E051A9602078010703D5A86840F4604074
:1016E000A860A968A06821F0F0010143A9602178F1
:1016F000C80729D56068012802D129688A0305E056
:10170000022818BF032803D129688A0103D423E0E3
:1017100029688A0720D5A968890840EA8100A8605D
:1017200000F0A0F88046A868616800F00C00B0EBFB
:10173000810F09D000F096F8A0EB080041F2893142
:101740008842F0D303202BE0306800F00F0087427E
:1017500004D200F027F801D0012021E020784107D1
:1017600005D5AA68E06822F4E0520243AA60217815
:10177000080706D5A968206921F4604141EAC00143
:10178000A96000F01FF8AA680B490C4BC2F30312C2
:10179000895CC84018600A48006800F043F80020DF
:1017A000BDE8F0813770316801F00F01B942704730
:1017B000003C024000380240301B00080C000020B2
:1017C0000800002030B5144C606800F00C000428BC
:1017D00002D0082802D01DE0104830BD22682068E1
:1017E0000023410202F03F0204D525680B49C5F3EE
:1017F000881003E020680A49C0F38810A1FB0001AB
:1018000000F036F82168C1F30141491C4900B0FBE2
:10181000F1F030BD024830BD0438024000127A00B9
:101820000024F40038B50D4D0D4B2A7804464FF4D2
:101830007A711868B1FBF2F2B0FBF2F0FFF7F6F93B
:1018400050B9102C08D2002221464FF0FF30FFF78C
:10185000C5F9AC60002032BD012032BD000000207F
:101860000C00002001484068704700BF00000020C5
:10187000D3BBD9B1B2F5803F5BD2022A1ED98C46C8
:10188000B1FBF2F102FB11C31B0443EA1043B3FBAB
:10189000F2FC02FB1C3380B240EA0343B3FBF2F0DC
:1018A00002FB103240EA0C4000237047022A05D99F
:1018B0008446B0FBF2F002FB10C270474AB105D17A
:1018C00000F0010249085FEA30007047002200235F
:1018D000704700F051B80B00020000210020704753
:1018E000F7D3002200237047904271EB030CF2D330
:1018F00070B5B1FA81F4B3FA83F52C1BA340C4F19F
:10190000200532FA05F63343A2405FF00046E64078
:1019100002E05B085FEA3202841A71EB030524BF20
:10192000204629467641F4D302000B003000002106
:1019300070BD70B5B1FA81F4B2FA82F5C4F1200439
:101940006419B4F12006DAD3B2405FF00044F440E9
:10195000002502E052085FEA3303C61A71EB020E5B
:1019600024BF3046714664416D41F3D302000B0041
:101970002000290070BD0000704700007047FEE79E
:10198000FEE7FEE7FEE770477047704700F0BAB821
:1019900070B5544D544C2846FEF76EFCD4E9060150
:1019A000002908BF002800D16AE0012200239942E3
:1019B00008BF904213D100F047F800F04FF805D867
:1019C00028BF904202D200F043F802E00020C4E9B0
:1019D000080000F04CF800F031F800F029F870BD74
:1019E00070B5424D424C2846FEF746FCD4E906014C
:1019F000002908BF002800D142E0012200239942BB
:101A000008BF904213D100F01FF800F027F805D866
:101A100028BF904202D200F01BF802E00020C4E987
:101A2000080000F024F800F009F800F001F870BD9B
:101A30000022C4E90001C4E906227047C4E90A0192
:101A40003A220023FFF714BF00212846FEF7CDBD40
:101A5000101A63EB0101C4E9080170470021C4E9D1
:101A60000401D4E90423D4E9020199427047214DCD
:101A7000214A2E68D4E90801B6FBF2F2FFF7F8BE5E
:101A80002846FEF7B2FD0021C4E902010120C4E9A5
:101A9000060170BD70B5194D194C2846FEF7ECFBD8
:101AA000D4E90601002908BF002800D1E8E7012297
:101AB0000023994208BF904213D1FFF7C5FFFFF7FB
:101AC000CDFF05D828BF904202D2FFF7C1FF02E048
:101AD0000020C4E90800FFF7CAFFFFF7AFFFFFF7D8
:101AE000A7FF70BD10000020100100205000002052
:101AF000400100200C00002080841E009000002087
:101B0000700100200248416802788A1842607047DC
:101B1000000000200448054A016841F4700101609A
:101B20004FF000601060704788ED00E008ED00E0C5
:101B3000000000000000000001020304060708097D
:101B400010B5074979441831064C7C44163404E03A
:101B50000A68081D114488470146A142F8D110BD0A
:101B60002C0000004C0000004EF68851CEF200011F
:101B7000086840F470000860BFF34F8FBFF36F8FA9
:101B80004FF00070E1EE100A70470000BBEDFFFF60
:101B9000900100001000002000000000DFEFFFFFB8
:101BA00010000000640000000000002000000000A1
:101BB00000F00DF8002801D0FFF7C2FFAFF300805E
:101BC0000020AFF30080FFF785F900F002F8012054
:101BD000704700F001B800000746384600F002F8F0
:101BE000FBE7000080B5AFF30080024A1100182027
:101BF000ABBEFBE7260002000148804701480047D2
:101C0000151B0008191C000801000000000000005E
:101C1000100000000024F400AFF30080FFF7A4FFE1
:101C2000FFF7C6FFFFF7FEBFFFF7FEBFFFF7FEBFE0
:101C3000FFF7FEBFFFF7FEBFFFF7FEBFFFF7FEBFD8
:101C4000FFF7FEBFFFF7FEBFFFF7FEBFFFF7FEBFC8
:101C5000FFF7FEBFFFF7FEBFFFF7FEBFFFF7FEBFB8
:101C6000FFF7FEBFFFF7FEBFFFF7FEBFFFF7FEBFA8
:101C7000FFF7FEBFFFF7FEBFFFF7FEBFFFF7FEBF98
:101C8000FFF7FEBFFFF7FEBFFFF7FEBFFFF7FEBF88
:101C9000FFF7FEBFFFF7FEBFFFF7FEBFFFF7FEBF78
:101CA000FFF7FEBFFFF7FEBFFFF7FEBFFFF7FEBF68
:101CB000FFF7FEBFFFF7FEBFFFF7FEBFFFF7FEBF58
:101CC000FFF7FEBFFFF7FEBFFFF7FEBFFFF7FEBF48
:101CD000FFF7FEBFFFF7FEBFFFF7FEBFFFF7FEBF38
:101CE000FFF7FEBFFFF7FEBFFFF7FEBFFFF7FEBF28
:101CF000FFF7FEBFFFF7FEBFFFF7FEBFFFF7FEBF18
:101D0000FFF7FEBFFFF7FEBFFFF7FEBFFFF7FEBF07
:101D1000FFF7FEBFFFF7FEBFFFF7FEBFFFF7FEBFF7
:101D2000FFF7FEBFFFF7FEBFFFF7FEBFFFF7FEBFE7
:101D3000FFF7FEBFFFF7FEBFFFF7FEBFFFF7FEBFD7
:101D4000FFF7FEBFFFF7FEBFFFF7FEBFFFF7FEBFC7
:101D5000FFF7FEBFFFF7FEBFFFF7FEBFFFF7FEBFB7
:101D6000FFF7FEBFFFF7FEBFFFF7FEBFFFF7FEBFA7
:101D7000FFF7FEBFFFF7FEBFFFF7FEBFFFF7FEBF97
:0400000508001C19BA
:00000001FF
