:020000040800F2
:1000000098040020B9160008091500080B1500080F
:100010000D1500080F15000811150008000000005C
:1000200000000000000000000000000013150008A0
:100030001515000800000000171500081915000824
:10004000E5160008E9160008ED160008F11600088C
:10005000F5160008F9160008FD160008011700083B
:1000600005170008091700080D17000811170008E8
:1000700015170008191700081D1700082117000898
:1000800025170008291700082D1700083117000848
:1000900035170008391700083D17000841170008F8
:1000A00045170008491700084D17000851170008A8
:1000B000551700081D15000881150008591700087C
:1000C0005D17000861170008651700086917000828
:1000D0006D170008711700087517000879170008D8
:1000E0007D17000881170008851700088917000888
:1000F0008D17000891170008951700089917000838
:100100009D170008A1170008A5170008A9170008E7
:10011000AD170008B1170008B5170008B917000897
:10012000BD170008C1170008C5170008C917000847
:10013000CD170008D1170008D5170008D9170008F7
:10014000DD170008E1170008E5170008E9170008A7
:10015000ED170008F1170008F5170008F917000857
:10016000FD17000801180008051800080918000804
:100170000D180008111800081518000800000000EC
:10018000191800081D180008211800082518000873
:10019000291800082D180008311800083518000823
:1001A000391800083D1800084118000838B5040047
:1001B00001D1012032BD00F074F818B900F06DF8DB
:1001C00000F026FB1FE0022180F83D1002689168D4
:1001D00001F00701062904D001680A6842F0010213
:1001E0000A60FFE7012180F83D100020704738B514
:1001F000040001D1012032BD00F053F818B900F01D
:100200004CF800F069FB02206870211D206800F0A6
:1002100076F901206870002032BD10B500F01BF89F
:1002200000F014F81CBFDFF88420904203D1416C29
:1002300041F400414164816801F00701062903D0BF
:10024000016841F001010160002010BD2068DFF865
:100250006010884270470446080006D0042909D07F
:1002600008290CD00C290FD013E02068C26842F096
:1002700002020DE02068C26842F0040208E0206833
:10028000C26842F0080203E02068C26842F010022F
:10029000C2602068012200F076BA00212970204651
:1002A000704704F13C056878704700000004014085
:1002B0000000014010B50446206801698A0715D581
:1002C000C1688A0712D56FF002010161012222770D
:1002D000806910F0030F204602D000F0FEFA03E020
:1002E00000F0FCFA00F087F8002020772068016910
:1002F0004A0715D5C1684A0712D56FF0040101619C
:1003000002222277806910F4407F204602D000F05C
:10031000E4FA03E000F0E2FA00F06DF80020207744
:10032000206801690A0715D5C1680A0712D56FF060
:100330000801016104222277C06910F0030F2046F2
:1003400002D000F0CAFA03E000F0C8FA00F053F857
:100350000020207720680169CA0615D5C168CA0641
:1003600012D56FF01001016108222277C06910F4E4
:10037000407F204602D000F0B0FA03E000F0AEFA71
:1003800000F039F80020207720680169CA0708D5F5
:10039000C168CA0705D56FF001010161204600F070
:1003A0009EFA206801690A0608D5C1680A0605D5C3
:1003B0006FF080010161204600F092FA2068016927
:1003C0004A0608D5C1684A0605D56FF040010161AB
:1003D000204600F086FA206801698A060AD5C168BD
:1003E0008A0607D56FF0200101612046BDE8104064
:1003F00000F078BA10BD204600F075BA38B500F1AB
:100400003C042378012B01D1022032BD012323704B
:10041000022565704AB1042A0BD0082A0DD00C2A97
:1004200004BF006800F041F90AE0006800F0B2F88B
:1004300006E0006800F0DAF802E0006800F006F973
:1004400000F057B838B500F04EF801D1022032BDA7
:100450000120207002226270DFF894022A689368FB
:10046000034093600868020018BF10282DD0202890
:1004700018BF302829D0402823D0502816D0602813
:1004800018D0702803D0B0F5005F07D021E000F04D
:1004900025F82868816841F0770105E000F01EF832
:1004A0002868816841F48041816012E000F012F810
:1004B00050210BE0CA684968286800F040F96021C3
:1004C00004E000F007F8402100E00146286800F051
:1004D00048F90EE0CA684968286821E1CB684A6893
:1004E0008968286845E1054605F13C042078012823
:1004F00070470120607000212170002032BDF0B5EE
:100500007C4C05687C4B7D4E7D4FDFF8F8C1A042E6
:1005100018BFB0F1804F07D0604518BFB84203D074
:10052000B04218BF98420DD14A6825F070051543B6
:10053000A04218BFB0F1804F17D060451CBFB84231
:10054000B04212D098421CBF6F4A90420DD06F4EFD
:10055000B0421CBF6E4A904207D06E4EB0421FBFE1
:100560006D4A90426D4EB04203D1CA6825F4407581
:1005700015434A6925F0800515430560A0428D6842
:10058000C5620A68826212BF98420969016301224A
:100590004261F0BDF0B5026A564F52085200026245
:1005A000066A446885690B688A6825F0730526F039
:1005B00002061D431643504BB84218BF984207D15C
:1005C000CA6826F008061643B84226F0040601D091
:1005D000984205D14B698A6924F440741C43144342
:1005E00044608561496841630662F0BDF0B5026A06
:1005F000404E22F010020262B042056A43688469EC
:100600000A6824F4E64444EA02248A6825F02005B6
:1006100045EA0215384A18BF904208D1CF6825F044
:10062000800545EA0715B04225F0400501D090420B
:1006300006D14E698A6923F44063164343EA860370
:1006400043608461496881630562F0BDF0B5026A68
:1006500022F480720262056A4368C4698E680A687F
:1006600025F4007524F0730445EA06251443214E51
:10067000214AB04218BF904208D1CF6825F40065E6
:1006800045EA0725B04225F4806501D0904206D1A5
:100690004E698A6923F44053164343EA06134360C4
:1006A000C4614968C1630562F0BD70B5026A114E4C
:1006B00022F480520262B042046A4268C3690D6843
:1006C00023F4E64343EA05238D6824F4005444EA06
:1006D00005341CBF084DA84204D14D6922F4804264
:1006E00042EA85124260C36149680164046270BDD8
:1006F0008800FFFF0000014000040140000C0040A2
:100700000008004000040040004001400044014057
:100710000048014000180040001C0040002000403C
:1007200010B5036A046A64086400046223F00A03D3
:10073000846924F0F00444EA021484612EE010B5C8
:10074000036A23F0100303628369046A23F470438D
:1007500043EA023324F0A004836144EA01140462F2
:1007600010BD826822F07002114341F007018160E0
:10077000704710B5846824F47F442143114341EA53
:100780000321816010BD10B501F01F01036A01242F
:100790008C40A343036202FA01F1036A1943016228
:1007A00010BD30B4002513E050F8042BD30744BF2C
:1007B000A9F101039A18091F042942F8045BFAD22F
:1007C00013468C0744BF15809B1CC90748BF1D708A
:1007D00050F8041B0029E7D130BC704781B00020DD
:1007E000009000223748416841F4804141604168EF
:1007F00001F48041009100990092036843F0805316
:100800000360006800F080500090009801B07047CD
:1008100080B500682C4A2B49904211D100200090ED
:100820000A6842F002020A600022086800F0020032
:100830000090002100981D2000F070F81D2013E0AA
:10084000224A904214D1002000900A6842F004022B
:100850000A600022086800F004000090002100985F
:100860001E2000F05BF81E20BDE8024000F073B8C7
:1008700001BD10B586B004461422002101A800F085
:1008800095F821681148814219D100221048009240
:100890000222016841F0080101604FF40041006844
:1008A00000F00800009000980A480191029200218F
:1008B000039104910221059101A900F081F806B08D
:1008C00010BD000040380240000400400008004015
:1008D00030380240000C0240704770477047704744
:1008E00070477047704770470901020002D42948D9
:1008F00081547047284B02F00F021A4402F8041C7E
:100900007047264B19684FF6FF020002114000F4B1
:10091000E0600843224908431860704770B51F4BD8
:100920001C68C4F302230124C3F10705052D2EBF63
:100930000F2504FA05F56D1E1E1D072E34BF00237A
:10094000DB1E2940994004FA03F3BDE870405B1EAA
:100950001A401143C8E7010007D4012200F01F012B
:10096000104B8A40400943F82020704710B5401EC4
:10097000B0F1807F01D3012010BD0B4C60600F21CE
:100980004FF0FF30FFF7B0FF0021A160072020608B
:10099000002010BD00E400E018ED00E00CED00E0E8
:1009A0000000FA0500E100E010E000E010B50446A8
:1009B00010460A460146204600F004F9204610BDC4
:1009C0002DE9F84F0D4600267149724A0F2304465F
:1009D00001202F68B04000EA0708804540F0CB8036
:1009E0004FEA460C032707FA0CF76FEA070E6F6809
:1009F000012F18BF022F03D0112F18BF122F12D1B1
:100A0000A768D5F80C900EEA070709FA0CF949EA2D
:100A10000707A760676827EA00006F68C7F3001739
:100A2000B74038436060E068AF680EEA000007FA3C
:100A30000CF73843E060B0006F68022F18BF122F28
:100A400012D1F70804EB870700F01C09D7F820A0A3
:100A500003FA09FB2AEA0B0AD5F810B00BFA09F9D8
:100A600049EA0A09C7F8209027680EEA070E2F798D
:100A700007F0030707FA0CF747EA0E0727606F68CD
:100A8000FF0078D5002700974FEA960C176847F4C7
:100A90008047176000F00C00176807F48047009744
:100AA00003FA00FE009F3C4F57F82C7027EA0E0E09
:100AB0003A4FBC4208BF00272CD0394FBC4208BF78
:100AC000012727D0374FBC4208BF022722D0364F1C
:100AD000BC4208BF03271DD0344FBC4208BF0427C7
:100AE00018D0334FBC4208BF052713D0314FBC424A
:100AF00008BF06270ED0304FBC4208BF072709D0D9
:100B00002E4FBC4208BF082704D02D4FBC420CBF5B
:100B100009270A2707FA00F01F4F40EA0E0047F89E
:100B20002C006FEA08000F6800EA070C6F68FF03EB
:100B300048BF48EA0C0CC1F800C04F6800EA070C37
:100B40006F68BF0348BF48EA0C0CC1F804C08F6847
:100B500000EA070C6F68FF0248BF48EA0C0CC1F8B6
:100B600008C0CF6800EA070C6868800248BF48EAFE
:100B70000C0CC1F80CC0761C0F2E7FF629AFBDE817
:100B8000F18F42690A408A4208BF090481617047B7
:100B9000003C014044380240083801400000024057
:100BA0000004024000080240000C02400010024015
:100BB0000014024000180240001C024000200240C5
:100BC0000024024062F30F2262F31F42401810F02B
:100BD000030308D0C91A1FD3DB0748BF00F8012D53
:100BE00028BF20F8022D130030B4144615461039E2
:100BF00028BF20E93C00FAD8490728BF20E90C00AB
:100C000048BF40F8042D890028BF20F8022D48BFB6
:100C100000F8012D30BC7047C91818BF00F8012D2D
:100C2000CB0728BF00F8012D704730B40EE00268F2
:100C3000436802440830DC0744BFA9F10104E3180B
:100C400052F8045B43F8045B091FF9D150F8041B08
:100C50000029ECD130BC70472DE9F843040016D0D0
:100C60002078DFF8F462C10713D5B06800F00C00FB
:100C7000042807D0B06800F00C0008283DD1706847
:100C800041023AD53068810303D56068002800F03E
:100C90005E812078B14F810719D5B06810F00C0F34
:100CA00007D0B06800F00C0008285BD170684102E2
:100CB00058D43068810703D5E068012840F04781A7
:100CC0003168206921F0F80141EAC00131602178E2
:100CD000080779D56069A249002868D001220A6016
:100CE00000F042F90546706F81076DD400F03CF9C1
:100CF000401B0228F7D903202CE16068B0F5803F43
:100D000004D1306840F48030306011E0B0F5A02F9D
:100D1000306806D140F480203060316841F4803181
:100D200005E020F480303060316821F480213160AA
:100D3000606858B100F018F9054630688103A8D4FE
:100D400000F012F9401B6528F7D3D4E700F00CF946
:100D50000546306881039CD500F006F9401B6528E4
:100D6000F7D3C8E7E068A8B10121396000F0FCF8CA
:100D700005463068810705D400F0F6F8401B0228CC
:100D8000F7D9B8E73068216920F0F80040EAC100DF
:100D900030609CE7386000F0E7F805463168880766
:100DA00095D500F0E1F8401B0228F7D9A3E70860C9
:100DB00000F0DAF80546706F810705D500F0D4F829
:100DC000401B0228F7D996E7207841075FD5306CA1
:100DD0000025C1000AD400950125316C41F08051F5
:100DE0003164306C00F0805000900098DFF874811E
:100DF000D8F80000C10513D4D8F8000040F4807082
:100E0000C8F8000000F0B0F88146D8F80000C1052D
:100E100006D400F0A9F8A0EB09000228F5D96AE78A
:100E2000A068012805D00528306F06D140F00400E5
:100E30003067306F40F0010005E040084000306747
:100E4000306F20F00400306741F28938A06860B14B
:100E500000F08AF88146306F810713D400F084F8DF
:100E6000A0EB09004045F6D345E700F07DF8814648
:100E7000306F810706D500F077F8A0EB09004045F8
:100E8000F6D338E71DB1306C20F080503064A06993
:100E900000285ED0B16801F00C0108293AD0022880
:100EA0002AD10020386600F05FF8054630688101DD
:100EB00005D500F059F8401B0228F7D91BE7E06977
:100EC000216A626A0843A16A490840EA8210491E01
:100ED00040EA0140E16A40EA016070600120386642
:100EE00000F042F804463068810132D400F03CF84A
:100EF000001B0228F7D9FEE60020386600F034F81F
:100F000004463068810124D500F02EF8001B022829
:100F1000F7D9F0E601281AD0B068E26900F4800140
:100F2000914202BF00F03F01226A91420FD147F681
:100F3000C071626A0140914202BF00F44031A26A6E
:100F4000914202BF00F07060E16A884201D0012046
:100F500000E00020BDE8F283003802400000474274
:100F6000800E47420070004001484068704700BF53
:100F70000000002030B57B4C8DB000F0A1F80C21B2
:100F80002046FFF74AF900F0F9F800F09EF800203B
:100F900000904FF480557448016841F08001016071
:100FA000026802F080020092002200990092102252
:100FB000036843F0080303600021006800F00800A4
:100FC0000090009809A8FFF7F1FC00F074F800F019
:100FD0006DF86648206041F2873140F2F31000223C
:100FE000E0606160A2602261A2612046FFF7DEF846
:100FF000099509A92046FFF725FA2046FFF7F7F8DB
:101000000021009101912046694600F0D1F830217D
:101010000022029103920492069202A90C22204619
:10102000FFF7ECF91022002109A8FFF7BFFC00F040
:1010300042F800F03BF84E48206400216164A1644E
:10104000E1642165A16504F14000FFF7AFF809955F
:1010500009A904F14000FFF7F5F904F14000FFF79A
:10106000C6F800210091019104F14000694600F0AA
:101070009FF8002102910391049106910C2202A98C
:1010800004F14000FFF7BAF904F14000FFF7F1FB6B
:1010900004F14000FFF797F800F012F82046FFF740
:1010A00092F80C212046FFF7B8F8FEE71C22002139
:1010B00002A8FFF77BBC082200216846FFF776BC38
:1010C0000C2104F14000FFF7A8B880B592B030229F
:1010D000002106A8FFF76AFC1422002101A8FFF7EF
:1010E00065FC002000904FF480332248016841F0F5
:1010F000805101600021006800F08050009000984D
:101100001D480091026822F4404242F4804202608D
:101110000122006800F44040009006A80099069261
:1011200002214FF480020C910D92042164220E9151
:101130000F9202210422079310911192FFF78CFD68
:1011400002210291002203920F204FF4A05101903E
:1011500004914FF480520592032101A800F06EF82B
:1011600013B000BD100000203038024000040040E1
:1011700000080040403802400070004080B50B4835
:10118000016841F400710160026842F4806202600B
:10119000016841F4807101600320FFF7B2FB002079
:1011A00000F00CF9FFF71AFB002002BD003C0240E2
:1011B00070B500F13C031A78012A01D1022070BDFC
:1011C00001221A7002245C7005686E68AC680A68B7
:1011D00026F0700616436E6002681148824218BFFE
:1011E000B2F1804F11D00F4882421CBF0E4DAA426F
:1011F0000BD00E4882421CBF0D4DAA4205D00D48AF
:1012000082421CBF0C4DAA4204D1486824F08004DD
:1012100004439460012159700020187070BD0000D3
:10122000000001400004004000080040000C0040A5
:101230000004014000400140001800402DE9F04149
:1012400004000F4654D0404E306800F00F00B84202
:1012500002D200F073F84BD120683C4D810712D5C3
:10126000400703D5A96841F4E051A960207801073F
:1012700003D5A86840F46040A860A968A06821F080
:10128000F0010143A9602178C80729D560680128C9
:1012900002D129688A0305E0022818BF032803D178
:1012A00029688A0103D423E029688A0720D5A96820
:1012B000890840EA8100A860FFF756FE8046A868CA
:1012C000616800F00C00B0EB810F09D0FFF74CFE15
:1012D000A0EB080041F289318842F0D303202BE0D3
:1012E000306800F00F00874204D200F027F801D0E8
:1012F000012021E02078410705D5AA68E06822F4A2
:10130000E0520243AA602178080706D5A96820693F
:1013100021F4604141EAC001A96000F01FF8AA6809
:101320000B490C4BC2F30312895CC84018600A4891
:10133000006800F043F80020BDE8F08137703168A4
:1013400001F00F01B9427047003C024000380240F2
:10135000F01500080C0000200800002030B5144CE7
:10136000606800F00C00042802D0082802D01DE0BC
:10137000104830BD226820680023410202F03F027D
:1013800004D525680B49C5F3881003E020680A4995
:10139000C0F38810A1FB000100F030F82168C1F310
:1013A0000141491C4900B0FBF1F030BD024830BD9D
:1013B0000438024000127A000024F40038B50D4DC4
:1013C0000D4B2A7804464FF47A711868B1FBF2F29B
:1013D000B0FBF2F0FFF7CAFA50B9102C08D2002285
:1013E00021464FF0FF30FFF799FAAC60002032BD84
:1013F000012032BD000000200C000020D3BBD9B179
:10140000B2F5803F5BD2022A1ED98C46B1FBF2F1C5
:1014100002FB11C31B0443EA1043B3FBF2FC02FBC3
:101420001C3380B240EA0343B3FBF2F002FB1032FC
:1014300040EA0C4000237047022A05D98446B0FBDD
:10144000F2F002FB10C270474AB105D100F0010270
:1014500049085FEA3000704700220023704700F01F
:1014600051B80B000200002100207047F7D3002282
:1014700000237047904271EB030CF2D370B5B1FAC0
:1014800081F4B3FA83F52C1BA340C4F1200532FA92
:1014900005F63343A2405FF00046E64002E05B08F9
:1014A0005FEA3202841A71EB030524BF2046294605
:1014B0007641F4D302000B003000002170BD70B5FE
:1014C000B1FA81F4B2FA82F5C4F120046419B4F1DE
:1014D0002006DAD3B2405FF00044F440002502E079
:1014E00052085FEA3303C61A71EB020E24BF30467E
:1014F000714664416D41F3D302000B0020002900C6
:1015000070BD0000704700007047FEE7FEE7FEE791
:10151000FEE770477047704700F054B838B522486E
:10152000224D234CFEF7C6FE2868401E8041C00FA6
:10153000286001211F48FFF724FB28681E4921600D
:10154000002808D100216160A06040F2CF71E16005
:101550002061002107E000206060002140F69F70BC
:10156000A160E0602161A1612046FEF71FFE2046D8
:10157000FEF729FE2046BDE834400021FEF74DBEAF
:1015800080B50B48FEF796FE0C490D4A086828B94D
:1015900040F27750106001220A6001BD012802D19B
:1015A00000201060086001BD1000002094000020A1
:1015B0005000002000000240000800409000002081
:1015C000400800400248416802788A18426070472B
:1015D000000000200448054A016841F470010160E0
:1015E0004FF000601060704788ED00E008ED00E00B
:1015F00000000000000000000102030406070809C3
:1016000010B5074979441831064C7C44163404E07F
:101610000A68081D114488470146A142F8D110BD4F
:101620002C0000004C0000004EF68851CEF2000164
:10163000086840F470000860BFF34F8FBFF36F8FEE
:101640004FF00070E1EE100A7047000057F1FFFF05
:10165000880000001000002000000000CFF5FFFF10
:1016600010000000640000000000002000000000E6
:1016700000F00DF8002801D0FFF7C2FFAFF30080A3
:101680000020AFF30080FFF775FC00F002F80120A6
:10169000704700F001B800000746384600F002F835
:1016A000FBE7000080B5AFF30080024A110018206C
:1016B000ABBEFBE726000200014880470148004717
:1016C000D5150008D9160008010000000000000030
:1016D000100000000024F400AFF30080FFF7A4FF27
:1016E000FFF7C6FFFFF7FEBFFFF7FEBFFFF7FEBF26
:1016F000FFF7FEBFFFF7FEBFFFF7FEBFFFF7FEBF1E
:10170000FFF7FEBFFFF7FEBFFFF7FEBFFFF7FEBF0D
:10171000FFF7FEBFFFF7FEBFFFF7FEBFFFF7FEBFFD
:10172000FFF7FEBFFFF7FEBFFFF7FEBFFFF7FEBFED
:10173000FFF7FEBFFFF7FEBFFFF7FEBFFFF7FEBFDD
:10174000FFF7FEBFFFF7FEBFFFF7FEBFFFF7FEBFCD
:10175000FFF7FEBFFFF7FEBFFFF7FEBFFFF7FEBFBD
:10176000FFF7FEBFFFF7FEBFFFF7FEBFFFF7FEBFAD
:10177000FFF7FEBFFFF7FEBFFFF7FEBFFFF7FEBF9D
:10178000FFF7FEBFFFF7FEBFFFF7FEBFFFF7FEBF8D
:10179000FFF7FEBFFFF7FEBFFFF7FEBFFFF7FEBF7D
:1017A000FFF7FEBFFFF7FEBFFFF7FEBFFFF7FEBF6D
:1017B000FFF7FEBFFFF7FEBFFFF7FEBFFFF7FEBF5D
:1017C000FFF7FEBFFFF7FEBFFFF7FEBFFFF7FEBF4D
:1017D000FFF7FEBFFFF7FEBFFFF7FEBFFFF7FEBF3D
:1017E000FFF7FEBFFFF7FEBFFFF7FEBFFFF7FEBF2D
:1017F000FFF7FEBFFFF7FEBFFFF7FEBFFFF7FEBF1D
:10180000FFF7FEBFFFF7FEBFFFF7FEBFFFF7FEBF0C
:10181000FFF7FEBFFFF7FEBFFFF7FEBFFFF7FEBFFC
:10182000FFF7FEBFFFF7FEBFFFF7FEBFFFF7FEBFEC
:10183000FFF7FEBFFFF7FEBFFFF7FEBFFFF7FEBFDC
:04184000FFF7FEBFF1
:04000005080016D900
:00000001FF
