:020000040800F2
:10000000E00700204D3D0008493B00084B3B00083D
:100010004D3B00084F3B0008513B0008000000002A
:10002000000000000000000000000000533B00083A
:10003000553B000800000000573B0008593B0008F2
:10004000693D00086D3D0008713D0008753D0008E0
:10005000793D00087D3D0008813D0008853D000890
:10006000893D00088D3D0008913D0008953D000840
:10007000993D00089D3D0008A13D0008A53D0008F0
:10008000A93D0008AD3D0008B13D0008B53D0008A0
:10009000B93D0008BD3D0008C13D0008C53D000850
:1000A000C93D0008CD3D0008D13D0008D53D000800
:1000B0005D3B0008633B0008D93D0008DD3D0008BA
:1000C000E13D0008E53D0008E93D0008ED3D000880
:1000D000F13D0008F53D0008F93D0008FD3D000830
:1000E000013E0008053E0008093E00080D3E0008DC
:1000F000113E0008153E0008193E00081D3E00088C
:10010000213E0008253E0008293E00082D3E00083B
:10011000313E0008353E0008393E00083D3E0008EB
:10012000413E0008453E0008493E00084D3E00089B
:10013000513E0008553E0008593E00085D3E00084B
:10014000613E0008653E0008693E00086D3E0008FB
:10015000713E0008753E0008793E00087D3E0008AB
:10016000813E0008853E0008893E00088D3E00085B
:10017000913E0008953E0008993E000800000000EE
:100180009D3E0008A13E0008A53E0008A93E0008CB
:10019000AD3E0008B13E0008B53E0008B93E00087B
:1001A000BD3E0008C13E0008C53E00082DE9F14FE4
:1001B000B2B09946924600230691CDE900333C9AAD
:1001C0000F930DF14A0114914A7011E0329E574687
:1001D0002C4617F8011B0698B0470028069000F03F
:1001E00026810F98401C641E0F90F2D13296AA44CB
:1001F0009AF80000252808D10021002209910A92CE
:100200000B910C920D910E920FE06A464FF0FF3168
:10021000504601F07FF8050002D10F9800F066BE4D
:10022000D4D50125E3E741F001011AF8010F202898
:10023000F9D023280CD02B2804D02D2805D0302825
:1002400009D00BE041F00201EFE741F00401ECE7D7
:1002500041F00801E9E741F01001E6E72A280FD153
:10026000D9F8002052F8040BC9F80020002811909A
:1002700003D54042119041F004010AF1010A14E053
:100280001192DFF8EC3B0AE01198984205DA00EB96
:10029000800402EB4402303A11920AF1010A9AF802
:1002A0000020A2F130000A28EED39AF800002E2890
:1002B00003D04FF0FF32109229E01AF8010F2A28DC
:1002C00009D1D9F8000050F8042BC9F800001092A9
:1002D0000AF1010A1BE02D280CBF0AF1010A0020D7
:1002E00000221092DFF8882B0BE040B9109B93425C
:1002F00005DA03EB830504EB4504303C10940AF166
:10030000010A9AF80040A4F130030A2BEDD3ADF8AE
:1003100048100FF660309AF8001001F005F808B1A7
:100320001AF8010B8DF84A009DF84A00682805D19B
:100330009AF8000068280CD1622106E06C2804BFFE
:100340009AF800006C2804D171218DF84A100AF146
:10035000010A1FA808901AF801BBBBF125012DD096
:100360001C3900F06181091F022940F25D810E39BC
:100370002AD0491F00F0B284093900F05581891E46
:1003800000F04885491E00F0F484491E022940F21D
:100390004B81091F00F0ED84491F00F0BA80491E0F
:1003A00000F09C84491E65D0C91E21D0891E00F032
:1003B0009584C91E00F0928400F04BBD25238DF872
:1003C0007C30012109912AE06C208DF84A00D9F88F
:1003D000000050F8042BC9F80000002A43D11499FA
:1003E000487800283DD04FF0FF340FF6902012E0FF
:1003F0009DF84A006C28EAD0D9F8000050F8044B68
:10040000C9F800000794D4B91499487898B14FF00E
:10041000FF340FF6842000F0A1FF201A07D1329894
:100420001FAA04A900F065FD00287FF5E1AE4FF09A
:10043000FF3000F05BBD0FF67C200790EFE7109DCA
:10044000002D04D5204600F0A9FF044607E02A4607
:10045000204600F0BFFF002814BF041B2C460A945E
:10046000DDE70FF65422329804A900F0C8FD0028F9
:10047000D5D5DCE7D9F8001051F8040BC9F8001005
:1004800020F00004002121F0FF351FABCDE9044529
:100490000793DDE9042308993C2413B90AB910989D
:1004A00098B102F00F053035641EEEB23A2EA8BFA7
:1004B0002735120942EA03721B090D5508BF002AAD
:1004C00003D007980D19A842EBD308190790C4F17F
:1004D0003C0210980A92824209DABDF84810821A4A
:1004E0004FF6EF7001400C92ADF8481097E70028E6
:1004F00095D59DF8480000F0140010288FD1119B6D
:1005000009990C985B1A1B1A9A1A002A87DD0C921B
:1005100085E71499487820B14FF0FF340FF69C100E
:1005200079E79DF84A00622862D0682819D06A28C5
:1005300040D06C2806D071284DD074282DD07A2850
:100540001ED064E0D9F8001051F8040BC9F800106F
:1005500020B94FF0FF340FF67C105CE70F99016073
:100560005DE7D9F8001051F8040BC9F8001020B964
:100570004FF0FF340FF65C104DE70F9901804EE706
:10058000D9F8001051F8040BC9F800100028E5D183
:100590004FF0FF340FF63C103DE7D9F8001051F84A
:1005A000040BC9F800100028D8D14FF0FF340FF623
:1005B000241030E7D9F8001051F8040BC9F80010E6
:1005C00020B94FF0FF340FF60C1024E70F9AD31721
:1005D000C0E9002323E7D9F8001051F8040BC9F84B
:1005E00000100028F2D14FF0FF340FF6E80012E7B8
:1005F000D9F8001051F8040BC9F8001020B94FF0D9
:10060000FF340FF6D00006E70F99017007E7D9F81D
:10061000001051F8040BC9F8001000289ED14FF0CB
:10062000FF340FF6B000F6E6D9F80020D21D22F014
:100630000702C9F80020D2E900010832C9F80020F9
:10064000CDE90401C80F02D009982D210AE0BDF8B8
:100650004800810702D509982B2103E0C00705D582
:10066000099820211FAA1154401C09901FA809991C
:100670004BF020024318DDE90401CDE92E01612A87
:10068000079315AC0BD01098002802D506201090C7
:1006900005E001BF4BF02000672801211091DDE942
:1006A000040148004015401C0A4611D109030FD02F
:1006B000ABF1610503201A2D0A9002D20FF6A0318A
:1006C00001E00FF6A0310322184600F0AFFEA6E6C7
:1006D00050B9120308D1ABF1610503201A2D0A901D
:1006E00016D30FF68831EEE7DDE90401CDE93001DC
:1006F000DDE9302323F00047B7F5801F22F0000624
:100700000DD20022002F08BF002E029203D116E066
:100710000FF65431D7E702AA00F0DCFE0FE0DFF855
:10072000F00ADFF8F01A00EB17500290DDE93023F1
:100730004FF0FF301940DFF8E07A10403943CDE93F
:1007400004014BF0200061280DD107983021017081
:10075000821CBBF1610F07920CBF782158214170B8
:100760000998801C0990DDE9040120F0000231F0B5
:10077000004308BF002A02D10026002571E14BF09A
:100780002008B8F1610F40F0BE801098002847BFE4
:1007900021210391401C0390039FDDE92E017F1C62
:1007A00000220023DDE9044500F0CCFE02998DF81B
:1007B000542038BF85F00045091F002F02910DF12C
:1007C00055065DDDDFF8541ACDE9302140F2FF73A4
:1007D0002E93204629460022002300F0CBFE4FD264
:1007E0004800400D00F11C0315D0002B13DD2E989E
:1007F00083420ADBDDE9300121F0004005F00042D0
:100800000243DDE93001114611E06FF31E5141EA68
:10081000035120460BE024F0000035F0004108BFF2
:1008200000280FBF29461C22294600F0BBFE0446C3
:100830000D4600F055FFFF1F002F804609DD00F038
:100840006DFF02460B462046294600F079FF04461C
:100850000D46F01D0721B8F1000F0CDD491E5EBFEB
:1008600008F00F0200F8012D4FEA2818F3D502E036
:10087000002200F8012D491EFAD5C61D002FA8DC64
:100880000DF15500361A03988642D8BF304600282D
:100890000DF1550430D4B04206DA0DF155010A5C71
:1008A000082AA8BF0F2100DA0021024615AB134425
:1008B00000E0401E13F80159521E8D42F9D00F2955
:1008C00004D10DF155018B5C5B1C8B54002A04D5BF
:1008D0000299091D15AC401C0291411E0CD46218EE
:1008E000ABF13A0613783033DDB23A2DA8BFF318D6
:1008F000491E02F80139F5D51099002940F1AF8061
:10090000421E1092ABE00299DFF8142947F297508B
:10091000414391FBF2F2DDE92E45029225F00045BC
:10092000D2F1070204DD2046294600F04DFC0BE021
:1009300052420020DFF8EC1800F046FC02460B465D
:100940002046294600F06EFF0446B8F1660F109865
:1009500006BF029F0A3706273F18142FC8BF142767
:1009600030208DF854000D460020DFF8BC18CDE98A
:100970002E010DF15506002F33DD2046294601F0EA
:1009800075F801460A4606F1080304200A26B2FB60
:10099000F6F606EB860EA2EB4E02303203F8012C7F
:1009A0000A22B6FBF2F202EB820EA6EB4E063036BE
:1009B000401E03F8026DE9D1083F002F03F108063D
:1009C000D9DD084601F066F802460B462046294666
:1009D00000F0B6FEDDE92E2301F06AF804460D466C
:1009E000CBE70DF15500361A0DF1550404E00298DD
:1009F000401E761E0290641C20783028F7D0B8F193
:100A0000660F02D10299491C04E0B8F1650F0CBFD2
:100A100001210021109808188642B8BF701E0028D6
:100A20001DD4B04204DA215C3429C8BF392100DC6E
:100A300030210246631E9D1800E0401E15F8016932
:100A4000521E8E42F9D0392902D1A15C491CA15411
:100A5000002A04D50299491C1C46401C02910646F6
:100A6000029D00F05BFC406A0778DDF8408030B200
:100A7000002802DC01260FF2F8744BF020006628F3
:100A800008BF6D1C16D0672846D128B210F1040F9C
:100A900048DB404546DA9DF848006D1C010703D449
:100AA00030B24045B8BF804628B2B8EB000848BF16
:100AB0004FF000080FFA85FB07980A99BBF1000F69
:100AC00000F3B2804A1C0A9230234354B8F1000F5D
:100AD00003DC9DF84800010704D50A98411C0A91DF
:100AE00007990F5418EB0B0FB8BFC8F100052DB2D2
:100AF00068420D90A84432B29045B8BF4646079B65
:100B00000A9836B20B9632462146184400F08EFC05
:100B1000A8EB06000E90CBE0BBF1610F17D14FF0B0
:100B2000700B19E030B2404504DA9DF848100A070E
:100B300058BF8046B8F1010848BF4FF00008BBF12C
:100B4000670F14BF4FF0450B4FF0650B04E0BBF18E
:100B5000410F08BF4FF0500B0A98411C0A91B8F1A1
:100B6000000F079914F8012B0A5403DC9DF8480084
:100B700001071AD50A98411C0A91B8F1000F07998C
:100B80000F5412DD761E30B2804507980A9BB8BF1D
:100B9000464632B22146184400F048FC0A9936B263
:100BA00071180A91A8EB06000D9007980A9908445D
:100BB0002AB2002A80F800B003D42B224270811C94
:100BC00004E02D2141701546811C6D4200202EAAA3
:100BD0000A2409E02B4693FBF4F505EB8506A3EB0D
:100BE000460302F8013B401C2DB2002DF2DC012827
:100BF00006DC4BF02002652A04BF302201F8012BED
:100C000000282EAA08D1302001F8010B06E0401E72
:100C1000135C303301F8013B0028F8DC079A0A988E
:100C20001044091A0B9143E0084431B22AB29142B0
:100C300019DA32B2214600F0F9FB0A9936B271187E
:100C4000ABEB0606B8F1000F0A910D9603DC9DF898
:100C50004800020704D5079847540B99491C0B918B
:100C6000CDF8388024E0214600F0E0FB0A98761B9E
:100C70005844B8F1000F0A9003DC9DF848100A07A9
:100C800003D5411C0A9107990F5430B2804507984B
:100C90000A9BB8BF464632B204EB0B01184400F081
:100CA000C5FB0A9836B230180A90A8EB06000D90E2
:100CB0009DF8480000F0140010287FF4B0AB099AAA
:100CC0000A990D988A180B9982180E988A1882181A
:100CD00011988242BFF6A3AB821A18E49DF84A002D
:100CE000622808D068280ED06A2814D06C281FD03B
:100CF000712810D01CE0D9F8001051F8040BC9F885
:100D00000010C0B21AE0D9F8001051F8040BC9F86D
:100D1000001080B212E0D9F80020D21D22F00702A4
:100D2000C9F80020D2E900010832C9F8002006E025
:100D3000D9F8001051F8040BC9F800100021CDE9D2
:100D400004019DF8480001075AD5DDE90423002B72
:100D500008BF002A54D04BF02000782850D10998C1
:100D60001FA930220A54401C431C099301F800B00B
:100D700046E09DF84A00622808D068280ED06A280C
:100D800014D06C281FD0712810D01CE0D9F80010A6
:100D900051F8040BC9F8001040B21AE0D9F800105D
:100DA00051F8040BC9F8001000B212E0D9F8002085
:100DB000D21D22F00702C9F80020D2E90001083252
:100DC000C9F8002006E0D9F8001051F8040BC9F862
:100DD0000010C117CDE90401002902D509982D2181
:100DE0000AE0BDF84800810702D509982B2103E0ED
:100DF000C00705D5099820211FAA1154401C09904D
:100E00001FA809990144079104A8594600F057F911
:100E1000FFF705BB9DF84A006C280BD00121099112
:100E2000D9F8000050F8041BC9F800008DF87C10B8
:100E3000FFF7F5BAD9F8000050F8041BC9F8000014
:100E400015914FF0FF3210920021169115AAFFF76D
:100E50000ABB25210122BBF1000F8DF87C100992FD
:100E60003FF4DDAA8DF87DB00221FFF7ABBA000098
:100E7000CBCCCC0C686A6C747A4C00007072696ED2
:100E800074665F733A2062616420256C732061721E
:100E900067756D656E7400007072696E74665F735D
:100EA0003A2062616420257320617267756D656EFA
:100EB0007400000000000000000000007072696E05
:100EC00074665F733A20256E20646973616C6C6F81
:100ED000776564007072696E74663A20626164209E
:100EE000256E20617267756D656E740033B0BDE864
:100EF000F08F2DE9FC410F46064690467A6B7869E3
:100F0000396ABC6A121AB869521A796A121AF869EF
:100F1000521A121A97F83800141B41070FD42020D8
:100F2000002C8DF800000ADD254601236A4639466B
:100F3000304600F07DF900285DD16D1EF5D17B694A
:100F400042463946304600F073F9002853D130202C
:100F50008DF800003D6A002D09DD01236A463946FF
:100F6000304600F065F9002845D16D1EF5D1BB690A
:100F7000FA683946304600F05BF900283BD1302052
:100F80008DF800007D6A002D08DD01236A46394690
:100F9000304600F04DF970BB6D1EF6D1F868B969A6
:100FA000FB6942183946304600F042F918BB302040
:100FB0008DF80000BD6A002D08DD01236A46394620
:100FC000304600F035F9B0B96D1EF6D197F838000B
:100FD00041070DD52020002C8DF8000008DD0123ED
:100FE0006A463946304600F023F920B9641EF6D12E
:100FF0000020BDE8F6814FF0FF30BDE8F6812DE915
:10100000F8470D46A3B02F6B002F8246904648BF8D
:101010006FF0004700F01DFE696B401801AA002127
:10102000C2E90011812828BF4FF0FF3044D2894621
:101030001EE0A74230DB6869201881280BD300210D
:10104000696303AA29465046FFF753FF5FEA000988
:1010500022D40020686103AB6E6922466946981964
:1010600000F0E4F9A6196E6158F8040BA0B13F1B1B
:10107000002F11DDD8F8001001AA684600F04CF9E5
:101080000446002C05D4D8F800000028D1D1641EF5
:10109000CFD54FF0FF390EE0B9F1000F504604D123
:1010A00003AA2946FFF725FF8146B9F1000F02D1B7
:1010B000002068616863484624B0BDE8F0872DE9E8
:1010C000FC4307466F293E6908BF082405D041F05C
:1010D0002000782814BF0A2410243C25D7E90023D7
:1010E000642918BF69299046994605D1002B03D57C
:1010F000D8F1000869EB4909B9F1000F08BFB8F150
:10110000000F0CD1386B50B9082C39D197F8380042
:10111000010735D530203B2586F83B0030E08DF8BF
:101120000010404649462246E31700F097FD303252
:10113000D0B26D1E3A28019504DB9DF80000A0F1A5
:1011400051018A187255404649462246E31700F07D
:1011500085FD80465FEA010908BFB8F1000F03D0A2
:10116000F86871198842DCD3082C09D197F8380047
:10117000010705D5705D302802D06D1E30207055F6
:10118000C5F13C02BA617119F960386B824208DA24
:10119000821A3A624FF6EF70398F01403987BDE805
:1011A000F38300280ED597F8380000F014001028BB
:1011B00008D17B6B7969386A5B1A1B1A9A1A002A64
:1011C000C8BF3A62BDE8F3832DE9D04306460F4617
:1011D00014464FF00008DFF8549012E0E00707D5FE
:1011E00042464B463046394600F062FC06460F4602
:1011F0004046494642464B4600F05AFC6410804641
:101200008946002CEAD130463946BDE8D08300003B
:1012100002FCFFFFFFFF0F800000E03F0000F07FB7
:10122000A08601000000F03F84D7974100002440D1
:10123000F8B505460E4617461C4600205CB117F867
:10124000011BB068A847B06030B1F06A401CF06282
:101250000020641EF3D1F2BD4FF0FF30F2BD00005C
:101260006E616E004E414E00696E6600494E46004A
:10127000300030B4002513E050F8042BD30744BFEE
:10128000A9F101039A18091F042942F8045BFAD254
:1012900013468C0744BF15809B1CC90748BF1D70AF
:1012A00050F8041B0029E7D130BC70471C48704738
:1012B00070B45368D41801E05B1C491E042B08DA93
:1012C00000291FBF057804F8015B10F8016B002EA0
:1012D000F2D1536070BC704738B514461D4661B1F9
:1012E000FFF7E6FF61686A6B204690476FF00102E6
:1012F000811A02D0491E01D001E003E005E000217F
:10130000616032BD6FF0010032BD4FF0FF3032BD81
:10131000DA6B1047024BDFE7014BF9E701487047F2
:101320004800002010000020C9B202788A421AB199
:101330001CBF10F8012FF9E718BF00207047B1F566
:10134000807F02D34FF0FF3070470170012070475B
:101350000078401E8041C043C00F704780B500B97F
:1013600006A005490B681BB122220021984701E025
:1013700000F0F7FC222002BDD8030020636F6E73DB
:10138000747261696E742068616E646C65723A2073
:10139000626164206D6573736167650000F101032C
:1013A000810704D010F8011B820781B1FAD10268CD
:1013B000A2F10131914311F0803104BF50F8042FA4
:1013C000F6E709BAB1FA81F100EBD100401CC01A6E
:1013D00070472E00C9B2830706D0521E22D310F8E0
:1013E000013B9942F7D11FE0083A13D302F10402FE
:1013F00041EA012141EA014150F8043B121F21BF9B
:101400004B40A3F1013C2CEA030C1CF0803FF3D0CD
:10141000C9B2001F083210F8013B521E28BF91EAE2
:10142000030FF8D818BF0120401E704762B38B0726
:1014300008D0521E11F8013B00F8013B00F0248057
:101440008B07F6D1830740F0208000BF103A07D306
:1014500030B4B1E83810103AA0E83810F9D230BCF6
:10146000530724BFB1E80810A0E8081044BF51F8A2
:10147000043B40F8043BD20724BF31F8022B20F88C
:10148000022B44BF0B7803707047121F17D35B0009
:1014900009D151F8043B20F8023B1B0C121F20F825
:1014A000023BF6D20BE051F8043B00F8013B1B0A6B
:1014B00020F8023B1B0C121F00F8013BF3D238BF8F
:1014C000121D521E24BF11F8013B00F8013BF8D851
:1014D0007047430010B5144600F002F8226010BDBA
:1014E000C1F30A5343B14A0012F5001F28D2A3F2F8
:1014F000FE32A1EB0251704750EA410C20D001F0BE
:10150000004C31EA0C01B1FA81F204BFB0FA80F369
:10151000D2180B3AB2F120032CBF00FA03F191402C
:1015200041EA0C013EBFC2F1200C20FA0CF3194332
:101530009040524240F2FD33D21A01EB0351704702
:10154000002270474FF4001C1CEB410F94BF1CEBB2
:10155000430F09E041EA030C50EA4C0C52EA0C0C30
:1015600003D2994208BF9042704714BF8B42824217
:10157000704700004FF4001C1CEB410F94BF1CEBA4
:10158000430F09E041EA030C50EA4C0C52EA0C0C00
:1015900003D28B4208BF8242704714BF99429042E7
:1015A00070470000124254D440F2FF7C1CEA1153F1
:1015B0000FD0634531D09B1863453CBF01EB02510E
:1015C000704701F0004141EA0C510020AFF3008068
:1015D000704750EA410320D001F0004C91EA0C0121
:1015E0001CD0B1FA81F30B3B9A420DD9D21A994023
:1015F00051EA0C01C3F1200C20FA0CFC6144984024
:10160000531C40F2FF7CD7E7914041EA0C01C2F144
:10161000200C20FA0CF3194390407047B0FA80F385
:101620001533202BE0D3202AEED3203A203B9A42D8
:1016300009D9D21A00FA03F141EA0C010020531C27
:1016400040F2FF7CB8E700FA02F141EA0C01002009
:101650007047524240F2FF7C1CEA11530DD06345A3
:10166000DBD0B2EB030C3CBFA1EB025170470CF195
:10167000010221EA035141F4801150EA410CCCD01F
:1016800001F0004C352A27DC30B481EA0C01B2F1BC
:10169000200309DAC2F12003044601FA03F5D04021
:1016A0002843D1409C400CE0C3F12002450020FAC1
:1016B00003F418BF44F0010421FA03F091400C43F5
:1016C000002174F1004550F1000051EB0C0124425F
:1016D00030BC7FF47BAF70476146002076E70000A6
:1016E000C1F30A5340F2FE329B1A14DDD3F12003FA
:1016F0004FEAE17208DDC90241EA505141F0004071
:10170000D84080185040704703F2E13010B1D24306
:1017100082F000407047002070470000C11768B198
:101720004840401AB0FA80F29040D21CC907C2F576
:10173000846241EA025202EBD0214005704700006A
:1017400070B44FF0004591EA030F40F10D836B40F8
:10175000841A71EB030603D2001BB14112197341C5
:101760004FF4001C1CEB410F34BF7CEB430442E000
:101770000C0DA4EB1356352E4FDC45EAC323DB0AD0
:1017800045EAC121C912B6F120050DDD63FA05F65F
:10179000EB4086EA0305124218BF45F00105C01868
:1017A00051F100010CD213E062FA06F5F240554007
:1017B000F3415A40B340F3405A408018594107D38F
:1017C00049085FEA30005FEA350528BF45F00105AA
:1017D00001F58011420875F1004250F1000041EB23
:1017E00004514E0016F5001F70BC38BF7047002032
:1017F000090D090570471CEB410F10D252EA430650
:101800000BD0BCEB410F05D80C0DAB43661E342E3C
:10181000B6DD02E0AB438018594170BC704770BC24
:1018200070470000F0B540F2FF7581EA030C0CF040
:10183000004C15EA11541DBF15EA1357AC42AF42D4
:10184000E5E0BC41C1F31301C3F31303801A9941CE
:1018500043F4801304D2641E40004941801859416A
:10186000C90241EA5051B1FBF3F603FB1611A2FB8A
:101870000675D7EBC020A94102D2761E80185941C7
:10188000C90241EA5051B1FBF3FE03FB1E11A2FB5A
:101890000E75D7EBC020A94103D2AEF1010E80181E
:1018A0005941890241EA9051760546EA8E2EB1FBF4
:1018B000F3F603FB1611A2FB0675D7EB8020A941B6
:1018C00002D2761E80185941C90241EA50514EEAAF
:1018D000060EB1FBF3F603FB1611A2FB0675D7EB60
:1018E000C020A94102D2761E80185941C90241EA9E
:1018F0005051B1FBF3F703FB1711A2FB0735D3EBF4
:10190000C020A94167F100070CBF004247F0010762
:1019100066F3D5274FEA1E31B80814F5806412DD4E
:10192000BD0775F1004250EB0E5051EB045111F51B
:10193000801F5CBF41EA0C01F0BD4CF07F6141F0BB
:10194000E0410020F0BDBD076D0840EA0E5041F4B3
:101950008011D4F10104B4F120060ADAC4F12006A2
:101960000200E04001FA06F3E1401843B24015439B
:101970000EE0342C13DCC6F1200445EA40056D0866
:1019800020FA06F2154321FA06F0A1400D4300218A
:1019900075F1004250F1000051EB0C01F0BD002048
:1019A0005FEA0C01F0BDCFB992185B41B3FA83F73F
:1019B00004BFB2FA82F6BF190B3FB7F120062FBF62
:1019C00002FA06F3BB40C7F1200622FA06F638BF3A
:1019D0003343BA401CB1E419641E33E77F4231F04F
:1019E0000041B1FA81F404BFB0FA80F6A4190B3CAF
:1019F000B4F120062FBF00FA06F1A140C4F1200681
:101A000020FA06F638BF3143A0403C1B1AE7AC422F
:101A10001ABF05EA1357AF4212E050EA41061CBF55
:101A200052EA4306BFE750EA4107304661461CBF11
:101A300041EA0551F0BD52EA430C08BFC143F0BD75
:101A400000204FF4001616EB410F98BF16EB430F22
:101A500008BF16EB410F24BFC14305E016EB430F4F
:101A60000CBF61464CEA0551F0BD0000400D49181D
:101A700040EA81200CD2490DA1F58061491C40F05B
:101A8000004005DBD1F11F0154BFC840C0177047AB
:101A900000207047014648B1B0FA80F18840C91C67
:101AA000C1F58461090501EBD021400570470000B4
:101AB000B0B581EA030C0CF0004C40F2FF7515EA5A
:101AC00011541DBF15EA1357AC42AF4239E0E41977
:101AD00023EA455343F48013C90241F0004141EA2F
:101AE000505EC7021100A7FB020200284FF0000061
:101AF000EEFB01204FF00001E3FB072118BF42F08D
:101B00000102401800214941E3FB0E01A4F5806465
:101B10000F0302D252004041494154F101046CDDEF
:101B2000470872F1004250F1000051EB0451A1F559
:101B300080115CBF41EA0C01B0BD4CEA05510020A8
:101B4000B0BD05EA1357AC4214BFAF4241E050EAC2
:101B5000410E1CBF52EA430E02E061460020B0BDB8
:101B600024423C441BD15FEA070EF6D0090302BFB2
:101B700001460020AEF1140EB1FA81F7AEEB070476
:101B800001FA07FE0C37C7F1200100FA07F7C84039
:101B90004EEA000E23EA455343F48013A2E733F0E4
:101BA0000043B3FA83F704BFB2FA82FE77440B3FD7
:101BB000E41BB7F1200E2FBF02FA0EF3BB40C7F1B2
:101BC000200E22FA0EFE38BF43EA0E03BA40641C10
:101BD00082E750EA410E14BF52EA430E6FF0000153
:101BE0004FF4001717EB430F8ABF194617EB410F4D
:101BF000B5E74CEA05510020B0BDD4F10104B4F1C1
:101C000020070FDAC4F12007520828BF42F0010272
:101C100010FA07F501FA07F7E1BF2A43E04038431D
:101C2000E1400FE0352C98DCC7F1200452EA400275
:101C300020FA07F218BF42F0010231FA07F0A14082
:101C40000A43002172F1004250F1000051EB0C01F7
:101C5000B0BD80B5FFF72AFB006C02BDD3BBD9B184
:101C6000B2F5803F5BD2022A1ED98C46B1FBF2F15D
:101C700002FB11C31B0443EA1043B3FBF2FC02FB5B
:101C80001C3380B240EA0343B3FBF2F002FB103294
:101C900040EA0C4000237047022A05D98446B0FB75
:101CA000F2F002FB10C270474AB105D100F0010208
:101CB00049085FEA3000704700220023704700F0B7
:101CC00009B90B000200002100207047F7D3002261
:101CD00000237047904271EB030CF2D370B5B1FA58
:101CE00081F4B3FA83F52C1BA340C4F1200532FA2A
:101CF00005F63343A2405FF00046E64002E05B0891
:101D00005FEA3202841A71EB030524BF204629469C
:101D10007641F4D302000B003000002170BD70B595
:101D2000B1FA81F4B2FA82F5C4F120046419B4F175
:101D30002006DAD3B2405FF00044F440002502E010
:101D400052085FEA3303C61A71EB020E24BF304615
:101D5000714664416D41F3D302000B00200029005D
:101D600070BD012000F0B8B8841A71EB030604D2EC
:101D70006E40001BB141121973414FF4001C1CEB63
:101D8000410F34BF7CEB430683E00C0DA4EB1356EC
:101D9000362E00F37C80012E45EAC32341DC43EA62
:101DA000525312BFD20292025B08240545EAC121B8
:101DB00041EA5051D2EBC020994125D407D1B0FA65
:101DC00080F610FA06F162D00020203608E0B1FA61
:101DD00081F6B140C6F1200220FA02F21143B04070
:101DE0004FEAF474B4EB465434F001064FEA74043D
:101DF0000AD8D6F50016760D04F00044F04061FADA
:101E000006F25040F1404840C00A40EA415021F0FB
:101E1000004128BF5FEA500550F1000044EBD1219A
:101E200035E0DB0A45EAC121C90AB6F120050EDD1D
:101E300042EA0242120CC5F1200603FA06F6EB4014
:101E400042EA06056D42984161F100010DE062FA37
:101E500006F5F240554063FA06FC82EA0C02F340B4
:101E60005A406D42904161EB030111F4801F05D18E
:101E7000641E620502D06D004041494121F4801189
:101E8000430875F1004350F1000041EB045170BC70
:101E900070471CEB410F15D223F0004352EA430672
:101EA0000BD04FEA4C0CBCEB410F04D80C0D661E56
:101EB000342EB7DDEBE7801A994150EA410608BF9E
:101EC0000021E4E708BF1CEB430F28BF6FF00001BF
:101ED000DDE700007047000080B5AFF30080024AE4
:101EE00011001820ABBEFBE72600020038B5040045
:101EF00001D1012032BD00F02DF818B900F026F80C
:101F000000F0A2FB0BE038B5040001D1012032BD86
:101F100000F020F818B900F019F800F023FC0220B6
:101F20006870211D206800F0E8F901206870002029
:101F300032BD38B5040001D1012032BD00F00AF8ED
:101F400018B900F003F800F00EFCE8E70021297052
:101F50002046704704F13C056878704710B5044688
:101F6000206801698A0715D5C1688A0712D56FF004
:101F70000201016101222277806910F0030F2046DF
:101F800002D000F0F1FB03E000F05AFD00F087F80A
:101F900000202077206801694A0715D5C1684A07E3
:101FA00012D56FF00401016102222277806910F4DA
:101FB000407F204602D000F0D7FB03E000F040FD58
:101FC00000F06DF800202077206801690A0715D518
:101FD000C1680A0712D56FF0080101610422227757
:101FE000C06910F0030F204602D000F0BDFB03E0F3
:101FF00000F026FD00F053F80020207720680169EA
:10200000CA0615D5C168CA0612D56FF01001016164
:1020100008222277C06910F4407F204602D000F0E9
:10202000A3FB03E000F00CFD00F039F8002020775E
:1020300020680169CA0708D5C168CA0705D56FF0CD
:1020400001010161204600F0FCFC206801690A06DC
:1020500008D5C1680A0605D56FF0800101612046E8
:1020600000F0F0FC206801694A0608D5C1684A06FC
:1020700005D56FF040010161204600F0E4FC2068C6
:1020800001698A060AD5C1688A0607D56FF0200162
:1020900001612046BDE8104000F0D6BC10BD2046CE
:1020A00000F0D3BC38B500F13C042378012B01D1FA
:1020B000022032BD01232370022565704AB1042A33
:1020C0000BD0082A0DD00C2A04BF006800F0EBF9F1
:1020D0000AE0006800F05CF906E0006800F084F9AE
:1020E00002E0006800F0B0F900F0EBB8F8B500F0DD
:1020F0007FF801D10220F2BD00F087F882B9EB68C9
:102100006A682968306800F0F1F93068816921F067
:102110000C01816131688A69A86802438A615CE0C8
:10212000042A10D1EB686A682968306800F035FA33
:102130003068816921F4406100F056F8AA6841EAEC
:102140000221816149E0082AE9686A682B6823D185
:102150003768386A20F4807038621B0207F11C006F
:1021600003F42063D0F800C0D7F820E04FEA9C0CBD
:1021700042EA8C0261F3071202602EF420600343EE
:102180003B623068C16921F00C01C1613168CA69E4
:10219000A8680243CA6120E030681C301B0347680E
:1021A00027F48057476003F420430768D0F804C041
:1021B00027F4407747EA022761F30F372CF42041D8
:1021C00007600B4343603068C16921F4406100F04F
:1021D00007F8AA6841EA0221C16100F010F8F2BDD7
:1021E000C1613068C1697047816130688169704739
:1021F000064606F13C040D46207801287047012070
:1022000060700021217000207047012020700221A1
:102210006170704738B500F04EF801D1022032BD30
:102220000120207002226270DFF820032A68936880
:10223000034093600868020018BF10282DD02028A2
:1022400018BF302829D0402823D0502816D0602825
:1022500018D0702803D0B0F5005F07D021E000F05F
:1022600025F82868816841F0770105E000F01EF844
:102270002868816841F48041816012E000F012F822
:1022800050210BE0CA684968286800F09CF9602179
:1022900004E000F007F8402100E00146286800F063
:1022A000A4F90EE0CA684968286867E1CB684A6803
:1022B00089682868A1E1054605F13C0420780128D9
:1022C00070470120607000212170002032BD02465D
:1022D000002031B1042907D0082908D00C2909D0E1
:1022E00070471068406B70471068806B70471068CB
:1022F000C06B70471068006C7047F0B5944C05686F
:10230000944B954E954FDFF858C2A04218BFB0F1DC
:10231000804F07D0604518BFB84203D0B04218BF05
:1023200098420DD14A6825F070051543A04218BFA8
:10233000B0F1804F17D060451CBFB842B04212D0F8
:1023400098421CBF874A90420DD0874EB0421CBFB6
:10235000864A904207D0864EB0421FBF854A9042BF
:10236000854EB04203D1CA6825F4407515434A69C9
:1023700025F0800515430560A0428D68C5620A6896
:10238000826212BF98420969016301224261F0BD75
:10239000F0B5026A6E4F520852000262066A446843
:1023A00085690B688A6825F0730526F002061D43CF
:1023B0001643684BB84218BF984207D1CA6826F046
:1023C00008061643B84226F0040601D0984205D10B
:1023D0004B698A6924F440741C431443446085614A
:1023E000496841630662F0BDF0B5026A584E22F0BA
:1023F00010020262B042056A436884690A6824F4E4
:10240000E64444EA02248A6825F0200545EA0215DC
:10241000504A18BF904208D1CF6825F0800545EAA0
:102420000715B04225F0400501D0904206D14E6913
:102430008A6923F44063164343EA86034360846158
:10244000496881630562F0BDF0B5026A22F48072CA
:102450000262056A4368C4698E680A6825F40075DB
:1024600024F0730445EA06251443394E394AB04234
:1024700018BF904208D1CF6825F4006545EA0725CA
:10248000B04225F4806501D0904206D14E698A6938
:1024900023F44053164343EA06134360C46149687A
:1024A000C1630562F0BD70B5026A294E22F4805204
:1024B0000262B042046A4268C3690D6823F4E643CD
:1024C00043EA05238D6824F4005444EA05341CBF14
:1024D000204DA84204D14D6922F4804242EA85127F
:1024E0004260C36149680164046270BDF0B5046A6A
:1024F000174E640864000462B0428469056A18BF1C
:10250000B0F1804F11D0164EB0421CBF134FB842ED
:102510000BD0114EB0421CBF0E4FB84205D0114E29
:10252000B0421CBF124FB84203D1A40842EA840251
:1025300001E044F0010263F3071225F00A0501F0FF
:102540000A01826129430162F0BD00008800FFFF9B
:102550000000014000040140000C00400008004061
:102560000004004000400140004401400048014098
:1025700000180040001C00400020004010B5036A15
:10258000046A64086400046223F00A03846924F086
:10259000F00444EA0214846139E030B5046A24F09E
:1025A0001004046209018469056A24F4407444EA51
:1025B000022463F30F3425F0A00501F0A00184612B
:1025C0002943016230BD10B5036A23F01003036292
:1025D0008369046A23F4704343EA023324F0A004BD
:1025E000836144EA0114046210BD826822F0700223
:1025F000114341F007018160704710B5846824F4ED
:102600007F442143114341EA0321816010BD1943F6
:10261000016210BD81B00020009000224B4841684B
:1026200041F480414160416801F48041009100998A
:102630000092036843F080530360006800F080500C
:102640000090009801B0704710B586B000F078F89F
:1026500021683F48B1F1804F26D1002100910269E5
:1026600042F0010202610022016901F001010091C2
:10267000009900920821036843F0010303600222DD
:10268000006800F0010000900098324800F052F815
:102690000121059101A900F0D9F9002200211C2097
:1026A00000F0EAFA1C2012E02B4A914212D10021DC
:1026B0000091026942F0020202610022006900F00A
:1026C0000200009000981D2000F0D6FA1D2000F0B6
:1026D000F0FA0DE0214A91420AD1002100910269ED
:1026E00042F004020261006900F0040000900098CA
:1026F00006B010BD10B586B000F022F8216816486B
:10270000814215D10022124800920222016841F054
:10271000020101600121006800F0020000900098B1
:102720000F4800F007F80221059101A900F08EF989
:1027300006B010BD019102920021039104917047EF
:1027400004461422002101A800F0DEBA40380240FD
:102750003038024000000240000400400008004001
:10276000000402407047704738B50446207F0828AF
:102770002FD1A34D2878A0B90C212046FFF7A7FD43
:102780006880A9886888814205D2411A298189B266
:10279000A3A000F0C3FA012000F01CF841F400519E
:1027A00016E0012815D10C212046FFF790FDA880E6
:1027B0000020216848626988A888814205D2411AB0
:1027C000E98089B29AA000F0A9FA002000F002F88E
:1027D000016231BD28702068016A21F42041016244
:1027E000016A704778B58DB000F0ACFA00F0BAF825
:1027F000002000904FF480558248834C016841F0DE
:102800008001016004F18006026802F080020092FB
:10281000002200990092036843F0010303600168FD
:1028200001F001010091009900921022036843F029
:10283000020303600021006800F00200009000988D
:1028400006A800F061FA00F088F800F081F84FF077
:102850008040206063216D48E06000226160A260DA
:102860002261A2612046FFF741FB069506A920469A
:10287000FFF7D0FC2046FFF75CFB0021009101919F
:102880002046694600F078FA002101220291039265
:10289000049105910C2202A92046FFF727FC00F0C5
:1028A00057F800F05AF85A48C4F88000002104F1A3
:1028B0008400016041608160C16041613046FFF782
:1028C00015FB029502A93046FFF7A4FC00210091F8
:1028D00001913046694600F04FFA1022002109A804
:1028E00000F012FA00F039F81C2200F032F84948E2
:1028F0002064632161640020A0644FF6FE712065AE
:10290000A065E16404F14000FFF7F0FA099509A918
:1029100004F14000FFF77EFC04F14000FFF7F3FAFA
:1029200000210091019104F14000694600F024FA71
:1029300000210291039104910691082202A904F159
:102940004000FFF7AFFB04F14000FFF7D3FEFEE7C6
:102950001022002102A800F0D7B908220021684601
:1029600000F0D2B980B592B03022002106A800F064
:10297000CBF91422002101A800F0C6F90020009034
:102980004FF480332448016841F0805101600021F8
:10299000006800F080500090009820480091026884
:1029A00022F4404242F4804202600122006800F4B6
:1029B0004040009006A80099069202214FF4800240
:1029C0000C910D92042164220E910F920221042297
:1029D00007931091119200F015FA02210291002242
:1029E00003920F204FF4A051019004914FF48052B4
:1029F0000592032101A800F08DFB13B000BD00007B
:102A0000C40300203038024090010020FEFF0F0078
:102A100000080040000400404038024000700040C0
:102A20006C6F776572207077203D20256400000070
:102A30007570706572207077203D2025640000005D
:102A40007047704770477047704770472DE9F84FDF
:102A50000D4600266E496F4A0F23044601202F6859
:102A6000B04000EA0708804540F0CB804FEA460CB2
:102A7000032707FA0CF76FEA070E6F68012F18BFDC
:102A8000022F03D0112F18BF122F12D1A768D5F82B
:102A90000C900EEA070709FA0CF949EA0707A76044
:102AA000676827EA00006F68C7F30017B74038432C
:102AB0006060E068AF680EEA000007FA0CF7384380
:102AC000E060B0006F68022F18BF122F12D1F70814
:102AD00004EB870700F01C09D7F820A003FA09FBD4
:102AE0002AEA0B0AD5F810B00BFA09F949EA0A09E3
:102AF000C7F8209027680EEA070E2F7907F0030722
:102B000007FA0CF747EA0E0727606F68FF0078D5D1
:102B1000002700974FEA960C176847F48047176024
:102B200000F00C00176807F48047009703FA00FED6
:102B3000009F394F57F82C7027EA0E0E374FBC42D2
:102B400008BF00272CD0364FBC4208BF012727D032
:102B5000344FBC4208BF022722D0334FBC4208BFCB
:102B600003271DD0314FBC4208BF042718D0304F77
:102B7000BC4208BF052713D02E4FBC4208BF062712
:102B80000ED02D4FBC4208BF072709D02B4FBC42A7
:102B900008BF082704D02A4FBC420CBF09270A27C8
:102BA00007FA00F01C4F40EA0E0047F82C006FEACD
:102BB00008000F6800EA070C6F68FF0348BF48EA87
:102BC0000C0CC1F800C04F6800EA070C6F68BF0327
:102BD00048BF48EA0C0CC1F804C08F6800EA070C33
:102BE0006F68FF0248BF48EA0C0CC1F808C0CF6804
:102BF00000EA070C6868800248BF48EA0C0CC1F87C
:102C00000CC0761C0F2E7FF629AFBDE8F18F0000B7
:102C1000003C0140443802400838014000000240B6
:102C20000004024000080240000C02400010024074
:102C30000014024000180240001C02400020024024
:102C4000002402400901020002D42948815470473F
:102C5000284B02F00F021A4402F8041C7047264B5E
:102C600019684FF6FF020002114000F4E0600843CB
:102C7000224908431860704770B51F4B1C68C4F3A5
:102C800002230124C3F10705052D2EBF0F2504FAE9
:102C900005F56D1E1E1D072E34BF0023DB1E2940C7
:102CA000994004FA03F3BDE870405B1E1A401143DB
:102CB000C8E7010007D4012200F01F01104B8A4031
:102CC000400943F82020704710B5401EB0F1807FC6
:102CD00001D3012010BD0B4C60600F214FF0FF307D
:102CE000FFF7B0FF0021A16007202060002010BD89
:102CF00000E400E018ED00E00CED00E00000FA0553
:102D000000E100E010E000E010B5044610460A467D
:102D10000146204600F0BEFA204610BD0EB4C0B5F4
:102D2000024603A800210190009101AB0121044853
:102D300078440C30FDF73AFA06BC5DF810FB00BF92
:102D4000EB0F000080B50B48016841F40071016091
:102D5000026842F480620260016841F4807101609F
:102D60000320FFF77CFF002000F0C8FAFFF752FCB9
:102D7000002002BD003C024070B500F13C031A780F
:102D8000012A01D1022070BD01221A7002245C7058
:102D900005686E68AC680A6826F0700616436E60B7
:102DA00002681148824218BFB2F1804F11D00F481B
:102DB00082421CBF0E4DAA420BD00E4882421CBF5D
:102DC0000D4DAA4205D00D4882421CBF0C4DAA42AF
:102DD00004D1486824F080040443946001215970B0
:102DE0000020187070BD0000000001400004004089
:102DF00000080040000C0040000401400040014079
:102E0000001800402DE9F843040016D02078DFF8C0
:102E1000F462C10713D5B06800F00C00042807D095
:102E2000B06800F00C0008283DD1706841023AD526
:102E30003068810303D56068002800F05E81207847
:102E4000B14F810719D5B06810F00C0F07D0B068EA
:102E500000F00C0008285BD17068410258D430683B
:102E6000810703D5E068012840F047813168206977
:102E700021F0F80141EAC00131602178080779D5D5
:102E80006069A249002868D001220A6000F056FA61
:102E90000546706F81076DD400F050FA401B022880
:102EA000F7D903202CE16068B0F5803F04D1306889
:102EB00040F48030306011E0B0F5A02F306806D1CA
:102EC00040F480203060316841F4803105E020F426
:102ED00080303060316821F480213160606858B101
:102EE00000F02CFA054630688103A8D400F026FAD9
:102EF000401B6528F7D3D4E700F020FA0546306878
:102F000081039CD500F01AFA401B6528F7D3C8E767
:102F1000E068A8B10121396000F010FA0546306878
:102F2000810705D400F00AFA401B0228F7D9B8E758
:102F30003068216920F0F80040EAC10030609CE769
:102F4000386000F0FBF905463168880795D500F038
:102F5000F5F9401B0228F7D9A3E7086000F0EEF965
:102F60000546706F810705D500F0E8F9401B02287F
:102F7000F7D996E7207841075FD5306C0025C1006E
:102F80000AD400950125316C41F080513164306CD8
:102F900000F0805000900098DFF87481D8F80000AD
:102FA000C10513D4D8F8000040F48070C8F80000C0
:102FB00000F0C4F98146D8F80000C10506D400F03D
:102FC000BDF9A0EB09000228F5D96AE7A06801283D
:102FD00005D00528306F06D140F004003067306F0F
:102FE00040F0010005E0400840003067306F20F0FD
:102FF0000400306741F28938A06860B100F09EF9A2
:103000008146306F810713D400F098F9A0EB0900D6
:103010004045F6D345E700F091F98146306F8107CE
:1030200006D500F08BF9A0EB09004045F6D338E750
:103030001DB1306C20F080503064A06900285ED053
:10304000B16801F00C0108293AD002282AD10020E9
:10305000386600F073F905463068810105D500F047
:103060006DF9401B0228F7D91BE7E069216A626A03
:103070000843A16A490840EA8210491E40EA01401B
:10308000E16A40EA016070600120386600F056F99C
:1030900004463068810132D400F050F9001B022848
:1030A000F7D9FEE60020386600F048F9044630689B
:1030B000810124D500F042F9001B0228F7D9F0E67F
:1030C00001281AD0B068E26900F48001914202BF81
:1030D00000F03F01226A91420FD147F6C071626A47
:1030E0000140914202BF00F44031A26A914202BF06
:1030F00000F07060E16A884201D0012000E0002009
:10310000BDE8F2830038024000004742800E47428B
:10311000007000402DE9F04104000F4654D0404EAD
:10312000306800F00F00B84202D200F073F84BD1C3
:1031300020683C4D810712D5400703D5A96841F4AA
:10314000E051A9602078010703D5A86840F46040E9
:10315000A860A968A06821F0F0010143A960217866
:10316000C80729D56068012802D129688A0305E0CB
:10317000022818BF032803D129688A0103D423E059
:1031800029688A0720D5A968890840EA8100A860D3
:1031900000F0D4F88046A868616800F00C00B0EB3D
:1031A000810F09D000F0CAF8A0EB080041F2893184
:1031B0008842F0D303202BE0306800F00F008742F4
:1031C00004D200F027F801D0012021E02078410747
:1031D00005D5AA68E06822F4E0520243AA6021788B
:1031E000080706D5A968206921F4604141EAC001B9
:1031F000A96000F01FF8AA680B490C4BC2F3031238
:10320000895CC84018600A48006800F077F8002020
:10321000BDE8F0813770316801F00F01B9427047A5
:10322000003C024000380240783C00080C000020BE
:103230000800002030B5144C606800F00C00042831
:1032400002D0082802D01DE0104830BD2268206856
:103250000023410202F03F0204D525680B49C5F363
:10326000881003E020680A49C0F38810A1FB000120
:10327000FEF7F4FC2168C1F30141491C4900B0FB91
:10328000F1F030BD024830BD0438024000127A002F
:103290000024F40062F30F2262F31F42401810F082
:1032A000030308D0C91A1FD3DB0748BF00F8012D5C
:1032B00028BF20F8022D130030B4144615461039EB
:1032C00028BF20E93C00FAD8490728BF20E90C00B4
:1032D00048BF40F8042D890028BF20F8022D48BFC0
:1032E00000F8012D30BC7047C91818BF00F8012D37
:1032F000CB0728BF00F8012D7047000038B50D4DF1
:103300000D4B2A7804464FF47A711868B1FBF2F23B
:10331000B0FBF2F0FFF7D8FC50B9102C08D2002215
:1033200021464FF0FF30FFF7A7FCAC60002032BD14
:10333000012032BD000000200C0000200148406840
:10334000704700BF0000002010B50446AFF30080B6
:10335000204600F005F80446AFF30080204610BD7B
:10336000F8B500F10F04E408E400A0422BD2082CC9
:1033700004D2082402E0083000F047F8DFF800210A
:103380001368190005D1002007E00568A5420DD299
:10339000011D08680028F8D11868111D00E0191DEA
:1033A0000B6883420BD01D68A542F8D359B10B6856
:1033B00018680838A04208D2586808600FE000F08A
:1033C00061F80028D7D10020F2BD181908601D1D32
:1033D000586828511E680F68361B3E601C600968DB
:1033E00000291DBF48680028081D0020106003F157
:1033F0000800F2BD10B5040006D0AFF300802046EF
:1034000000F003F8AFF3008010BD002800D1704732
:1034100070B4A0F108021368072B2ED913F0070F20
:103420002BD1DFF85C40616809B18A4203D2516058
:10343000626015E00146486808B19042FAD3086816
:103440000E18B24219D3964203D11B180B600A46DC
:1034500006E0486810B1134498420ED350604A60A9
:10346000506850B11368D518854206D100262660F1
:103470000168CB1813604068506070BC7047000052
:10348000D00300200749086808B1002070470648AB
:10349000C008C00008600549C908C900091A0160D0
:1034A000704700BFDC030020E7070020E009002090
:1034B0002DE9F04107468846387810F0030F16468C
:1034C0001D4633D0384600F099F878BBB8F1000FAC
:1034D0001CBFD8E900018619012D2ED13888C104FE
:1034E00015D5396A07F14402384600F0A3F83A6B63
:1034F000044602B93A69F968384600F09BF8361B71
:10350000341A7A69F968384600F094F8261A1EB918
:103510004DB916F1010F09D097F903002A4631463B
:1035200000F08EF8064616F1010F09D12320AFF303
:1035300000804FF0FF30BDE8F081022DE8D1EBE7CD
:10354000388810F4405F0ED07868F8603861786190
:10355000B86107F144017868F861396207F1300019
:10356000002178623963B8F1000F05D0D8E9020173
:1035700007F13402C2E900013B884CF6FF600340CA
:103580003B800020BDE8F08170B50546AFF30080B8
:10359000288881042DD56E68002400E00644EA687E
:1035A00095F903003146914208D2521A00F06EF8A4
:1035B00010F1010F09D00028F0D106E0002200210F
:1035C00000F064F810F1010F00D101246868E86090
:1035D000A861E861298844B141F400712980284636
:1035E000AFF300804FF0FF3070BD4DF6FF7001402B
:1035F00029802846AFF30080002070BDF8B5A0B93F
:10360000AFF3008000250A4E08244FF0FF373068E2
:1036100020B1FFF7B9FF002848BF3D46361D641EA4
:10362000F5D1AFF300802846F2BDBDE8F240ABE72C
:1036300068010020914234BF511A002108467047AA
:103640003EB504000D00012A02D100F079F807E030
:10365000022A07D100940020019069460C20ABBEDD
:103660002D1801E0002A0CD10094019569460A202A
:10367000ABBE002805D100222100280000F082F80E
:1036800001E00020C04303B030BD0000F8B50D00DC
:10369000164611D1012818BF10F1010F0AD1274990
:1036A0000A6D3AB100230B65012000F091F810F18A
:1036B000010F3DD00020F2BD012803D0BDE8F84045
:1036C00000F086B81D4F3A6D502E12D942B100203D
:1036D00038653946012000F07BF810F1010F27D042
:1036E00032462946012000F073F810F1010F23D172
:1036F0001EE03446FCB10020B918502A0AD215F851
:10370000013B01F8013B0A2B08BF0120521C641E3B
:10371000F3D100E004B970B1002AEBD00020386585
:103720003946012000F054F83A6D10F1010FE1D153
:103730004FF0FF30F2BD3A653046F2BDD0020020B6
:1037400010B40F4A002113461C6884421EBF491C56
:103750009C6884421EBF491C1C6984420AD09C6933
:10376000491C844206D0491C20331029ECD310BCDC
:103770000020704702EBC100406810BC704700BFDA
:103780005002002070B4114C002325462E688E4252
:103790001EBF5B1CAE688E421EBF5B1C2E698E4234
:1037A00009D0AE695B1C8E4205D05B1C2035102B06
:1037B000ECD370BC7047054604EBC303012A04BF79
:1037C00059684D195D6070BC704700BF5002002001
:1037D00080B5002901D1002002BD012801D00228B6
:1037E00002D100F005F802BD00F02AF802BD000089
:1037F00070B40B00002111480068C0010FD408000C
:1038000070BC70475D782D0225439C7826042E43BA
:10381000DC78240634431B1D0460121F091D002A96
:10382000EDD0E02000060468002CFAD01C78042AB1
:10383000E8D204705B1C491C521EF0E7FCED00E06E
:1038400018B583B0030014000093019102946946F7
:103850000520ABBE01221900201AFFF793FF04B028
:1038600010BD10B50446E068A169884251D3218893
:1038700049F202030B40022B08D008044CBF4FF45E
:1038800000704FF48440014321803BE001F4C042CA
:10389000B2F5C04F06D1A168884203D32046FFF796
:1038A000ADFE78BB208810F4406F02BF606804F161
:1038B0004401884217D14FF40070FFF745FD606066
:1038C00030B904F144006060E060401CA0600AE090
:1038D000218841F040012180E060606100F50072C4
:1038E0006068A260E0616068A1682061A1612078E1
:1038F00041070AD502220021204600F00CF810F101
:10390000010F02D14FF0FF3010BD208840F4C040BD
:103910002080002010BD70B504460D461646AFF35A
:10392000008033462A4600212046FFF7C1FD0546A8
:103930002046AFF30080284670BD000082B00178B9
:103940000A062FD523490B6800930022834203D136
:10395000002341F8223022E04B6800930122834289
:103960001FBF02228B6800938342F1D0CB68009383
:10397000032283421FBF04220B6900938342E7D0D6
:103980004B690093052283421FBF06228B69009377
:103990008342DDD00722CB6900938342D8D002B0A6
:1039A00000F01AB8002101804FF0FF3200F144010D
:1039B000C270C1604161C16100F1440300F1440281
:1039C00000F130014360026182610262416202B033
:1039D0007047000068010020FFF70CBD38B50400F7
:1039E0000ED0207810F0030F03D094F903000028C4
:1039F00009D5AFF300802046FFF7A0FFAFF30080AA
:103A00004FF0FF3032BD2046FFF7F8FD0546AFF31B
:103A100000802078410644BF6068FFF7DDFF00208A
:103A2000606094F90300022804D900F016F808B188
:103A30004FF0FF35E06B48B100F01BF808B14FF0D4
:103A4000FF35E06BFFF7C8FF0020E0632046FFF77B
:103A500075FFAFF30080284632BD1CB5020000920E
:103A600069460220ABBE0400100000F00DF82000F3
:103A700016BDE0B50090FDF791FC019069460E205F
:103A8000ABBE03B000BD000010B4104A00211346C5
:103A90001C6884421EBF491C9C6884421EBF491C8E
:103AA0001C69844209D09C69491C844205D0491C88
:103AB00020331029ECD310BC7047002342F831307A
:103AC00002EBC1014B6010BC704700BF50020020E8
:103AD000F0B40246106895681318506803EB500460
:103AE000C0071CD54D441AE013F8017B05F8017B93
:103AF000491EF9D198B113F8011BC6F38106032EB4
:103B000008BF13F8016B01EB06214942801C2944D0
:103B100005D011F8016B05F8016B401EF9D1A342E5
:103B20000ED013F8016B16F0030104BF13F8011B4C
:103B3000C91C30090F28DBD113F8010B0F30D7E770
:103B4000F0BC02F10C0070477047FEE7FEE7FEE7AD
:103B5000FEE770477047704700F030B81248FEF734
:103B6000FDB910B51148FEF7F9F91148114A41881D
:103B70000B0011D11049C4880B686400B3FBF4F149
:103B8000491E01800A2389B2491E8900B1FBF3F165
:103B900089B21160012103E0012903D100211160E4
:103BA00012688280418010BD90010020D001002069
:103BB00088010020400400400C00002002484168B9
:103BC00002788A18426070470000002038B50C4621
:103BD000C5B22046AFF30080E068A169884204D3F3
:103BE0002046FFF73EFE00280FD4E068401CE0604E
:103BF00000F8015D2088010503D440050BD50A2D8E
:103C000009D12046FFF7FAFC28B12046AFF3008027
:103C10004FF0FF3032BD2046AFF30080284632BD62
:103C200038B50D4D0824286800281CBF017811F014
:103C3000030F05D090F90310002958BFFFF7CEFEFF
:103C40002D1D641EEFD1BDE83840002200214FF049
:103C5000FF30FFF71BBD00BF680100200448054A84
:103C6000016841F4700101604FF00060106070471E
:103C700088ED00E008ED00E000000000000000001A
:103C8000010203040607080910B5074979441831F1
:103C9000064C7C44163404E00A68081D1144884729
:103CA0000146A142F8D110BD2C00000048000000E0
:103CB0004EF68851CEF20001086840F470000860AA
:103CC000BFF34F8FBFF36F8F4FF00070E1EE100A1C
:103CD000704700009FD5FFFF5002000090010020B8
:103CE00000000000EDFDFFFFE001000012010000F8
:103CF0000000002000F00DF8002801D0FFF7C4FFFD
:103D0000AFF300800020AFF30080FEF76BFD00F002
:103D100002F80120704700F001B800000746FFF7E5
:103D20007FFF3846FEF7D8F8FBE738B504460D4666
:103D3000284600F005F8A84218BF0024204632BDEE
:103D40000149FFF743BF00BFD8000020014880476A
:103D5000014800475D3C00085D3D0008AFF300806E
:103D6000FFF7A6FFFFF7C6FFFFF7FEBFFFF7FEBF97
:103D7000FFF7FEBFFFF7FEBFFFF7FEBFFFF7FEBF77
:103D8000FFF7FEBFFFF7FEBFFFF7FEBFFFF7FEBF67
:103D9000FFF7FEBFFFF7FEBFFFF7FEBFFFF7FEBF57
:103DA000FFF7FEBFFFF7FEBFFFF7FEBFFFF7FEBF47
:103DB000FFF7FEBFFFF7FEBFFFF7FEBFFFF7FEBF37
:103DC000FFF7FEBFFFF7FEBFFFF7FEBFFFF7FEBF27
:103DD000FFF7FEBFFFF7FEBFFFF7FEBFFFF7FEBF17
:103DE000FFF7FEBFFFF7FEBFFFF7FEBFFFF7FEBF07
:103DF000FFF7FEBFFFF7FEBFFFF7FEBFFFF7FEBFF7
:103E0000FFF7FEBFFFF7FEBFFFF7FEBFFFF7FEBFE6
:103E1000FFF7FEBFFFF7FEBFFFF7FEBFFFF7FEBFD6
:103E2000FFF7FEBFFFF7FEBFFFF7FEBFFFF7FEBFC6
:103E3000FFF7FEBFFFF7FEBFFFF7FEBFFFF7FEBFB6
:103E4000FFF7FEBFFFF7FEBFFFF7FEBFFFF7FEBFA6
:103E5000FFF7FEBFFFF7FEBFFFF7FEBFFFF7FEBF96
:103E6000FFF7FEBFFFF7FEBFFFF7FEBFFFF7FEBF86
:103E7000FFF7FEBFFFF7FEBFFFF7FEBFFFF7FEBF76
:103E8000FFF7FEBFFFF7FEBFFFF7FEBFFFF7FEBF66
:103E9000FFF7FEBFFFF7FEBFFFF7FEBFFFF7FEBF56
:103EA000FFF7FEBFFFF7FEBFFFF7FEBFFFF7FEBF46
:103EB000FFF7FEBFFFF7FEBFFFF7FEBFFFF7FEBF36
:103EC000FFF7FEBFFFF7FEBF43010001221008F01D
:103ED000050724F400721500080452FF01E3D21311
:103EE0001420040000D21400084C1148F3162000DE
:103EF00001125148212C433F133C210110030104BE
:103F00000000D44412D50452D404211BA108F2129B
:103F1000C06410070204010174030020C404527439
:103F20000421346108F004121C01002008014850EB
:103F3000020802022440522404352B510812644422
:103F4000F21250481290B412D804F20C202C034CF8
:013F50001D53
:0400000508003D5D55
:00000001FF
