:020000040800F2
:10000000580400203D140008C5130008C713000859
:10001000C9130008CB130008CD130008000000002E
:10002000000000000000000000000000CF130008E6
:10003000D113000800000000D3130008D5130008F6
:10004000591400085D1400086114000865140008C4
:10005000691400086D140008711400087514000874
:10006000791400087D140008811400088514000824
:10007000891400088D1400089114000895140008D4
:10008000991400089D140008D9130008A114000851
:10009000A5140008A9140008AD140008B114000844
:1000A000B5140008B9140008BD140008C1140008F4
:1000B000C5140008C9140008CD140008D1140008A4
:1000C000D5140008D9140008DD140008E114000854
:1000D000E5140008E9140008ED140008F114000804
:1000E000F5140008F9140008FD14000801150008B3
:1000F00005150008091500080D1500081115000860
:1001000015150008191500081D150008211500080F
:1001100025150008291500082D15000831150008BF
:1001200035150008391500083D150008411500086F
:1001300045150008491500084D150008511500081F
:1001400055150008591500085D15000861150008CF
:1001500065150008691500086D150008711500087F
:1001600075150008791500087D150008811500082F
:1001700085150008891500088D150008000000008D
:100180009115000895150008991500089D1500089F
:10019000A1150008A5150008A9150008AD1500084F
:1001A000B1150008B5150008B915000870B504466A
:1001B00000250CB9012070BD04F13006306920B96A
:1001C000204600F009FA756135733069C10600F107
:1001D00092803069DFF8B41320F4885040F00200B8
:1001E0003061086820F4403008600A6860680243A3
:1001F0000A602068416821F480714160206841688C
:10020000226941EA022141602068416821F0407181
:10021000416021684A68A06802434A60206881689A
:1002200021F40061816021688A68E06802438A6085
:100230002068A16ADFF858239142816821F070613B
:1002400081600CD021688A68A06A02438A6000F04D
:100250005BF821688A68E06A02438A6001E000F086
:1002600053F82068816821F0020100F049F8227EED
:1002700041EA4201816094F8200021680028486822
:100280000FD040F4006048602068416821F460416C
:10029000416020684168626A521E41EA4231416011
:1002A00002E020F4006048602068C16A21F4700117
:1002B000C1622068C16AE269521E41EA0251C1620C
:1002C0002068816821F4007100F01AF8327841EA60
:1002D000422100F015F821F4806100F011F8626904
:1002E00041EA822181607561316921F0020141F0AA
:1002F0000101316100E0012500203073284670BD06
:1003000081602068816870472068816821F04051D1
:100310008160704738B50446206801680246890745
:10032000506829D5800627D5216CC80603D4216CD6
:1003300041F400712164916811F0405F04BF207E98
:10034000002812D1D06A10F4700F02D091684805CD
:100350000BD4506820F020005060206C20F4807096
:100360002064206CC10400F066F8204600F072F9A9
:1003700021686FF012000860226811685068490710
:1003800030D500062ED5216CC80603D4216C41F46B
:1003900000512164916811F4401F1CD1916B11F43C
:1003A000401F02D09168480515D45068410512D409
:1003B000916811F0405F04BF207E00280BD1506887
:1003C00020F080005060206C20F480502064206C6D
:1003D000C10500F030F8204600F03EF921686FF0CA
:1003E0000C000860206802684168D2070FD54906F2
:1003F0000DD50068C1070AD5206C40F48030206418
:10040000204600F02AF921686FF00100086020689A
:100410000268416892060DD549010BD5626C42F025
:10042000020262646FF020050560204600F016F9B4
:100430002068056031BD03D4206C40F001002064C9
:10044000704778B502460020009092F83C30012BAE
:1004500001D1022072BD012082F83C0007240B6804
:1004600010680A2B12D30A3BC56803EB43039C4078
:1004700025EA0404C460C3680D688C68A5F10A0607
:1004800006EB4606B4402343C3600FE0056903EB67
:10049000430304FA03F325EA0303036103690D68C8
:1004A0008C6805EB4505AC40234303611F244B6872
:1004B000072B0CD25B1E456B00F059F84463436B6D
:1004C0004D680C886E1E00F04DF843631BE00D2B49
:1004D0000CD2DB1F056B00F04AF80463036B4D6818
:1004E0000C88EE1F00F03EF803630CE00D3BC56A7C
:1004F00000F03DF8C462C36A4D680C88A5F10D0692
:1005000000F030F8C362234B984226D10C681F4894
:10051000122C07D1036823F400030360046844F439
:10052000800404600B681E4CA34218BF112B14D129
:10053000036823F480030360056845F40005056043
:100540000868A04209D11549134C0B68B3FBF4F4B9
:100550000A204443009400F010F8002182F83C1077
:10056000002072BD06EB8606B4402343704703EBC0
:1005700083039C4025EA0404704702E00098401E73
:10058000009000980028F9D1704700000423014032
:100590000100000F0020014040420F000C0000202D
:1005A0001200001081B00020009000222548416810
:1005B00041F480414160416801F48041009100991B
:1005C0000092036843F080530360006800F080509D
:1005D0000090009801B0704710B586B00446142210
:1005E000002101A800F03BF821681748814227D17B
:1005F000002216480092416941F40071416141694D
:1006000001F400710091009900920121036843F008
:10061000040303600322006800F0040000900098C7
:100620000B48019102920021039101A900F022F8E8
:1006300000220021122000F037F9122000F051F9B9
:1006400006B010BD40380240002101403038024061
:10065000000802407047000070477047704710B5AF
:10066000044610460A460146204600F065F9204639
:1006700010BD00002DE9F84F0D4600267049714A63
:100680000F23044601202F68B04000EA0708804588
:1006900040F0CB804FEA460C032707FA0CF76FEACD
:1006A000070E6F68012F18BF022F03D0112F18BF3C
:1006B000122F12D1A768D5F80C900EEA070709FA95
:1006C0000CF949EA0707A760676827EA00006F6826
:1006D000C7F30017B74038436060E068AF680EEAC0
:1006E000000007FA0CF73843E060B0006F68022F93
:1006F00018BF122F12D1F70804EB870700F01C096E
:10070000D7F820A003FA09FB2AEA0B0AD5F810B0A3
:100710000BFA09F949EA0A09C7F8209027680EEA96
:10072000070E2F7907F0030707FA0CF747EA0E07C1
:1007300027606F68FF0078D5002700974FEA960C76
:10074000176847F48047176000F00C00176807F43B
:100750008047009703FA00FE009F3B4F57F82C702C
:1007600027EA0E0E394FBC4208BF00272CD0384F65
:10077000BC4208BF012727D0364FBC4208BF022722
:1007800022D0354FBC4208BF03271DD0334FBC4297
:1007900008BF042718D0324FBC4208BF052713D02A
:1007A000304FBC4208BF06270ED02F4FBC4208BFB7
:1007B000072709D02D4FBC4208BF082704D02C4F73
:1007C000BC420CBF09270A2707FA00F01E4F40EA77
:1007D0000E0047F82C006FEA08000F6800EA070CCB
:1007E0006F68FF0348BF48EA0C0CC1F800C04F68AF
:1007F00000EA070C6F68BF0348BF48EA0C0CC1F859
:1008000004C08F6800EA070C6F68FF0248BF48EA1F
:100810000C0CC1F808C0CF6800EA070C68688002B9
:1008200048BF48EA0C0CC1F80CC0761C0F2E7FF6AE
:1008300029AFBDE8F18F02B909048161704700005A
:10084000003C0140443802400838014000000240AA
:100850000004024000080240000C02400010024068
:100860000014024000180240001C02400020024018
:10087000002402400901020002D429488154704733
:10088000284B02F00F021A4402F8041C7047264B52
:1008900019684FF6FF020002114000F4E0600843BF
:1008A000224908431860704770B51F4B1C68C4F399
:1008B00002230124C3F10705052D2EBF0F2504FADD
:1008C00005F56D1E1E1D072E34BF0023DB1E2940BB
:1008D000994004FA03F3BDE870405B1E1A401143CF
:1008E000C8E7010007D4012200F01F01104B8A4025
:1008F000400943F82020704710B5401EB0F1807FBA
:1009000001D3012010BD0B4C60600F214FF0FF3070
:10091000FFF7B0FF0021A16007202060002010BD7C
:1009200000E400E018ED00E00CED00E00000FA0546
:1009300000E100E010E000E062F30F2262F31F42EA
:10094000401810F0030308D0C91A1FD3DB0748BFB3
:1009500000F8012D28BF20F8022D130030B41446F2
:100960001546103928BF20E93C00FAD8490728BFAE
:1009700020E90C0048BF40F8042D890028BF20F86A
:10098000022D48BF00F8012D30BC7047C91818BFB0
:1009900000F8012DCB0728BF00F8012D704700009B
:1009A00010B500F007F8186000223BE010B500F029
:1009B00001F835E0B44BB54C704780B500220221F8
:1009C000B248FFF738FF642000F07AF93020FFF7D3
:1009D000E7FF1E2000F074F93020FFF7E1FF00F080
:1009E00018F83020FFF7DCFF00F013F83820FFF78D
:1009F000D7FF00F00EF81020FFF7D2FF00F009F843
:100A00000C20FFF7CDFF00F004F8BDE802400620FF
:100A1000C6E70A2000F054B910B5FFF7CBFF00205D
:100A20001860012201212046FFF705FF0122022163
:100A30002046FFF700FF012000F042F92046BDE804
:100A4000104000220221FFF7F6BE70B50446FFF702
:100A5000E3FF00250026A05D02E02800FBD0002077
:100A6000FFF7A4FFA05D00B90125761C102EF4DB72
:100A700070BD00002DE9F84386B000F035F900F0B4
:100A8000BAF800F013F900200090804D8048814CA6
:100A9000016841F080010160026802F0800200926A
:100AA000002200990092036843F004030360016888
:100AB00001F00401009100990092036843F00103E2
:100AC0000360016801F00101009100990092032187
:100AD000036843F008030360006800F0080000901A
:100AE00000982846FFF7A7FE0022FF212046FFF7C7
:100AF000A2FE03210191012202920021039103220F
:100B0000049201A92846FFF7B5FDFF2101910122BA
:100B1000002103910491029201A92046FFF7AAFD4A
:100B2000102200216846FFF79AFD5B4C5B4820606D
:100B30004FF480315A48A0626160012000220121F7
:100B4000E0616061A2602261217684F82020E26287
:100B5000E26084F830202046FFF728FB0A200121BC
:100B6000009001910022029269462046FFF769FC3D
:100B7000FFF723FF50A0FFF768FFC82000F0A0F8A0
:100B8000FFF74AFF3027302530264FF00A0916E0DC
:100B9000FFF742FFB8F1010817D12846FFF706FF1B
:100BA0006D1C641EEDB20BD13846FFF7FFFE7F1CB3
:100BB000B9F10109FFB2E5D03A2F08BF30270A2466
:100BC0003A2D08BF30254FF00A08F0B23A2808BF86
:100BD0003026F0B2FFF7EAFE4FF47A7000F070F8BA
:100BE000761C322F02BF312DF0B23228D0D1002036
:100BF00007B0BDE8F08380B592B03022002106A88E
:100C0000FFF72DFD00F052F8002000904FF48033E4
:100C10002448016841F0805101600021006800F023
:100C200080500090009820480091026842F44042B1
:100C300002600122006800F44040009006A800997C
:100C4000069202214FF480020C910D920421A822F9
:100C50000E910F920221042207931091119200F03D
:100C60005DF802210291002203920F204FF4A0515F
:100C7000019004914FF480520592052101A800F0E3
:100C8000D5F913B000BD0000140C02400000024072
:100C900030380240000C02401000002000210140CA
:100CA0000100000F40380240007000401422002173
:100CB00001A8FFF7D4BC00004C61623800000000BE
:100CC00038B5044600F072FA14F1010F054602D05F
:100CD00004480178641800F069FA401BA042FAD376
:100CE00031BD00BF0000002080B50B48016841F411
:100CF00000710160026842F480620260016841F4A0
:100D0000807101600320FFF7C2FD002000F054FA5B
:100D1000FFF748FC002002BD003C02402DE9F843EB
:100D2000040016D02078DFF8F462C10713D5B0684C
:100D300000F00C00042807D0B06800F00C00082870
:100D40003DD1706841023AD53068810303D56068AF
:100D5000002800F05E812078B14F810719D5B06876
:100D600010F00C0F07D0B06800F00C0008285BD121
:100D70007068410258D43068810703D5E0680128C3
:100D800040F047813168206921F0F80141EAC00153
:100D900031602178080779D56069A249002868D0B8
:100DA00001220A6000F002FA0546706F81076DD4D7
:100DB00000F0FCF9401B0228F7D903202CE1606801
:100DC000B0F5803F04D1306840F48030306011E0ED
:100DD000B0F5A02F306806D140F480203060316833
:100DE00041F4803105E020F480303060316821F436
:100DF00080213160606858B100F0D8F9054630684C
:100E00008103A8D400F0D2F9401B6528F7D3D4E7BA
:100E100000F0CCF90546306881039CD500F0C6F996
:100E2000401B6528F7D3C8E7E068A8B10121396005
:100E300000F0BCF905463068810705D400F0B6F92A
:100E4000401B0228F7D9B8E73068216920F0F80084
:100E500040EAC10030609CE7386000F0A7F9054621
:100E60003168880795D500F0A1F9401B0228F7D911
:100E7000A3E7086000F09AF90546706F810705D571
:100E800000F094F9401B0228F7D996E72078410733
:100E90005FD5306C0025C1000AD400950125316C66
:100EA00041F080513164306C00F080500090009827
:100EB000DFF87481D8F80000C10513D4D8F8000019
:100EC00040F48070C8F8000000F070F98146D8F84E
:100ED0000000C10506D400F069F9A0EB0900022862
:100EE000F5D96AE7A068012805D00528306F06D13A
:100EF00040F004003067306F40F0010005E040082A
:100F000040003067306F20F00400306741F28938CC
:100F1000A06860B100F04AF98146306F810713D4B0
:100F200000F044F9A0EB09004045F6D345E700F096
:100F30003DF98146306F810706D500F037F9A0EB07
:100F400009004045F6D338E71DB1306C20F08050E1
:100F50003064A06900285ED0B16801F00C01082956
:100F60003AD002282AD10020386600F01FF9054641
:100F70003068810105D500F019F9401B0228F7D926
:100F80001BE7E069216A626A0843A16A490840EAEE
:100F90008210491E40EA0140E16A40EA0160706047
:100FA0000120386600F002F904463068810132D42D
:100FB00000F0FCF8001B0228F7D9FEE60020386696
:100FC00000F0F4F804463068810124D500F0EEF812
:100FD000001B0228F7D9F0E601281AD0B068E269B0
:100FE00000F48001914202BF00F03F01226A914269
:100FF0000FD147F6C071626A0140914202BF00F40E
:101000004031A26A914202BF00F07060E16A8842FA
:1010100001D0012000E00020BDE8F283003802404A
:1010200000004742800E4742007000402DE9F04129
:1010300004000F4654D0404E306800F00F00B84214
:1010400002D200F073F84BD120683C4D810712D5D5
:10105000400703D5A96841F4E051A9602078010751
:1010600003D5A86840F46040A860A968A06821F092
:10107000F0010143A9602178C80729D560680128DB
:1010800002D129688A0305E0022818BF032803D18A
:1010900029688A0103D423E029688A0720D5A96832
:1010A000890840EA8100A86000F080F88046A868BE
:1010B000616800F00C00B0EB810F09D000F076F809
:1010C000A0EB080041F289318842F0D303202BE0E5
:1010D000306800F00F00874204D200F027F801D0FA
:1010E000012021E02078410705D5AA68E06822F4B4
:1010F000E0520243AA602178080706D5A968206952
:1011000021F4604141EAC001A96000F01FF8AA681B
:101110000B490C4BC2F30312895CC84018600A48A3
:10112000006800F049F80020BDE8F08137703168B0
:1011300001F00F01B9427047003C02400038024004
:10114000581300080C0000200800002030B5144C93
:10115000606800F00C00042802D0082802D01DE0CE
:10116000104830BD226820680023410202F03F028F
:1011700004D525680B49C5F3881003E020680A49A7
:10118000C0F38810A1FB000100F036F82168C1F31C
:101190000141491C4900B0FBF1F030BD024830BDAF
:1011A0000438024000127A000024F400014840682C
:1011B000704700BF0000002038B50D4D0D4B2A7858
:1011C00004464FF47A711868B1FBF2F2B0FBF2F00A
:1011D000FFF792FB50B9102C08D2002221464FF0A5
:1011E000FF30FFF761FBAC60002032BD012032BD53
:1011F000000000200C000020D3BBD9B1B2F5803F25
:101200005BD2022A1ED98C46B1FBF2F102FB11C35C
:101210001B0443EA1043B3FBF2FC02FB1C3380B215
:1012200040EA0343B3FBF2F002FB103240EA0C4009
:1012300000237047022A05D98446B0FBF2F002FB76
:1012400010C270474AB105D100F0010249085FEAB7
:101250003000704700220023704700F051B80B00A7
:101260000200002100207047F7D3002200237047BE
:10127000904271EB030CF2D370B5B1FA81F4B3FA7A
:1012800083F52C1BA340C4F1200532FA05F6334345
:10129000A2405FF00046E64002E05B085FEA3202EF
:1012A000841A71EB030524BF204629467641F4D306
:1012B00002000B003000002170BD70B5B1FA81F45E
:1012C000B2FA82F5C4F120046419B4F12006DAD32D
:1012D000B2405FF00044F440002502E052085FEAAB
:1012E0003303C61A71EB020E24BF304671466441C7
:1012F0006D41F3D302000B002000290070BD0000F7
:10130000704730B5016884684218416802EB5103A8
:10131000C90703D54C4401E0491C05D19A420AD0C3
:1013200012F9011B12F8015B002904F8015BF3D4E8
:10133000491EF7D5F2E70C3030BD00000448054ADD
:10134000016841F4700101604FF000601060704767
:1013500088ED00E008ED00E0000000000000000063
:10136000010203040607080910B50749794418313A
:10137000064C7C44163404E00A68081D1144884772
:101380000146A142F8D110BD2C0000003800000039
:101390004EF68851CEF20001086840F470000860F3
:1013A000BFF34F8FBFF36F8F4FF00070E1EE100A65
:1013B000704700004FFFFFFF040200001A0000000A
:1013C000000000207047FEE7FEE7FEE7FEE77047FB
:1013D0007047704700F006B80148FEF79BBF000059
:1013E000100000200248416802788A184260704765
:1013F0000000002000F00DF8002801D0FFF7B4FF36
:10140000AFF300800020AFF30080FFF733FB00F064
:1014100002F80120704700F001B800000746384686
:1014200000F002F8FBE7000080B5AFF30080024A4D
:1014300011001820ABBEFBE72600020001488047E0
:10144000014800473D1300084D140008AFF3008029
:10145000FFF79EFFFFF7CEFFFFF7FEBFFFF7FEBFD0
:10146000FFF7FEBFFFF7FEBFFFF7FEBFFFF7FEBFB0
:10147000FFF7FEBFFFF7FEBFFFF7FEBFFFF7FEBFA0
:10148000FFF7FEBFFFF7FEBFFFF7FEBFFFF7FEBF90
:10149000FFF7FEBFFFF7FEBFFFF7FEBFFFF7FEBF80
:1014A000FFF7FEBFFFF7FEBFFFF7FEBFFFF7FEBF70
:1014B000FFF7FEBFFFF7FEBFFFF7FEBFFFF7FEBF60
:1014C000FFF7FEBFFFF7FEBFFFF7FEBFFFF7FEBF50
:1014D000FFF7FEBFFFF7FEBFFFF7FEBFFFF7FEBF40
:1014E000FFF7FEBFFFF7FEBFFFF7FEBFFFF7FEBF30
:1014F000FFF7FEBFFFF7FEBFFFF7FEBFFFF7FEBF20
:10150000FFF7FEBFFFF7FEBFFFF7FEBFFFF7FEBF0F
:10151000FFF7FEBFFFF7FEBFFFF7FEBFFFF7FEBFFF
:10152000FFF7FEBFFFF7FEBFFFF7FEBFFFF7FEBFEF
:10153000FFF7FEBFFFF7FEBFFFF7FEBFFFF7FEBFDF
:10154000FFF7FEBFFFF7FEBFFFF7FEBFFFF7FEBFCF
:10155000FFF7FEBFFFF7FEBFFFF7FEBFFFF7FEBFBF
:10156000FFF7FEBFFFF7FEBFFFF7FEBFFFF7FEBFAF
:10157000FFF7FEBFFFF7FEBFFFF7FEBFFFF7FEBF9F
:10158000FFF7FEBFFFF7FEBFFFF7FEBFFFF7FEBF8F
:10159000FFF7FEBFFFF7FEBFFFF7FEBFFFF7FEBF7F
:1015A000FFF7FEBFFFF7FEBFFFF7FEBFFFF7FEBF6F
:1015B000FFF7FEBFFFF7FEBFFFF7FEBF0001F90018
:0915C0000010FC000124F4B70046
:040000050800144D8E
:00000001FF
