:020000040800F2
:10000000A004002001190008B1170008B317000868
:10001000B5170008B7170008B9170008000000005E
:10002000000000000000000000000000BB170008F6
:10003000BD17000800000000BF170008C117000826
:1000400035190008391900083D1900084119000840
:1000500045190008491900084D19000851190008F0
:1000600055190008591900085D19000861190008A0
:1000700065190008691900086D1900087119000850
:1000800075190008791900087D1900088119000800
:1000900085190008891900088D19000891190008B0
:1000A00095190008E9170008991900089D1900081A
:1000B000A1190008A5190008A9190008AD19000820
:1000C000B1190008B5190008B9190008BD190008D0
:1000D000C1190008C5190008C9190008CD19000880
:1000E000D1190008D5190008D9190008DD19000830
:1000F000E1190008E5190008E9190008ED190008E0
:10010000F1190008F5190008F9190008FD1900088F
:10011000011A0008051A0008091A00080D1A00083B
:10012000111A0008151A0008191A00081D1A0008EB
:10013000211A0008251A0008291A00082D1A00089B
:10014000311A0008351A0008391A00083D1A00084B
:10015000411A0008451A0008491A00084D1A0008FB
:10016000511A0008551A0008591A00085D1A0008AB
:10017000611A0008651A0008691A000800000000EA
:100180006D1A0008711A0008751A0008791A00081B
:100190007D1A0008811A0008851A0008891A0008CB
:1001A0008D1A0008911A0008951A000870B50446C7
:1001B00000250CB9012070BD04F13006306920B96A
:1001C000204600F017FA756135733069C10600F1F9
:1001D00092803069DFF8C01320F4885040F00200AC
:1001E0003061086820F4403008600A6860680243A3
:1001F0000A602068416821F480714160206841688C
:10020000226941EA022141602068416821F0407181
:10021000416021684A68A06802434A60206881689A
:1002200021F40061816021688A68E06802438A6085
:100230002068A16ADFF864239142816821F070612F
:1002400081600CD021688A68A06A02438A6000F04D
:100250005BF821688A68E06A02438A6001E000F086
:1002600053F82068816821F0020100F049F8227EED
:1002700041EA4201816094F8200021680028486822
:100280000FD040F4006048602068416821F460416C
:10029000416020684168626A521E41EA4231416011
:1002A00002E020F4006048602068C16A21F4700117
:1002B000C1622068C16AE269521E41EA0251C1620C
:1002C0002068816821F4007100F01AF8327841EA60
:1002D000422100F015F821F4806100F011F8626904
:1002E00041EA822181607561316921F0020141F0AA
:1002F0000101316100E0012500203073284670BD06
:1003000081602068816870472068816821F04051D1
:100310008160704738B500F065F801D1022032BD28
:1003200000F074F837D500F045F846BF906820F02B
:100330000600002000F036F80868DFF85C22436809
:1003400043F0806343F02003436000F058F818D175
:1003500088420FD0DFF84812884204D1126812F0A8
:100360001F0F18D106E0DFF83C12884213D100F0CD
:1003700014F810D2816811F0405F0CD100F03AF807
:1003800009E0884202BFDFF82002016811F0405FF7
:1003900001D100F022F8002032BD126802F01F02E5
:1003A000102A70479060002313706FF022000A68D3
:1003B000106070475568DFF8F401054045F480751A
:1003C00055605868430505D5506820F4005040F446
:1003D000805050605068C3047047016841F080410C
:1003E000016070470146002001F13C020090137843
:1003F000012B7047816841F0804181607047086837
:100400001368DFF8AC1113F01F0F70470120107054
:1004100008688368DC0714D48368DFF8984143F0E8
:1004200001038360DFF890010368B3FBF4F404EB8D
:100430004404009402E00098401E009000980028B8
:10044000F9D10B689868C40770470068C06C7047A2
:1004500078B502460020009092F83C30012B01D183
:10046000022072BD012082F83C0007240B6810684E
:100470000A2B12D30A3BC56803EB43039C4025EAD1
:100480000404C460C3680D688C68A5F10A0606EB15
:100490004606B4402343C3600FE0056903EB430302
:1004A00004FA03F325EA0303036103690D688C680A
:1004B00005EB4505AC40234303611F244B68072B24
:1004C0000CD25B1E456B00F059F84463436B4D68DA
:1004D0000C886E1E00F04DF843631BE00D2B0CD210
:1004E000DB1F056B00F04AF80463036B4D680C8852
:1004F000EE1F00F03EF803630CE00D3BC56A00F010
:100500003DF8C462C36A4D680C88A5F10D0600F081
:1005100030F8C362264B984226D10C681E48122C34
:1005200007D1036823F400030360046844F48004E3
:1005300004600B68214CA34218BF112B14D103682F
:1005400023F480030360056845F40005056008682E
:10055000A04209D11849174C0B68B3FBF4F40A20E8
:100560004443009400F010F8002182F83C10002071
:1005700072BD06EB8606B4402343704703EB83034A
:100580009C4025EA0404704702E00098401E009059
:1005900000980028F9D17047042301400100000FA2
:1005A000002101400022014008200140FEF9FFFF28
:1005B0000020014040420F000C00002012000010FB
:1005C00081B00020009000222148416841F4804120
:1005D0004160416801F480410091009900920368F4
:1005E00043F080530360006800F080500090009852
:1005F00001B0704710B586B004461422002101A84E
:1006000000F02EF82168134881421FD100221248C1
:100610000092416941F480714161416901F4807146
:100620000091009900920121036843F001030360E7
:100630000322006800F00100009000980748019133
:1006400002920021039101A900F014F806B010BD38
:100650004038024000200140303802400000024093
:1006600010B5044610460A460146204600F002F93D
:10067000204610BD2DE9F84F0D4600267049714AFD
:100680000F23044601202F68B04000EA0708804588
:1006900040F0CB804FEA460C032707FA0CF76FEACD
:1006A000070E6F68012F18BF022F03D0112F18BF3C
:1006B000122F12D1A768D5F80C900EEA070709FA95
:1006C0000CF949EA0707A760676827EA00006F6826
:1006D000C7F30017B74038436060E068AF680EEAC0
:1006E000000007FA0CF73843E060B0006F68022F93
:1006F00018BF122F12D1F70804EB870700F01C096E
:10070000D7F820A003FA09FB2AEA0B0AD5F810B0A3
:100710000BFA09F949EA0A09C7F8209027680EEA96
:10072000070E2F7907F0030707FA0CF747EA0E07C1
:1007300027606F68FF0078D5002700974FEA960C76
:10074000176847F48047176000F00C00176807F43B
:100750008047009703FA00FE009F3B4F57F82C702C
:1007600027EA0E0E394FBC4208BF00272CD0384F65
:10077000BC4208BF012727D0364FBC4208BF022722
:1007800022D0354FBC4208BF03271DD0334FBC4297
:1007900008BF042718D0324FBC4208BF052713D02A
:1007A000304FBC4208BF06270ED02F4FBC4208BFB7
:1007B000072709D02D4FBC4208BF082704D02C4F73
:1007C000BC420CBF09270A2707FA00F01E4F40EA77
:1007D0000E0047F82C006FEA08000F6800EA070CCB
:1007E0006F68FF0348BF48EA0C0CC1F800C04F68AF
:1007F00000EA070C6F68BF0348BF48EA0C0CC1F859
:1008000004C08F6800EA070C6F68FF0248BF48EA1F
:100810000C0CC1F808C0CF6800EA070C68688002B9
:1008200048BF48EA0C0CC1F80CC0761C0F2E7FF6AE
:1008300029AFBDE8F18F02B909048161704700005A
:10084000003C0140443802400838014000000240AA
:100850000004024000080240000C02400010024068
:100860000014024000180240001C02400020024018
:100870000024024062F30F2262F31F42401810F07E
:10088000030308D0C91A1FD3DB0748BF00F8012DA6
:1008900028BF20F8022D130030B414461546103935
:1008A00028BF20E93C00FAD8490728BF20E90C00FE
:1008B00048BF40F8042D890028BF20F8022D48BF0A
:1008C00000F8012D30BC7047C91818BF00F8012D81
:1008D000CB0728BF00F8012D704730B4002513E086
:1008E00050F8042BD30744BFA9F101039A18091F3C
:1008F000042942F8045BFAD213468C0744BF1580E2
:100900009B1CC90748BF1D7050F8041B0029E7D184
:1009100030BC70472DE9F843040016D02078DFF88A
:10092000F462C10713D5B06800F00C00042807D0AA
:10093000B06800F00C0008283DD1706841023AD53B
:100940003068810303D56068002800F05E8120785C
:10095000B14F810719D5B06810F00C0F07D0B068FF
:1009600000F00C0008285BD17068410258D4306850
:10097000810703D5E068012840F04781316820698C
:1009800021F0F80141EAC00131602178080779D5EA
:100990006069A249002868D001220A6000F042F98B
:1009A0000546706F81076DD400F03CF9401B0228AA
:1009B000F7D903202CE16068B0F5803F04D130689E
:1009C00040F48030306011E0B0F5A02F306806D1DF
:1009D00040F480203060316841F4803105E020F43B
:1009E00080303060316821F480213160606858B116
:1009F00000F018F9054630688103A8D400F012F918
:100A0000401B6528F7D3D4E700F00CF905463068A1
:100A100081039CD500F006F9401B6528F7D3C8E791
:100A2000E068A8B10121396000F0FCF805463068A3
:100A3000810705D400F0F6F8401B0228F7D9B8E783
:100A40003068216920F0F80040EAC10030609CE77E
:100A5000386000F0E7F805463168880795D500F062
:100A6000E1F8401B0228F7D9A3E7086000F0DAF8A4
:100A70000546706F810705D500F0D4F8401B0228A9
:100A8000F7D996E7207841075FD5306C0025C10083
:100A90000AD400950125316C41F080513164306CED
:100AA00000F0805000900098DFF87481D8F80000C2
:100AB000C10513D4D8F8000040F48070C8F80000D5
:100AC00000F0B0F88146D8F80000C10506D400F067
:100AD000A9F8A0EB09000228F5D96AE7A068012867
:100AE00005D00528306F06D140F004003067306F24
:100AF00040F0010005E0400840003067306F20F012
:100B00000400306741F28938A06860B100F08AF8CB
:100B10008146306F810713D400F084F8A0EB090000
:100B20004045F6D345E700F07DF88146306F8107F8
:100B300006D500F077F8A0EB09004045F6D338E77A
:100B40001DB1306C20F080503064A06900285ED068
:100B5000B16801F00C0108293AD002282AD10020FE
:100B6000386600F05FF805463068810105D500F071
:100B700059F8401B0228F7D91BE7E069216A626A2D
:100B80000843A16A490840EA8210491E40EA014030
:100B9000E16A40EA016070600120386600F042F8C6
:100BA00004463068810132D400F03CF8001B022872
:100BB000F7D9FEE60020386600F034F804463068C5
:100BC000810124D500F02EF8001B0228F7D9F0E6A9
:100BD00001281AD0B068E26900F48001914202BF96
:100BE00000F03F01226A91420FD147F6C071626A5C
:100BF0000140914202BF00F44031A26A914202BF1B
:100C000000F07060E16A884201D0012000E000201D
:100C1000BDE8F2830038024000004742800E4742A0
:100C20000070004001484068704700BF000000208D
:100C300038B5040001D1012032BD00F024F818B904
:100C400000F01DF800F028F90FE00068C16841F0DD
:100C50000101C160816801F00701062903D0016824
:100C600041F0010101600020704702206870211DE1
:100C7000206800F0B0F801206870002032BD00212B
:100C800029702046704704F13C056878704710B51C
:100C90000446206801698A0715D5C1688A0712D5FC
:100CA0006FF00201016101222277806910F0030FC9
:100CB000204602D000F0F1F803E000F0EFF800F079
:100CC00087F800202077206801694A0715D5C16898
:100CD0004A0712D56FF00401016102222277806970
:100CE00010F4407F204602D000F0D7F803E000F077
:100CF000D5F800F06DF800202077206801690A0718
:100D000015D5C1680A0712D56FF0080101610422E8
:100D10002277C06910F0030F204602D000F0BDF822
:100D200003E000F0BBF800F053F8002020772068C3
:100D30000169CA0615D5C168CA0612D56FF010013F
:100D4000016108222277C06910F4407F204602D05A
:100D500000F0A3F803E000F0A1F800F039F800205B
:100D6000207720680169CA0708D5C168CA0705D578
:100D70006FF001010161204600F07DF920680169F2
:100D80000A0608D5C1680A0605D56FF08001016121
:100D9000204600F095F9206801694A0608D5C16827
:100DA0004A0605D56FF040010161204600F089F93F
:100DB000206801698A060AD5C1688A0607D56FF0DE
:100DC000200101612046BDE8104000F07BB910BD54
:100DD000204600F078B9F0B5244C0568244B254E28
:100DE000254FDFF898C0A04218BFB0F1804F07D060
:100DF000604518BFB84203D0B04218BF98420DD129
:100E00004A6825F070051543A04218BFB0F1804F25
:100E100017D060451CBFB842B04212D098421CBFE8
:100E2000174A90420DD0174EB0421CBF164A90424E
:100E300007D0164EB0421FBF154A9042154EB04221
:100E400003D1CA6825F4407515434A6925F0800529
:100E500015430560A0428D68C5620A68826212BFB0
:100E600098420969016301224261F0BD000001401E
:100E700000040140000C0040000800400004004055
:100E8000004001400044014000480140001800407B
:100E9000001C00400020004070477047704730B48D
:100EA0000EE00268436802440830DC0744BFA9F141
:100EB0000104E31852F8045B43F8045B091FF9D1FD
:100EC00050F8041B0029ECD130BC704710B52DED53
:100ED000028B84B000F0F8F800F080F80020009059
:100EE0009FED688A6A486B4C016841F0800101609F
:100EF000DFED658A026802F080020092002200990C
:100F000000921022036843F001030360002100688F
:100F100000F00100009000986846FFF7A1FB5E48D2
:100F2000206000210020206184F820006160A16021
:100F300001215A48A062217601200021E061606110
:100F4000E162E16084F830102046FFF72FF90020BD
:100F5000012100900191029069462046FFF778FA3E
:100F60004F485049504B4160F0221A700021816077
:100F70000722026000224D4C00F02CF800220221D2
:100F800000F029F84A4890ED000AB5EE400AF1EE6B
:100F900010FA04DBB4EE680AF1EE10FA15D4B4EEE0
:100FA000680AF1EE10FA04DBB4EE480AF1EE10FA2A
:100FB0000BD4B4EE480AF1EE10FAE3DBDFED330AAE
:100FC000B4EE600AF1EE10FADCD5002200F002F86F
:100FD0000122D4E704212046FFF72DBC80B592B052
:100FE0003022002106A8FFF73BFB1422002101A8B4
:100FF000FFF736FB002000904FF480332D48016846
:1010000041F0805101600021006800F080500090A4
:10101000009829480091026822F4404242F480423C
:1010200002600122006800F44040009006A8009988
:10103000069202214FF480020C910D920421642249
:101040000E910F9202210422079310911192FFF743
:1010500061FC02210291002203920F204FF4A05163
:10106000019004914FF480520592032101A800F0F1
:1010700045F813B000BD00681049884208BF00F071
:1010800027B970470000F0420000204201004843A9
:101090003038024010000020002001400100000F05
:1010A00010E000E03F4B4C0023ED00E00000024068
:1010B00098000020403802400070004000000140CD
:1010C000704770477047704780B50B48016841F41E
:1010D00000710160026842F480620260016841F4BC
:1010E00080710160032000F008F9002000F044F94D
:1010F000FFF766FA002002BD003C02402DE9F041F6
:1011000004000F4654D0534E306800F00F00B84230
:1011100002D200F073F84BD120684F4D810712D5F1
:10112000400703D5A96841F4E051A9602078010780
:1011300003D5A86840F46040A860A968A06821F0C1
:10114000F0010143A9602178C80729D5606801280A
:1011500002D129688A0305E0022818BF032803D1B9
:1011600029688A0103D423E029688A0720D5A96861
:10117000890840EA8100A860FFF754FD8046A8680E
:10118000616800F00C00B0EB810F09D0FFF74AFD59
:10119000A0EB080041F289318842F0D303202BE014
:1011A000306800F00F00874204D200F027F801D029
:1011B000012021E02078410705D5AA68E06822F4E3
:1011C000E0520243AA602178080706D5A968206981
:1011D00021F4604141EAC001A96000F049F8AA6821
:1011E0001E491F4BC2F30312895CC84018601D489A
:1011F000006800F0C1F80020BDE8F0813770316868
:1012000001F00F01B94270471548174A006813688A
:101210001649C3F34232895CC840704710B50F22AB
:101220000260114A136803F003034360146804F07A
:10123000F0048460136803F4E053C3601268D208BA
:1012400002F4E05202610348026802F00F020A60F1
:1012500010BD0000003C0240003802403818000871
:101260000C00002008000020083802402C1900085B
:1012700030B5144C606800F00C00042802D0082837
:1012800002D01DE0104830BD2268206800234102D2
:1012900002F03F0204D525680B49C5F3881003E02E
:1012A00020680A49C0F38810A1FB000100F0A2F8F1
:1012B0002168C1F30141491C4900B0FBF1F030BD88
:1012C000024830BD0438024000127A000024F400C5
:1012D0000248416802788A18426070470000002086
:1012E0000901020002D41F48815470471E4B02F0CE
:1012F0000F021A4402F8041C70471C4B19684FF681
:10130000FF020002114000F4E0600843184908435E
:101310001860704770B5154B1C68C4F30223012494
:10132000C3F10705052D2EBF0F2504FA05F56D1E27
:101330001E1D072E34BF0023DB1E2940994004FAEE
:1013400003F3BDE870405B1E1A401143C8E701007B
:1013500007D4012200F01F01064B8A40400943F8E0
:101360002020704700E400E018ED00E00CED00E004
:101370000000FA0500E100E018B5014687B0002240
:101380001920FFF7C7FF1920FFF7E1FF00200090A9
:10139000144C1548016841F00101016001A9006881
:1013A00000F001000090009802A8FFF737FFFFF758
:1013B0002BFF0E49216040F2E73240000C49E26009
:1013C000B0FBF1F0401E606000222261A260204666
:1013D000FFF72EFC18B92046FFF737FC00E001208C
:1013E00008B010BD58000020443802400000014001
:1013F00040420F00D3BBD9B1B2F5803F5BD2022A85
:101400001ED98C46B1FBF2F102FB11C31B0443EA67
:101410001043B3FBF2FC02FB1C3380B240EA0343EF
:10142000B3FBF2F002FB103240EA0C40002370479D
:10143000022A05D98446B0FBF2F002FB10C27047C5
:101440004AB105D100F0010249085FEA3000704757
:1014500000220023704700F051B80B000200002169
:1014600000207047F7D3002200237047904271EBB1
:10147000030CF2D370B5B1FA81F4B3FA83F52C1BE7
:10148000A340C4F1200532FA05F63343A2405FF0D1
:101490000046E64002E05B085FEA3202841A71EB24
:1014A000030524BF204629467641F4D302000B00F1
:1014B0003000002170BD70B5B1FA81F4B2FA82F546
:1014C000C4F120046419B4F12006DAD3B2405FF00D
:1014D0000044F440002502E052085FEA3303C61AD4
:1014E00071EB020E24BF3046714664416D41F3D367
:1014F00002000B002000290070BD000070470000B2
:10150000F0B540F2FF7581EA030C0CF0004C15EACF
:1015100011541DBF15EA1357AC42AF42E5E0BC4180
:10152000C1F31301C3F31303801A994143F48013E9
:1015300004D2641E4000494180185941C90241EA61
:101540005051B1FBF3F603FB1611A2FB0675D7EB66
:10155000C020A94102D2761E80185941C90241EA31
:101560005051B1FBF3FE03FB1E11A2FB0E75D7EB2E
:10157000C020A94103D2AEF1010E80185941890261
:1015800041EA9051760546EA8E2EB1FBF3F603FB55
:101590001611A2FB0675D7EB8020A94102D2761E58
:1015A00080185941C90241EA50514EEA060EB1FB7A
:1015B000F3F603FB1611A2FB0675D7EBC020A94179
:1015C00002D2761E80185941C90241EA5051B1FB3E
:1015D000F3F703FB1711A2FB0735D3EBC020A9419A
:1015E00067F100070CBF004247F0010766F3D527FB
:1015F0004FEA1E31B80814F5806412DDBD0775F19D
:10160000004250EB0E5051EB045111F5801F5CBFAE
:1016100041EA0C01F0BD4CF07F6141F0E041002057
:10162000F0BDBD076D0840EA0E5041F48011D4F1C1
:101630000104B4F120060ADAC4F120060200E040F9
:1016400001FA06F3E1401843B24015430EE0342C92
:1016500013DCC6F1200445EA40056D0820FA06F2C5
:10166000154321FA06F0A1400D43002175F1004217
:1016700050F1000051EB0C01F0BD00205FEA0C01BD
:10168000F0BDCFB992185B41B3FA83F704BFB2FA49
:1016900082F6BF190B3FB7F120062FBF02FA06F3FF
:1016A000BB40C7F1200622FA06F638BF3343BA40E2
:1016B0001CB1E419641E33E77F4231F00041B1FAF6
:1016C00081F404BFB0FA80F6A4190B3CB4F12006F3
:1016D0002FBF00FA06F1A140C4F1200620FA06F659
:1016E00038BF3143A0403C1B1AE7AC421ABF05EAA1
:1016F0001357AF4212E050EA41061CBF52EA4306BC
:10170000BFE750EA4107304661461CBF41EA055138
:10171000F0BD52EA430C08BFC143F0BD00204FF4B6
:10172000001616EB410F98BF16EB430F08BF16EBE0
:10173000410F24BFC14305E016EB430F0CBF6146C8
:101740004CEA0551F0BD000001F000428B1AA3F1F4
:101750006051B1F5801F0ADBB1F17F6F1FD242EA01
:10176000C102C10071F1004142EB507070470B158E
:10177000C3F10903212B10D2890241EA9051800262
:101780000128494141F0004121FA03F0C3F120034F
:10179000994071F1004150417047100070476FF05F
:1017A000000013EB103F5CBF000E42EAC0507047D0
:1017B0007047FEE7FEE7FEE7FEE7704770477047B9
:1017C00010B50B4C2046FEF7A5FD2046FEF73DFE6A
:1017D00000F016F84FF06632064BFFF791FEFFF768
:1017E000B3FF0549086010BD0448FFF750BA000078
:1017F0001000002066663B40980000205800002042
:10180000014648B1B0FA80F18840C91CC1F5846135
:10181000090501EBD0214005704700000448054A46
:10182000016841F4700101604FF000601060704782
:1018300088ED00E008ED00E000000000000000007E
:10184000010203040607080910B507497944183155
:10185000064C7C44163404E00A68081D114488478D
:101860000146A142F8D110BD2C0000004C00000040
:101870004EF68851CEF20001086840F4700008600E
:10188000BFF34F8FBFF36F8F4FF00070E1EE100A80
:101890007047000047F0FFFF8C00000010000020A0
:1018A00000000000FBF5FFFF1000000064000000D6
:1018B000000000200000000000F00DF8002801D01A
:1018C000FFF7C2FFAFF300800020AFF30080FFF707
:1018D000FDFA00F002F80120704700F001B80000A6
:1018E0000746384600F002F8FBE7000080B5AFF38A
:1018F0000080024A11001820ABBEFBE72600020060
:1019000001488047014800471D18000821190008B8
:101910000100000000000000100000000024F4009E
:10192000AFF30080FFF7A4FFFFF7C6FF0000000041
:1019300001020304FFF7FEBFFFF7FEBFFFF7FEBF84
:10194000FFF7FEBFFFF7FEBFFFF7FEBFFFF7FEBFCB
:10195000FFF7FEBFFFF7FEBFFFF7FEBFFFF7FEBFBB
:10196000FFF7FEBFFFF7FEBFFFF7FEBFFFF7FEBFAB
:10197000FFF7FEBFFFF7FEBFFFF7FEBFFFF7FEBF9B
:10198000FFF7FEBFFFF7FEBFFFF7FEBFFFF7FEBF8B
:10199000FFF7FEBFFFF7FEBFFFF7FEBFFFF7FEBF7B
:1019A000FFF7FEBFFFF7FEBFFFF7FEBFFFF7FEBF6B
:1019B000FFF7FEBFFFF7FEBFFFF7FEBFFFF7FEBF5B
:1019C000FFF7FEBFFFF7FEBFFFF7FEBFFFF7FEBF4B
:1019D000FFF7FEBFFFF7FEBFFFF7FEBFFFF7FEBF3B
:1019E000FFF7FEBFFFF7FEBFFFF7FEBFFFF7FEBF2B
:1019F000FFF7FEBFFFF7FEBFFFF7FEBFFFF7FEBF1B
:101A0000FFF7FEBFFFF7FEBFFFF7FEBFFFF7FEBF0A
:101A1000FFF7FEBFFFF7FEBFFFF7FEBFFFF7FEBFFA
:101A2000FFF7FEBFFFF7FEBFFFF7FEBFFFF7FEBFEA
:101A3000FFF7FEBFFFF7FEBFFFF7FEBFFFF7FEBFDA
:101A4000FFF7FEBFFFF7FEBFFFF7FEBFFFF7FEBFCA
:101A5000FFF7FEBFFFF7FEBFFFF7FEBFFFF7FEBFBA
:101A6000FFF7FEBFFFF7FEBFFFF7FEBFFFF7FEBFAA
:101A7000FFF7FEBFFFF7FEBFFFF7FEBFFFF7FEBF9A
:101A8000FFF7FEBFFFF7FEBFFFF7FEBFFFF7FEBF8A
:081A9000FFF7FEBFFFF7FEBFE8
:0400000508001921B5
:00000001FF
