:020000040800F2
:1000000000050020BD2700085125000853250008E1
:100010005525000857250008592500080000000054
:100020000000000000000000000000005B25000848
:100030005D250008000000005F250008612500081C
:10004000E1270008E5270008E9270008ED27000858
:10005000F1270008F5270008F9270008FD27000808
:100060000128000805280008092800080D280008B4
:100070001128000815280008192800081D28000864
:100080002128000825280008292800082D28000814
:100090003128000835280008392800083D280008C4
:1000A0004128000845280008492800084D28000874
:1000B000652500085128000855280008592800081F
:1000C0005D280008612800086528000869280008E4
:1000D0006D28000871280008752800087928000894
:1000E0007D28000881280008852800088928000844
:1000F0008D280008912800089528000899280008F4
:100100009D280008A1280008A5280008A9280008A3
:10011000AD280008B1280008B5280008B928000853
:10012000BD280008C1280008C5280008C928000803
:10013000CD280008D1280008D5280008D9280008B3
:10014000DD280008E1280008E5280008E928000863
:10015000ED280008F1280008F5280008F928000813
:10016000FD280008012900080529000809290008C0
:100170000D290008112900081529000800000000B9
:10018000192900081D29000821290008252900082F
:10019000292900082D2900083129000835290008DF
:1001A000392900083D29000841290008F8B5040054
:1001B00025D004F13C05697821B90020287020463B
:1001C00000F066FC24216970206802685208520021
:1001D00002602068016841F4004101602068026803
:1001E00022F40042026000F035FD01466068DFF84D
:1001F0007424904205D2DFF87034994205D2012070
:10020000F2BDDFF868048142F9D32068DFF860347A
:100210004668B1FBF3F3B60943EA861646602668E2
:10022000376A6068904206D34FF4967043434FF4A8
:100230007A70B3FBF0F35B1CBF0943EA87133362A8
:10024000491E2368DE696768974206D27F0000F086
:1002500043F8042913D2042111E0A06820B907EB68
:10026000470700F039F805E01920474300F034F85B
:1002700041F4804108050CBF012141F40041DFF841
:10028000F40306400E43DE6122681368E169206AC8
:1002900023F0C0030B43034313602268DFF8D80345
:1002A000936821690340E0680B430343936021682E
:1002B000CA68A3696069120A034343EA0222CA605A
:1002C0002068016841F00101016000206860202180
:1002D00069702063A870F2BDB1FBF7F1491CC1F34E
:1002E0000B0170472DE9F84304460E46154600F011
:1002F00048FA04F13C0780467878202808D1CDF8E8
:10030000008019230122DFF8801300F054FA00283E
:1003100040F08080387801287CD00121397000F0CD
:1003200033FA21207870102100F073F92085DFF86E
:100330005C03E062E16A082918BF012904D0814208
:100340001CBF206B122801D100F02CFACDF80080E0
:100350000022089D2B4600F02CFA38B12068016875
:10036000CA0550D54FF4007078604CE02069B0F5B4
:10037000804F08BF06F0FE0610D0F109206801F09A
:10038000060141F0F001016143462A46DFF8A0135F
:10039000204600F050FA002835D1F6B22068DFF888
:1003A0009413066143462A46204600F044FA00288A
:1003B00029D1009021684A69009289690091009AC8
:1003C000208D002821D04246294600F00AFAA8B91B
:1003D00000F013F9401E208521684A69530706D5AD
:1003E00080B220B1606A02780A6100F0FCF84246EF
:1003F0002946204600F08CFA0028E1D078680428CD
:1004000001D100F0E7F9012005E000F0E3F900F088
:1004100008F900E00220BDE8F2832DE9F84F00F072
:10042000DCF800F02BF902D100F015F9002840F0BB
:10043000CB803878012800F0C78000F006F901D49D
:1004400000F097F900F0F9F81021B97000207860F9
:10045000C6F82490A6F82A80708D3085DFF82C022B
:10046000F062F16A32681368082943F4806318BFA8
:100470000129136004D081421CBF306B112801D1C7
:1004800000F09CF900940022DDF828904B464FF0D4
:10049000011100F0CFF800284FF4007A31D1306913
:1004A000DFF89082B0F5804F05D1306845F0010546
:1004B000EDB2056130E0E809326800F0060B4BF060
:1004C000F001116123464A46DFF8641200F082F819
:1004D00000286FD13068EDB2056100F078F800288F
:1004E00068D100904B4600F0FFF831680A6842F48A
:1004F00080720A60009400224FF0011100F09AF817
:1005000030B130680168CA0554D5C7F804A051E07D
:1005100030684BF0F101016100F059F8002849D131
:10052000308D18B1012804D100F006F900F0E3F88D
:1005300018E002283068016805D121F4806101606B
:1005400000F0A6F802E041F480610160002000F0B4
:10055000CAF807E000F0A9F800282BD100F09EF8B7
:1005600000F0A8F8308D00282BD004281FD20128D5
:10057000F0D00228DFF8045200944B460AD100F074
:1005800057F8002816D100F0DEF8716A0870706A1A
:10059000421CE5E700F04CF800280BD100F014F9FC
:1005A0004B4600F0B5F800F044F818B9EBE700F05E
:1005B0007CF808B1012008E000F084F8D2D5006989
:1005C000E3E700F02EF800E00220BDE8F28F2346BA
:1005D0004A464146304600F02EB906460D46914641
:1005E000984600F081BB606A411C6162608D411ECB
:1005F0006185208D411E21857047606A22680178DF
:100600001161606A411C6162608D411E6185208DAF
:100610007047B970002078606562A4F82A90608DF8
:100620007047202078700021B97000203870704722
:1006300000222946304600F0D6B83068016821F41F
:1006400000610160222078707047012139703068A4
:100650000268D10770470094192301220A493046E5
:1006600000F0C1B8A186010080841E0000093D0091
:1006700040420F000030FFFF007CFFFF06F13C0707
:100680000446787820287047020010000000FFFF21
:100690003068026842F400620260704730680169A5
:1006A000706A0170716A4A1C70472246494630469A
:1006B00000F04BB9308D7262411E3185708D411E44
:1006C0007185704730680169706A0170716A308D98
:1006D0004A1C411E72623185708D411E71853068E1
:1006E00041694A077047009031684A6900928969F8
:1006F000009100987047009031684A6900928969BA
:100700000091009831680A6842F400720A607047EC
:1007100030680169706A0170716A308D4A1C411E2F
:10072000726231850022708D411E71850094704780
:1007300008000100020001003068016821F48061B6
:100740000160002070473068016841F40071016069
:1007500030680169706A0170716A308D4A1C411EEF
:1007600072623185708D411E7185326810697047E3
:100770003068026842F00102026070470400010024
:100780009046994600F0B0BA20680268D10703D4B9
:10079000026842F0010202602068016821F40061F1
:1007A000016070472068016841F480710160704702
:1007B00000224FF00111204600F015B830680168A2
:1007C00041F48071016070473068016821F48061F4
:1007D000016070472068016841F400710160704752
:1007E0004146204669E02DE9F041069F05460E4648
:1007F00090461C4631022868090E01290CBF406949
:100800008069304080B2B1B288420CBF0120002024
:1008100040450DD114F1010FECD000F065FAC01B7A
:10082000844201D3002CE5D100F064F8012000E0FF
:100830000020BDE8F081F8B505460E4614461F4677
:100840003102090E286801291AD14169314089B263
:10085000B2B291421AD04069410519D5286800F01A
:1008600025F82A685061002105F13C002963202207
:1008700042708170426842F004024260017013E0ED
:100880008169314089B2B2B29142E4D10020F2BD17
:1008900014F1010FD4D000F027FAC01B844201D319
:1008A000002CCDD100F026F80120F2BD026842F400
:1008B000007202606FF48060704770B505460C46A8
:1008C000164628684169080612D4284600F069F8DF
:1008D00008B1012070BD14F1010FF2D000F004FA4C
:1008E000801B844201D3002CEBD100F003F8F0E729
:1008F000002070BD00202863202105F13C0000226B
:1009000041708270416841F020014160027070477F
:1009100070B505460C46164628684169480712D44A
:10092000284600F03EF808B1012070BD14F1010F17
:10093000F2D000F0D9F9801B844201D3002CEBD116
:10094000FFF7D8FFF0E7002070BD70B505460C46F4
:100950001646286841694A0617D44169CA060BD46D
:1009600000F0C2F9801B844201D3002CF1D100F0C9
:100970000EF841F0200104E06FF01001416100F039
:1009800006F841600270012070BD002070BD00209B
:100990002863202105F13C000022417082704168EB
:1009A000704701684A6953050FD56FF480624A6148
:1009B000002101633C30202242708170426842F085
:1009C000040242600170012070470020704730B47B
:1009D000002513E050F8042BD30744BFA9F101030D
:1009E0009A18091F042942F8045BFAD213468C07AF
:1009F00044BF15809B1CC90748BF1D7050F8041BDD
:100A00000029E7D130BC704781B00020009000225F
:100A10004748416841F480414160416801F48041A8
:100A2000009100990092036843F0805303600068CE
:100A300000F080500090009801B0704710B586B06B
:100A400000F055F821683B4881421FD100223A4806
:100A50000092416941F400714161416901F4007102
:100A60000091009900920121036843F004030360A0
:100A70000322006800F00400009000982F480191C4
:100A800002920021039101A900F034F906B010BDD3
:100A900010B586B000F02BF821682948814224D196
:100AA0000022254C00921222206840F002002060B3
:100AB000216801F002010091C021009821480191B4
:100AC000029201210391032204210591049201A9BC
:100AD00000F010F900200090216941F4001121611B
:100AE000206900F400100090009806B010BD044684
:100AF0001422002101A800F003BA0068B0F1804F71
:100B000000D0704780B5002109480091026842F08A
:100B1000010202600022006800F0010000900098CD
:100B20001C2000F011FABDE802401C2000F029BA98
:100B300040380240002101403038024000080240A5
:100B400000540040000402402DE9F04104000F462B
:100B500054D0464E306800F00F00B84202D200F088
:100B600073F84BD12068424D810712D5400703D559
:100B7000A96841F4E051A9602078010703D5A8686D
:100B800040F46040A860A968A06821F0F00101432A
:100B9000A9602178C80729D56068012802D1296891
:100BA0008A0305E0022818BF032803D129688A01B7
:100BB00003D423E029688A0720D5A968890840EA78
:100BC0008100A86000F090F88046A868616800F095
:100BD0000C00B0EB810F09D000F086F8A0EB080004
:100BE00041F289318842F0D303202BE0306800F0D5
:100BF0000F00874204D200F027F801D0012021E045
:100C00002078410705D5AA68E06822F4E052024343
:100C1000AA602178080706D5A968206921F46041F7
:100C200041EAC001A96000F02FF8AA681149124BEF
:100C3000C2F30312895CC84018601048006800F0D5
:100C4000CBF90020BDE8F0813770316801F00F0169
:100C5000B942704708480A4A006813680949C3F353
:100C60008222FFE7895CC84070470000003C0240D8
:100C700000380240F826000820000020080000206C
:100C800008380240D827000830B5144C606800F0DE
:100C90000C00042802D0082802D01DE0104830BD06
:100CA000226820680023410202F03F0204D5256833
:100CB0000B49C5F3881003E020680A49C0F3881087
:100CC000A1FB000100F0A8F92168C1F30141491C12
:100CD0004900B0FBF1F030BD024830BD043802409D
:100CE00000127A000024F40001484068704700BFF9
:100CF000000000202DE9F84F0D4600267349744A84
:100D00000F23044601202F68B04000EA0708804501
:100D100040F0CB804FEA460C032707FA0CF76FEA46
:100D2000070E6F68012F18BF022F03D0112F18BFB5
:100D3000122F12D1A768D5F80C900EEA070709FA0E
:100D40000CF949EA0707A760676827EA00006F689F
:100D5000C7F30017B74038436060E068AF680EEA39
:100D6000000007FA0CF73843E060B0006F68022F0C
:100D700018BF122F12D1F70804EB870700F01C09E7
:100D8000D7F820A003FA09FB2AEA0B0AD5F810B01D
:100D90000BFA09F949EA0A09C7F8209027680EEA10
:100DA000070E2F7907F0030707FA0CF747EA0E073B
:100DB00027606F68FF0078D5002700974FEA960CF0
:100DC000176847F48047176000F00C00176807F4B5
:100DD0008047009703FA00FE009F3E4F57F82C70A3
:100DE00027EA0E0E3C4FBC4208BF00272CD03B4FD9
:100DF000BC4208BF012727D0394FBC4208BF022799
:100E000022D0384FBC4208BF03271DD0364FBC420A
:100E100008BF042718D0354FBC4208BF052713D0A0
:100E2000334FBC4208BF06270ED0324FBC4208BF2A
:100E3000072709D0304FBC4208BF082704D02F4FE6
:100E4000BC420CBF09270A2707FA00F0214F40EAED
:100E50000E0047F82C006FEA08000F6800EA070C44
:100E60006F68FF0348BF48EA0C0CC1F800C04F6828
:100E700000EA070C6F68BF0348BF48EA0C0CC1F8D2
:100E800004C08F6800EA070C6F68FF0248BF48EA99
:100E90000C0CC1F808C0CF6800EA070C6868800233
:100EA00048BF48EA0C0CC1F80CC0761C0F2E7FF628
:100EB00029AFBDE8F18F0069084018BF0120C0B21A
:100EC000704702B90904816170470000003C01408D
:100ED000443802400838014000000240000402404B
:100EE00000080240000C02400010024000140240C2
:100EF00000180240001C0240002002400024024072
:100F000010B5044610460A460146204600F008F98E
:100F1000204610BD0901020002D4294881547047BF
:100F2000284B02F00F021A4402F8041C7047264BAB
:100F300019684FF6FF020002114000F4E060084318
:100F4000224908431860704770B51F4B1C68C4F3F2
:100F500002230124C3F10705052D2EBF0F2504FA36
:100F600005F56D1E1E1D072E34BF0023DB1E294014
:100F7000994004FA03F3BDE870405B1E1A40114328
:100F8000C8E7010007D4012200F01F01104B8A407E
:100F9000400943F82020704710B5401EB0F1807F13
:100FA00001D3012010BD0B4C60600F214FF0FF30CA
:100FB000FFF7B0FF0021A16007202060002010BDD6
:100FC00000E400E018ED00E00CED00E00000FA05A0
:100FD00000E100E010E000E038B50D4D0D4B2A783F
:100FE00004464FF47A711868B1FBF2F2B0FBF2F0EC
:100FF000FFF7D2FF50B9102C08D2002221464FF043
:10100000FF30FFF7A1FFAC60002032BD012032BDF0
:101010000000002020000020D3BBD9B1B2F5803FF2
:101020005BD2022A1ED98C46B1FBF2F102FB11C33E
:101030001B0443EA1043B3FBF2FC02FB1C3380B2F7
:1010400040EA0343B3FBF2F002FB103240EA0C40EB
:1010500000237047022A05D98446B0FBF2F002FB58
:1010600010C270474AB105D100F0010249085FEA99
:101070003000704700220023704700F085B80B0055
:101080000200002100207047F7D3002200237047A0
:10109000904271EB030CF2D370B5B1FA81F4B3FA5C
:1010A00083F52C1BA340C4F1200532FA05F6334327
:1010B000A2405FF00046E64002E05B085FEA3202D1
:1010C000841A71EB030524BF204629467641F4D3E8
:1010D00002000B003000002170BD70B5B1FA81F440
:1010E000B2FA82F5C4F120046419B4F12006DAD30F
:1010F000B2405FF00044F440002502E052085FEA8D
:101100003303C61A71EB020E24BF304671466441A8
:101110006D41F3D302000B002000290070BD0000D8
:1011200062F30F2262F31F42401810F0030308D04D
:10113000C91A1FD3DB0748BF00F8012D28BF20F8CC
:10114000022D130030B414461546103928BF20E98B
:101150003C00FAD8490728BF20E90C0048BF40F8F6
:10116000042D890028BF20F8022D48BF00F8012D6A
:1011700030BC7047C91818BF00F8012DCB0728BF35
:1011800000F8012D704700007047000070B504465C
:1011900000250CB9012070BD04F13006306920B97A
:1011A0002046FFF74BFC756135733069C10600F1CD
:1011B00092803069DFF8BC1320F4885040F00200C0
:1011C0003061086820F4403008600A6860680243B3
:1011D0000A602068416821F480714160206841689C
:1011E000226941EA022141602068416821F0407192
:1011F000416021684A68A06802434A6020688168AB
:1012000021F40061816021688A68E06802438A6095
:101210002068A16ADFF860239142816821F0706143
:1012200081600CD021688A68A06A02438A6000F05D
:101230005BF821688A68E06A02438A6001E000F096
:1012400053F82068816821F0020100F049F8227EFD
:1012500041EA4201816094F8200021680028486832
:101260000FD040F4006048602068416821F460417C
:10127000416020684168626A521E41EA4231416021
:1012800002E020F4006048602068C16A21F4700127
:10129000C1622068C16AE269521E41EA0251C1621C
:1012A0002068816821F4007100F01AF8327841EA70
:1012B000422100F015F821F4806100F011F8626914
:1012C00041EA822181607561316921F0020141F0BA
:1012D0000101316100E0012500203073284670BD16
:1012E00081602068816870472068816821F04051E2
:1012F0008160704738B500F065F801D1022032BD39
:1013000000F074F837D500F045F846BF906820F03B
:101310000600002000F036F80868DFF8582243681D
:1013200043F0806343F02003436000F058F818D185
:1013300088420FD0DFF84412884204D1126812F0BC
:101340001F0F18D106E0DFF83812884213D100F0E1
:1013500014F810D2816811F0405F0CD100F03AF817
:1013600009E0884202BFDFF81C02016811F0405F0B
:1013700001D100F022F8002032BD126802F01F02F5
:10138000102A70479060002313706FF022000A68E3
:10139000106070475568DFF8F001054045F480752E
:1013A00055605868430505D5506820F4005040F456
:1013B000805050605068C3047047016841F080411C
:1013C000016070470146002001F13C020090137853
:1013D000012B7047816841F0804181607047086847
:1013E0001368DFF8A81113F01F0F70470120107069
:1013F00008688368DC0714D48368DFF8944143F0FD
:1014000001038360DFF88C010368B3FBF4F404EBA1
:101410004404009402E00098401E009000980028C8
:10142000F9D10B689868C407704778B50246002068
:10143000009092F83C30012B01D1022072BD0120B6
:1014400082F83C0007240B6810680A2B12D30A3B71
:10145000C56803EB43039C4025EA0404C460C368E9
:101460000D688C68A5F10A0606EB4606B4402343D6
:10147000C3600FE0056903EB430304FA03F325EAB5
:101480000303036103690D688C6805EB4505AC40F7
:10149000234303611F244B68072B0CD25B1E456B53
:1014A00000F059F84463436B4D680C886E1E00F0E1
:1014B0004DF843631BE00D2B0CD2DB1F056B00F0D6
:1014C0004AF80463036B4D680C88EE1F00F03EF889
:1014D00003630CE00D3BC56A00F03DF8C462C36ACB
:1014E0004D680C88A5F10D0600F030F8C362274B5B
:1014F000984226D10C681F48122C07D1036823F4A8
:1015000000030360046844F4800404600B68224C08
:10151000A34218BF112B14D1036823F48003036086
:10152000056845F4000505600868A04209D119491D
:10153000174C0B68B3FBF4F40A204443009400F00A
:1015400010F8002182F83C10002072BD06EB8606E0
:10155000B4402343704703EB83039C4025EA040413
:10156000704702E00098401E009000980028F9D1D2
:1015700070470000042301400100000F00210140DA
:101580000022014008200140FEF9FFFF0020014039
:1015900040420F00200000201200001010B500F0A3
:1015A00007F81860002235E010B500F001F82FE0D0
:1015B000D34BD44C0002704780B500220221D148A1
:1015C000FFF77FFC642000F0B9F93020FFF7E6FF59
:1015D0001E2000F0B3F93020FFF7E0FF0A2000F0F2
:1015E000ADF93020FFF7DAFF0A2000F0A7F9382024
:1015F000FFF7D4FF1020FFF7D1FF0C20FFF7CEFF3D
:10160000BDE802400620C9E710B5BD4BBD4C002027
:101610001860012201212046FFF753FC012202211C
:101620002046FFF74EFC012000F088F92046BDE877
:10163000104000220221FFF744BC70B50446FFF7BA
:10164000E3FF00250026A05D02E02800FBD000207B
:10165000FFF7AAFFA05D00B90125761C102EF4DB70
:1016600070BD78B589B0012160228DF818108DF811
:10167000192000F077F9FFF79FFF00F0F8F800F06D
:1016800057F9002000909F4C9F48A04D016841F001
:1016900080010160026802F080020092002200993D
:1016A0000092036843F004030360016801F0040141
:1016B000009100990092036843F001030360016800
:1016C00001F00101009100990092036843F00803C2
:1016D0000360016801F00801009100990092032164
:1016E000036843F002030360006800F0020000900A
:1016F00000982046FFF7E5FB00224FF47F41284683
:10170000FFF7DFFB032100F0A9F82046FFF7F2FA0C
:1017100004200021019002910391204601A9FFF7C6
:10172000E9FA4FF47F4100F099F82846FFF7E2FA12
:10173000102200216846FFF7E3FB754C75482060D6
:101740004FF480317448A0626160012004F13005DB
:1017500000220121E0616061A2602261217684F8AB
:101760002020E262E2602A702046FFF70FFD01218F
:1017700001910A2000220090029269462046FFF75C
:1017800054FE1022002102A8FFF7BAFB0822002114
:101790006846FFF7B5FB4FF08040E86644F62061ED
:1017A0002967002068676921E867C4F8B400A96761
:1017B00004F19C06304600F0EFF84FF480500290A0
:1017C00002A9304600F0BFF9002100910191304696
:1017D000694600F0AFFA51485149A861E96100201B
:1017E000286200214FF48040A8626962E96229639F
:1017F0006963A96304F14800FEF7D8FC00F029F8FA
:1018000000F022F82046FFF775FD304600F0D1F8D1
:1018100004F14800FEF7CAFC78B100F01AF800287D
:101820000BD000F011F840B164200090022306AA0A
:10183000902104F14800FEF755FD3A48FFF7FDFE00
:10184000FA2000F07BF8F8E7002104F1480000F0EE
:10185000CFBA002104F1480000F0B2BA0191012290
:101860000292002103910322049201A9704780B5DE
:1018700092B03022002106A8FFF742FB00F058F892
:10188000002000904FF480332748016841F08051D8
:1018900001600021006800F080500090009823480B
:1018A0000091026842F4404202600122006800F4A4
:1018B0004040009006A80099069202214FF4800251
:1018C0000C910D920421A8220E910F920221042264
:1018D00007931091119200F0B1FA022102910022B7
:1018E00003920F204FF4A051019004914FF48052C5
:1018F0000592052101A8FFF727F913B000BD0000EC
:10190000140C02400000024030380240000C02403B
:1019100024000020002101400100000F005400407D
:10192000A08601000C0000204038024000700040FA
:101930001422002101A8FFF7E3BA000038B50446DD
:10194000FFF7D2F914F1010F054602D004480178DF
:101950006418FFF7C9F9401BA042FAD331BD00BF9C
:101960000000002080B50B48016841F4007101605F
:10197000026842F480620260016841F48071016093
:101980000320FFF7D4FA0020FFF726FBFFF73CF80F
:10199000002002BD003C024038B5040001D1012006
:1019A00032BD00F028F818B900F021F8FFF7A5F8CB
:1019B00013E0022180F83D100268916801F00701F0
:1019C000062904D001680A6842F001020A60FFE7B4
:1019D000012180F83D100020704702206870211D11
:1019E000206800F00DF901206870002032BD002150
:1019F00029702046704704F13C056878704710B59F
:101A00000446206801698A0715D5C1688A0712D57E
:101A10006FF00201016101222277806910F0030F4B
:101A2000204602D000F092FB03E000F090FB00F0B3
:101A300087F800202077206801694A0715D5C1681A
:101A40004A0712D56FF004010161022222778069F2
:101A500010F4407F204602D000F078FB03E000F055
:101A600076FB00F06DF800202077206801690A07F6
:101A700015D5C1680A0712D56FF00801016104226B
:101A80002277C06910F0030F204602D000F05EFB01
:101A900003E000F05CFB00F053F8002020772068A2
:101AA0000169CA0615D5C168CA0612D56FF01001C2
:101AB000016108222277C06910F4407F204602D0DD
:101AC00000F044FB03E000F042FB00F039F8002096
:101AD000207720680169CA0708D5C168CA0705D5FB
:101AE0006FF001010161204600F032FB20680169BE
:101AF0000A0608D5C1680A0605D56FF080010161A4
:101B0000204600F026FB206801694A0608D5C16816
:101B10004A0605D56FF040010161204600F01AFB2E
:101B2000206801698A060AD5C1688A0607D56FF060
:101B3000200101612046BDE8104000F00CBB10BD43
:101B4000204600F009BB38B500F04EF801D1022064
:101B500032BD0120207002226270DFF83C012A6849
:101B60009368034093600868020018BF10282DD0C6
:101B7000202818BF302829D0402823D0502816D03C
:101B8000602818D0702803D0B0F5005F07D021E09E
:101B900000F025F82868816841F0770105E000F041
:101BA0001EF82868816841F48041816012E000F0ED
:101BB00012F850210BE0CA684968286800F093F8D1
:101BC000602104E000F007F8402100E001462868A9
:101BD00000F09BF80EE0CA684968286874E0CB689A
:101BE0004A688968286898E0054605F13C04207831
:101BF000012870470120607000212170002032BD53
:101C0000F0B5264C0568264B264E274FDFF89CC0C2
:101C1000A04218BFB0F1804F07D0604518BFB8424E
:101C200003D0B04218BF98420DD14A6825F0700524
:101C30001543A04218BFB0F1804F17D060451CBFBC
:101C4000B842B04212D098421CBF194A90420DD0FF
:101C5000184EB0421CBF184A904207D0174EB042EF
:101C60001FBF174A9042174EB04203D1CA6825F4ED
:101C7000407515434A6925F0800515430560A0426B
:101C80008D68C5620A68826212BF98420969016361
:101C900001224261F0BD00008800FFFF000001400A
:101CA00000040140000C0040000800400004004017
:101CB000004001400044014000480140001800403D
:101CC000001C00400020004010B5036A046A64084C
:101CD0006400046223F00A03846924F0F00444EAF7
:101CE0000214846123E010B5036A23F01003036239
:101CF0008369046A23F4704343EA023324F0A004A6
:101D0000836144EA0114046210BD826822F070020B
:101D1000114341F007018160704710B5846824F4D5
:101D20007F442143114341EA0321816010BD1943DF
:101D3000016210BD70B500F13C031A78012A01D18F
:101D4000022070BD01221A7002245C7005686E6862
:101D5000AC680A6826F0700616436E600268114887
:101D6000824218BFB2F1804F11D00F4882421CBF8F
:101D70000E4DAA420BD00E4882421CBF0D4DAA4206
:101D800005D00D4882421CBF0C4DAA4204D14868C0
:101D900024F08004044394600121597000201870DD
:101DA00070BD000000000140000400400008004039
:101DB000000C0040000401400040014000180040B9
:101DC00010B590F83D20202A10D100F028F80268C4
:101DD000536A23F0100353620268536A1943516235
:101DE00001680A6842F001020A6021E0022010BD89
:101DF00010B590F83D20202A0FD100F010F84FF6D2
:101E0000F07203685C6A1440214389B25962016828
:101E10000B6843F001030B600AE0022010BD24238D
:101E200080F83D30026814686408640014607047EC
:101E3000202180F83D10002010BD00002DE9F8435E
:101E4000040016D02078DFF8F462C10713D5B0681B
:101E500000F00C00042807D0B06800F00C0008283F
:101E60003DD1706841023AD53068810303D560687E
:101E7000002800F05E812078B14F810719D5B06845
:101E800010F00C0F07D0B06800F00C0008285BD1F0
:101E90007068410258D43068810703D5E068012892
:101EA00040F047813168206921F0F80141EAC00122
:101EB00031602178080779D56069A249002868D087
:101EC00001220A60FEF710FF0546706F81076DD48E
:101ED000FEF70AFF401B0228F7D903202CE16068B7
:101EE000B0F5803F04D1306840F48030306011E0BC
:101EF000B0F5A02F306806D140F480203060316802
:101F000041F4803105E020F480303060316821F404
:101F100080213160606858B1FEF7E6FE0546306802
:101F20008103A8D4FEF7E0FE401B6528F7D3D4E771
:101F3000FEF7DAFE0546306881039CD5FEF7D4FE35
:101F4000401B6528F7D3C8E7E068A8B101213960D4
:101F5000FEF7CAFE05463068810705D4FEF7C4FEC9
:101F6000401B0228F7D9B8E73068216920F0F80053
:101F700040EAC10030609CE73860FEF7B5FE0546D8
:101F80003168880795D5FEF7AFFE401B0228F7D9C8
:101F9000A3E70860FEF7A8FE0546706F810705D528
:101FA000FEF7A2FE401B0228F7D996E720784107EA
:101FB0005FD5306C0025C1000AD400950125316C35
:101FC00041F080513164306C00F0805000900098F6
:101FD000DFF87481D8F80000C10513D4D8F80000E8
:101FE00040F48070C8F80000FEF77EFE8146D8F805
:101FF0000000C10506D4FEF777FEA0EB0900022819
:10200000F5D96AE7A068012805D00528306F06D108
:1020100040F004003067306F40F0010005E04008F8
:1020200040003067306F20F00400306741F289389B
:10203000A06860B1FEF758FE8146306F810713D467
:10204000FEF752FEA0EB09004045F6D345E7FEF748
:102050004BFE8146306F810706D5FEF745FEA0EBAB
:1020600009004045F6D338E71DB1306C20F08050B0
:102070003064A06900285ED0B16801F00C01082925
:102080003AD002282AD100203866FEF72DFE0546F8
:102090003068810105D5FEF727FE401B0228F7D9DD
:1020A0001BE7E069216A626A0843A16A490840EABD
:1020B0008210491E40EA0140E16A40EA0160706016
:1020C00001203866FEF710FE04463068810132D4E4
:1020D000FEF70AFE001B0228F7D9FEE6002038664C
:1020E000FEF702FE04463068810124D5FEF7FCFDB0
:1020F000001B0228F7D9F0E601281AD0B068E2697F
:1021000000F48001914202BF00F03F01226A914237
:102110000FD147F6C071626A0140914202BF00F4DC
:102120004031A26A914202BF00F07060E16A8842C9
:1021300001D0012000E00020BDE8F2830038024019
:1021400000004742800E47420070004070477047D1
:10215000704770477047704770470000B0B581EA1C
:10216000030C0CF0004C40F2FF7515EA11541DBF32
:1021700015EA1357AC42AF4239E0E41923EA45535C
:1021800043F48013C90241F0004141EA505EC702A6
:102190001100A7FB020200284FF00000EEFB012017
:1021A0004FF00001E3FB072118BF42F00102401885
:1021B00000214941E3FB0E01A4F580640F0302D224
:1021C00052004041494154F101046CDD470872F16D
:1021D000004250F1000051EB0451A1F580115CBFA9
:1021E00041EA0C01B0BD4CEA05510020B0BD05EA42
:1021F0001357AC4214BFAF4241E050EA410E1CBF3E
:1022000052EA430E02E061460020B0BD24423C4445
:102210001BD15FEA070EF6D0090302BF014600207A
:10222000AEF1140EB1FA81F7AEEB070401FA07FE26
:102230000C37C7F1200100FA07F7C8404EEA000E3C
:1022400023EA455343F48013A2E733F00043B3FA83
:1022500083F704BFB2FA82FE77440B3FE41BB7F169
:10226000200E2FBF02FA0EF3BB40C7F1200E22FA58
:102270000EFE38BF43EA0E03BA40641C82E750EA00
:10228000410E14BF52EA430E6FF000014FF40017E5
:1022900017EB430F8ABF194617EB410FB5E74CEA1E
:1022A00005510020B0BDD4F10104B4F120070FDACC
:1022B000C4F12007520828BF42F0010210FA07F5C6
:1022C00001FA07F7E1BF2A43E0403843E1400FE05D
:1022D000352C98DCC7F1200452EA400220FA07F2BC
:1022E00018BF42F0010231FA07F0A1400A43002171
:1022F00072F1004250F1000051EB0C01B0BD000042
:1023000070B44FF0004591EA030F40F1B7806B4085
:10231000841A71EB030604D26E40001BB1411219FE
:1023200073414FF4001C1CEB410F34BF7CEB4306A0
:1023300083E00C0DA4EB1356362E00F37C80012EA7
:1023400045EAC32341DC43EA525312BFD202920250
:102350005B08240545EAC12141EA5051D2EBC02077
:10236000994125D407D1B0FA80F610FA06F162D06F
:102370000020203608E0B1FA81F6B140C6F1200213
:1023800020FA02F21143B0404FEAF474B4EB465421
:1023900034F001064FEA74040AD8D6F50016760D1B
:1023A00004F00044F04061FA06F25040F140484029
:1023B000C00A40EA415021F0004128BF5FEA5005C1
:1023C00050F1000044EBD12135E0DB0A45EAC121A0
:1023D000C90AB6F120050EDD42EA0242120CC5F12F
:1023E000200603FA06F6EB4042EA06056D429841E4
:1023F00061F100010DE062FA06F5F240554063FA22
:1024000006FC82EA0C02F3405A406D42904161EBB7
:10241000030111F4801F05D1641E620502D06D0016
:102420004041494121F48011430875F1004350F1C6
:10243000000041EB045170BC70471CEB410F15D2FA
:1024400023F0004352EA43060BD04FEA4C0CBCEB9E
:10245000410F04D80C0D661E342EB7DDEBE7801A51
:10246000994150EA410608BF0021E4E708BF1CEB90
:10247000430F28BF6FF00001DDE70000841A71EB05
:10248000030603D2001BB141121973414FF4001C23
:102490001CEB410F34BF7CEB430442E00C0DA4EB7A
:1024A0001356352E4FDC45EAC323DB0A45EAC1212A
:1024B000C912B6F120050DDD63FA05F6EB4086EA98
:1024C0000305124218BF45F00105C01851F1000183
:1024D0000CD213E062FA06F5F2405540F3415A403F
:1024E000B340F3405A408018594107D349085FEA86
:1024F00030005FEA350528BF45F0010501F5801180
:10250000420875F1004250F1000041EB04514E00C9
:1025100016F5001F70BC38BF70470020090D090573
:1025200070471CEB410F10D252EA43060BD0BCEBB4
:10253000410F05D80C0DAB43661E342EB6DD02E00C
:10254000AB438018594170BC704770BC70470000A5
:102550007047FEE7FEE7FEE7FEE77047704770470B
:1025600000F056B838B52348234CFFF748FA042149
:102570002248FEF7A0FC60810A2000900123227A05
:102580001F489021FDF749FF207A618901290ED16A
:1025900000F046F81B4A1C4BFFF7E0FD00221B4BE6
:1025A000FFF7AEFE00F04AF82061462006E000EE9C
:1025B000100AB8EE400A84ED040A4320E0700A22B3
:1025C00094ED040ABDEEC00A10EE100A81B291FB30
:1025D000F2F20A250A2392FBF5F503FB152545F0D7
:1025E000300503FB1211257041F03001A0816170AC
:1025F00031BD0000C00000200C000020000002409F
:102600006C000020CDCCCCCCCCCCFC3F00004040BA
:102610000248416802788A18426070470000002032
:10262000014648B1B0FA80F18840C91CC1F5846107
:10263000090501EBD02140057047000001F0004280
:102640008B1AA3F16051B1F5801F0ADBB1F17F6FE6
:102650001FD242EAC102C10071F1004142EB507049
:1026600070470B15C3F10903212B10D2890241EAEF
:10267000905180020128494141F0004121FA03F0C4
:10268000C3F12003994071F100415041704710009F
:1026900070476FF0000013EB103F5CBF000E42EA82
:1026A000C050704730B5016884684218416802EB39
:1026B0005103C90703D54C4401E0491C05D19A4296
:1026C0000AD012F9011B12F8015B002904F8015B22
:1026D000F3D4491EF7D5F2E70C3030BD0448054A63
:1026E000016841F4700101604FF0006010607047B4
:1026F00088ED00E008ED00E00000000000000000B0
:10270000010203040607080910B507497944183186
:10271000064C7C44163404E00A68081D11448847BE
:102720000146A142F8D110BD2C0000004800000075
:102730004EF68851CEF20001086840F4700008603F
:10274000BFF34F8FBFF36F8F4FF00070E1EE100AB1
:10275000704700007BE2FFFFDC0000002400002047
:102760000000000041FFFFFFDC0100002600000028
:102770000000002000F00DF8002801D0FFF7C4FF92
:10278000AFF300800020AFF30080FEF76AFF00F097
:1027900002F80120704700F001B8000007463846F3
:1027A00000F002F8FBE7000080B5AFF30080024ABA
:1027B00011001820ABBEFBE726000200014880474D
:1027C00001480047DD260008CD270008AFF3008050
:1027D000FFF7AEFFFFF7CEFF000000000102030489
:1027E000FFF7FEBFFFF7FEBFFFF7FEBFFFF7FEBF1D
:1027F000FFF7FEBFFFF7FEBFFFF7FEBFFFF7FEBF0D
:10280000FFF7FEBFFFF7FEBFFFF7FEBFFFF7FEBFFC
:10281000FFF7FEBFFFF7FEBFFFF7FEBFFFF7FEBFEC
:10282000FFF7FEBFFFF7FEBFFFF7FEBFFFF7FEBFDC
:10283000FFF7FEBFFFF7FEBFFFF7FEBFFFF7FEBFCC
:10284000FFF7FEBFFFF7FEBFFFF7FEBFFFF7FEBFBC
:10285000FFF7FEBFFFF7FEBFFFF7FEBFFFF7FEBFAC
:10286000FFF7FEBFFFF7FEBFFFF7FEBFFFF7FEBF9C
:10287000FFF7FEBFFFF7FEBFFFF7FEBFFFF7FEBF8C
:10288000FFF7FEBFFFF7FEBFFFF7FEBFFFF7FEBF7C
:10289000FFF7FEBFFFF7FEBFFFF7FEBFFFF7FEBF6C
:1028A000FFF7FEBFFFF7FEBFFFF7FEBFFFF7FEBF5C
:1028B000FFF7FEBFFFF7FEBFFFF7FEBFFFF7FEBF4C
:1028C000FFF7FEBFFFF7FEBFFFF7FEBFFFF7FEBF3C
:1028D000FFF7FEBFFFF7FEBFFFF7FEBFFFF7FEBF2C
:1028E000FFF7FEBFFFF7FEBFFFF7FEBFFFF7FEBF1C
:1028F000FFF7FEBFFFF7FEBFFFF7FEBFFFF7FEBF0C
:10290000FFF7FEBFFFF7FEBFFFF7FEBFFFF7FEBFFB
:10291000FFF7FEBFFFF7FEBFFFF7FEBFFFF7FEBFEB
:10292000FFF7FEBFFFF7FEBFFFF7FEBFFFF7FEBFDB
:10293000FFF7FEBFFFF7FEBFFFF7FEBFFFF7FEBFCB
:10294000FFF7FEBF0001F9000010FD00033030DF8B
:0729500043EF000224F40034
:04000005080027CDFB
:00000001FF
