:020000040800F2
:1000000018040020E90D0008810C0008830C00088A
:10001000850C0008870C0008890C0008000000000F
:100020000000000000000000000000008B0C000831
:100030008D0C0008000000008F0C0008910C0008D7
:10004000050E0008090E00080D0E0008110E00082C
:10005000150E0008190E00081D0E0008210E0008DC
:10006000250E0008290E00082D0E0008310E00088C
:10007000350E0008390E00083D0E0008410E00083C
:10008000450E0008490E00084D0E0008510E0008EC
:10009000550E0008590E00085D0E0008610E00089C
:1000A000650E0008690E00086D0E0008710E00084C
:1000B000750E0008790E00087D0E0008810E0008FC
:1000C000850E0008890E00088D0E0008910E0008AC
:1000D000950E0008990E00089D0E0008A10E00085C
:1000E000950C0008A50E0008A90E0008AD0E00082A
:1000F000B10E0008B50E0008B90E0008BD0E0008CC
:10010000C10E0008C50E0008C90E0008CD0E00087B
:10011000D10E0008D50E0008D90E0008DD0E00082B
:10012000E10E0008E50E0008E90E0008ED0E0008DB
:10013000F10E0008F50E0008F90E0008FD0E00088B
:10014000010F0008050F0008090F00080D0F000837
:10015000110F0008150F0008190F00081D0F0008E7
:10016000210F0008250F0008290F00082D0F000897
:10017000310F0008350F0008390F0008000000009B
:100180003D0F0008410F0008450F0008490F000807
:100190004D0F0008510F0008550F0008590F0008B7
:1001A0005D0F0008610F0008650F00082DE9F84396
:1001B000040016D02078DFF80863C10713D5B068B3
:1001C00000F00C00042807D0B06800F00C000828EC
:1001D0003ED1706841023BD53068810303D5606829
:1001E000002800F0FF802078B64F810719D5B0684D
:1001F00010F00C0F07D0B06800F00C0008285CD19C
:100200007068410259D43068810703D5E06801283D
:1002100040F0E8803168206921F0F80141EAC0012E
:100220003160217808076CD56069A749002862D041
:1002300001220A6000F04CF90546706F810700F159
:10024000D38000F045F9401B0228F6D9032034E1A1
:100250006068B0F5803F04D1306840F48030306091
:1002600011E0B0F5A02F306806D140F48020306056
:10027000316841F4803105E020F48030306031682D
:1002800021F480213160606858B100F021F9054601
:1002900030688103A7D400F01BF9401B6528F7D311
:1002A000D4E700F015F90546306881039BD500F0CE
:1002B0000FF9401B6528F7D3C8E7E06870B101214A
:1002C000396000F005F905463068810700F1B88013
:1002D00000F0FEF8401B0228F6D9B7E7386000F0BE
:1002E000F7F80546316888079BD500F0F1F8401B08
:1002F0000228F7D9AAE7086000F0EAF80546706F0F
:10030000810771D500F0E4F8401B0228F7D99DE77A
:100310000528306F06D140F004003067306F40F0A0
:10032000010005E0400840003067306F20F0040015
:10033000306741F28938A06868B100F0C9F8814699
:10034000306F810700F1898000F0C2F8A0EB09004E
:100350004045F5D37AE700F0BBF88146306F81075E
:100360007BD500F0B5F8A0EB09004045F6D36DE76A
:1003700000F0AEF8401B022840F2828066E700F0F1
:10038000A7F8001B022840F293805FE70020386640
:1003900000F09EF804463068810140F18D8000F045
:1003A00097F8001B0228F6D950E701281AD0B06848
:1003B000E26900F48001914202BF00F03F01226A2D
:1003C00091420FD147F6C071626A0140914202BF6B
:1003D00000F44031A26A914202BF00F07060E16A0D
:1003E000884269D0012068E0207841073AD5306C16
:1003F0000025C1000AD400950125316C41F08051DF
:100400003164306C00F0805000900098DFF8BC80C0
:10041000D8F80000C1051BD4D8F8000040F4807063
:10042000C8F8000000F054F88146D8F80000C10573
:100430000ED400F04DF8A0EB09000228F5D905E72D
:100440003068216920F0F80040EAC1003060E8E639
:10045000A06801287FF45CAF60E71DB1306C20F02C
:1004600080503064A06938B3B16801F00C010829EC
:100470009BD002288AD10020386600F029F8054672
:10048000306881013FF574AFE269206A616A024316
:10049000A06A400842EA8112401E42EA0042E06A35
:1004A00042EA006272600121396600F011F80446E8
:1004B000306881017FF563AF0020BDE8F28300BFA3
:1004C0000038024000004742800E47420070004062
:1004D00001484068704700BF000000202DE9F84F38
:1004E0000D464FF0000875490F22012304462E687F
:1004F00003FA08F000EA0609814540F0CA804FEA95
:10050000480C032606FA0CF66FEA060E6E68012EFA
:1005100018BF022E03D0112E18BF122E11D1A668BB
:10052000EF680EEA060607FA0CF73E43A660666817
:1005300026EA00006E68C6F3001606FA08F6304395
:100540006060E068AE680EEA000006FA0CF6304320
:10055000E0604FEA88006E68022E18BF122E12D19A
:100560004FEAD80604EB860600F01C07D6F820A058
:1005700002FA07FB2AEA0B0AD5F810B00BFA07F7C4
:1005800047EA0A07376226680EEA06072E7906F060
:10059000030606FA0CF63E4326606E68F60078D530
:1005A000002600964FEA980C0E68DFF814E146F436
:1005B00080460E6000F00C000E6806F4804600963F
:1005C000009E5EF82C7002FA00F627EA06063D4F00
:1005D000BC4208BF00272CD03B4FBC4208BF0127BC
:1005E00027D03A4FBC4208BF022722D0384FBC4226
:1005F00008BF03271DD0374FBC4208BF042718D0BF
:10060000354FBC4208BF052713D0344FBC4208BF4A
:1006100006270ED0324FBC4208BF072709D0314F02
:10062000BC4208BF082704D02F4FBC420CBF09278B
:100630000A2707FA00F030434EF82C006FEA090C45
:100640002A4806680CEA060E6E68F70348BF49EAB6
:100650000E0EC0F800E046680CEA060E6E68B7039E
:1006600048BF49EA0E0EC0F804E086680CEA060EA0
:100670006E68F70248BF49EA0E0EC0F808E0C66887
:100680000CEA060E6E68B60248BF49EA0E0EC0F8C4
:100690000CE008F10108B8F10F0F7FF628AFBDE8B4
:1006A000F18F02B9090481617047114A136803424E
:1006B0001CBF106000F01EB87047000044380240B4
:1006C00008380140000002400004024000080240D7
:1006D000000C0240001002400014024000180240CA
:1006E000001C02400020024000240240003C014067
:1006F000143C0140704700002DE9F04104000F4612
:1007000078D0404E306800F00F00B84202D200F0BE
:1007100073F86FD120683C4D810712D5400703D58F
:10072000A96841F4E051A9602078010703D5A868C1
:1007300040F46040A860A968A06821F0F00101437E
:10074000A9602178C8074DD56068012802D12968C1
:100750008A0305E0022818BF032803D129688A010B
:1007600003D447E029688A0744D5A968890840EA84
:100770008100A860FFF7ACFE8046A868616800F0C1
:100780000C00B0EB810F2DD0FFF7A2FEA0EB08000C
:1007900041F289318842F0D3032021E020784107DB
:1007A00005D5AA68E06822F4E0520243AA602178E5
:1007B000080706D5A968206921F4604141EAC00113
:1007C000A96000F029F8AA681049114BC2F303127E
:1007D000895CC84018600F48006800F04DF80020A0
:1007E000BDE8F081306800F00F008742D6D200F0FB
:1007F00003F8D3D00120F3E73770316801F00F011F
:10080000B9427047003C024000380240F00C00083A
:100810000C0000200800002030B5144C606800F087
:100820000C00042802D0082802D01DE0104830BD7A
:10083000226820680023410202F03F0204D52568A7
:100840000B49C5F3881003E020680A49C0F38810FB
:10085000A1FB000100F030F82168C1F30141491CFF
:100860004900B0FBF1F030BD024830BD0438024011
:1008700000127A000024F40038B50D4D0D4B2A7893
:1008800004464FF47A711868B1FBF2F2B0FBF2F053
:1008900000F0D8F850B9102C08D2002221464FF0B1
:1008A000FF3000F0A7F8AC60002032BD012032BD5F
:1008B000000000200C000020D3BBD9B1B2F5803F6E
:1008C0005BD2022A1ED98C46B1FBF2F102FB11C3A6
:1008D0001B0443EA1043B3FBF2FC02FB1C3380B25F
:1008E00040EA0343B3FBF2F002FB103240EA0C4053
:1008F00000237047022A05D98446B0FBF2F002FBC0
:1009000010C270474AB105D100F0010249085FEA00
:100910003000704700220023704700F0B3B80B008E
:100920000200002100207047F7D300220023704707
:10093000904271EB030CF2D370B5B1FA81F4B3FAC3
:1009400083F52C1BA340C4F1200532FA05F633438E
:10095000A2405FF00046E64002E05B085FEA320238
:10096000841A71EB030524BF204629467641F4D34F
:1009700002000B003000002170BD70B5B1FA81F4A7
:10098000B2FA82F5C4F120046419B4F12006DAD376
:10099000B2405FF00044F440002502E052085FEAF4
:1009A0003303C61A71EB020E24BF30467146644110
:1009B0006D41F3D302000B002000290070BD000040
:1009C0000901020002D4294881547047284B02F0E3
:1009D0000F021A4402F8041C7047264B19684FF6A0
:1009E000FF020002114000F4E0600843224908437E
:1009F0001860704738B51F4B1C68C4F30223C3F15D
:100A00000704052C28BF04241D1D072D34BF002317
:100A1000DB1E012505FA04F4641E2140994005FA05
:100A200003F35B1E1A401143BDE83440C8E70100E0
:100A300007D4012200F01F01104B8A40400943F8FF
:100A40002020704710B5401EB0F1807F01D30120F7
:100A500010BD0B4C60600F214FF0FF30FFF7B0FF6F
:100A60000021A16007202060002010BD00E400E00C
:100A700018ED00E00CED00E00000FA0500E100E0F8
:100A800010E000E07047000010B586B000F0A4F858
:100A900000F04BF801A8142100F0B8F800200090F5
:100AA000474C4848016841F080010160026802F04B
:100AB00080020092002200990092036843F0100324
:100AC0000360016801F010010091009900924FF459
:100AD0007F41036843F008030360006800F00800EA
:100AE000009000982046FFF7DCFD4FF48060364907
:100AF000019002910022039201A93448FFF7EEFC15
:100B00004FF47F410191012200210391049102924F
:100B100001A92046FFF7E2FC00220F212820FFF761
:100B200069FF2820FFF783FFFEE780B592B006A893
:100B3000302100F06BF801A8142100F067F80020C4
:100B400000904FF480332248016841F080510160E9
:100B50000021006800F08050009000981D4800912E
:100B6000026822F4404242F480420260012200689E
:100B700000F44040009006A80099069202214FF42C
:100B800080020C910D92042178220E910F92022185
:100B90000422079310911192FFF708FB02210291A2
:100BA000002203920F204FF4A051019004914FF4C2
:100BB00080520592032101A8FFF79EFD13B000BDEE
:100BC000000C0240303802400000211000100240AA
:100BD000403802400070004080B50B48016841F485
:100BE00000710160026842F480620260016841F4B1
:100BF000807101600320FFF7F0FE0020FFF73CFE4C
:100C000000F008F8002002BD003C0240002200F085
:100C10001DB8000081B00020009000220A48416801
:100C200041F480414160416801F4804100910099A4
:100C30000092036843F080530360006800F0805026
:100C40000090009801B070474038024000B500BFE6
:100C5000130096469446103928BFA0E80C50FAD8E5
:100C60005FEA417C28BF0CC048BF40F8042BC9078D
:100C700028BF20F8022B48BF00F8012B00BD000060
:100C80007047FEE7FEE7FEE7FEE7704770477047F4
:100C900000F018B880B54FF48060FFF706FD0748F4
:100CA0000188090A491C8AB2FF2A08BF00210902EB
:100CB000018089B20248016001BD000010000020DF
:100CC000140C02400248416802788A18426070475A
:100CD000000000200448054A016841F470010160E9
:100CE0004FF000601060704788ED00E008ED00E014
:100CF00000000000000000000102030406070809CC
:100D000030B450F8041B79B10268436802440830DB
:100D1000DC0744BFA9F10104E31852F8045B43F86F
:100D2000045B091FF9D1ECE730BC704710B50749E7
:100D300079441831064C7C44163404E00A68081DD6
:100D4000114488470146A142F8D110BD2C00000093
:100D50003C0000004EF68851CEF20001086840F4D5
:100D600070000860BFF34F8FBFF36F8F4FF00070BC
:100D7000E1EE100A7047000089FFFFFF1400000039
:100D800054000000000000200000000000F00DF8FA
:100D9000002801D0FFF7CAFFAFF300800020AFF3B7
:100DA0000080FFF771FE00F002F80120704700F0AC
:100DB00001B800000746384600F002F8FBE70000E3
:100DC00080B5AFF30080024A11001820ABBEFBE7EC
:100DD00026000200010000000000000010000000DA
:100DE0000024F4000000000001488047014800474B
:100DF000D50C0008F90D0008AFF30080FFF7AAFF3B
:100E0000FFF7C4FFFFF7FEBFFFF7FEBFFFF7FEBF10
:100E1000FFF7FEBFFFF7FEBFFFF7FEBFFFF7FEBF06
:100E2000FFF7FEBFFFF7FEBFFFF7FEBFFFF7FEBFF6
:100E3000FFF7FEBFFFF7FEBFFFF7FEBFFFF7FEBFE6
:100E4000FFF7FEBFFFF7FEBFFFF7FEBFFFF7FEBFD6
:100E5000FFF7FEBFFFF7FEBFFFF7FEBFFFF7FEBFC6
:100E6000FFF7FEBFFFF7FEBFFFF7FEBFFFF7FEBFB6
:100E7000FFF7FEBFFFF7FEBFFFF7FEBFFFF7FEBFA6
:100E8000FFF7FEBFFFF7FEBFFFF7FEBFFFF7FEBF96
:100E9000FFF7FEBFFFF7FEBFFFF7FEBFFFF7FEBF86
:100EA000FFF7FEBFFFF7FEBFFFF7FEBFFFF7FEBF76
:100EB000FFF7FEBFFFF7FEBFFFF7FEBFFFF7FEBF66
:100EC000FFF7FEBFFFF7FEBFFFF7FEBFFFF7FEBF56
:100ED000FFF7FEBFFFF7FEBFFFF7FEBFFFF7FEBF46
:100EE000FFF7FEBFFFF7FEBFFFF7FEBFFFF7FEBF36
:100EF000FFF7FEBFFFF7FEBFFFF7FEBFFFF7FEBF26
:100F0000FFF7FEBFFFF7FEBFFFF7FEBFFFF7FEBF15
:100F1000FFF7FEBFFFF7FEBFFFF7FEBFFFF7FEBF05
:100F2000FFF7FEBFFFF7FEBFFFF7FEBFFFF7FEBFF5
:100F3000FFF7FEBFFFF7FEBFFFF7FEBFFFF7FEBFE5
:100F4000FFF7FEBFFFF7FEBFFFF7FEBFFFF7FEBFD5
:100F5000FFF7FEBFFFF7FEBFFFF7FEBFFFF7FEBFC5
:080F6000FFF7FEBFFFF7FEBF23
:0400000508000DF9E9
:00000001FF
